:020000040800F2
:10000000F05C00204D0300088B3B0008E52D000844
:10001000893B000831060008F94D00080000000087
:100020000000000000000000000000008D02000839
:10003000F107000800000000E90200088142000802
:1000400067030008670300086703000867030008E8
:100050006703000867030008F30700086703000848
:100060000F08000815080008670300086703000868
:100070001107000867030008670300081D07000850
:100080006703000829070008670300084106000805
:1000900035060008670300086703000867030008C7
:1000A0006703000867030008670300086703000888
:1000B0006703000867030008670300086703000878
:1000C0006703000867030008670300086703000868
:1000D00067030008B94C000867030008C54C000816
:1000E000F9070008670300086703000867030008B2
:1000F0006703000867030008670300086703000838
:100100006703000867030008670300086703000827
:100110006703000867030008670300083943000805
:100120006703000835070008410700086703000857
:100130006703000867030008670300085906000802
:100140004D060008670300086703000867030008FE
:100150006703000867030008670300085D4D000897
:1001600067030008670300086703000867030008C7
:100170006703000867030008670300080000000029
:10018000670300086703000867030008CD470008FD
:100190006703000867030008670300086703000897
:1001A00000000000000000006703000800F002F8F3
:1001B00000F05CF80AA090E8000C82448344AAF1A5
:1001C0000107DA4501D100F051F8AFF2090EBAE8A3
:1001D0000F0013F0010F18BFFB1A43F0010318477B
:1001E00094680000B46800000A444FF0000C10F856
:1001F000013B13F0070408BF10F8014B1D1108BFA5
:1002000010F8015B641E05D010F8016B641E01F844
:10021000016BF9D113F0080F1EBF10F8014BAD1C94
:100220000C1B09D16D1E58BF01F801CBFAD505E0B2
:1002300014F8016B01F8016B6D1EF9D59142D6D30C
:10024000704700000023002400250026103A28BF34
:1002500078C1FBD8520728BF30C148BF0B60704738
:100260001FB506F0F9F81FBD10B510BD00F0ABF9D1
:100270001146FFF7F5FF04F0DFFE00F0C9F903B403
:10028000FFF7F2FF03BC00F0CDF900002C4B19681A
:100290000868B0E8F04F80F30988BFF36F8F4FF024
:1002A000000080F3118870470000000008480068D3
:1002B000006880F308884FF0000080F3148862B66D
:1002C00061B6BFF34F8FBFF36F8F00DF00BF00BF7A
:1002D00008ED00E0DFF80C00016841F470010160F6
:1002E000704700BF88ED00E0EFF30980BFF36F8F28
:1002F000134B1A681EF0100F08BF20ED108A20E97A
:10030000F04F106009B44FF0500080F31188BFF334
:100310004F8FBFF36F8F05F081FE4FF0000080F329
:10032000118809BC19680868B0E8F04F1EF0100F7A
:1003300008BFB0EC108A80F30988BFF36F8F704755
:100340003C000020EFF3058070470000094880471B
:1003500009480047FEE7FEE7FEE7FEE7FEE7FEE7A7
:10036000FEE7FEE7FEE7FEE704480549054A064BBF
:10037000704700001D430008AD010008F056002042
:10038000F05C0020F0580020F058002053EA020CE6
:1003900000F069802DE9F04B4FF00006002B1FBFE5
:1003A000B3FA83F503FA05F424FA05F65E4012BFAA
:1003B0001643B2FA82F502FA05F4C5F120051EBF14
:1003C00022FA05FC44EA0C04203556EA044C4FEAB4
:1003D000144418BF641C4FF000084FF0000990420D
:1003E00071EB030C39D3002919BFB1FA81F701FA77
:1003F00007F6B0FA80F700FA07F6C7F120071EBF2C
:1004000020FA07FC46EA0C062037B6FBF4FCA7EB03
:100410000507103F07F01F0BCBF120060CFA0BFB72
:100420002CFA06F644BFB3460026202FA4BF5E4632
:100430004FF0000B5BEA060C08BF4FF0010B19EB05
:100440000B09ABFB027C48EB0608C01B06FB02CC89
:100450000BFB03CC71EB0C01C1E70B460246414696
:100460004846BDE8F08B13B54FF000004FF0000197
:10047000AFF30080BDE81C407047032A40F2308093
:1004800010F0030C00F0158011F8013BBCF1020FD5
:10049000624498BF11F801CB00F8013B38BF11F856
:1004A000013BA2F1040298BF00F801CB38BF00F86D
:1004B000013B11F0030300F02580083AC0F00880EA
:1004C00051F8043B083A51F804CBA0E80810F5E7CE
:1004D000121D5CBF51F8043B40F8043BAFF30080B1
:1004E000D20724BF11F8013B11F801CB48BF11F826
:1004F000012B24BF00F8013B00F801CB48BF00F8F6
:10050000012B704710B5203AC0F00B80B1E81850AD
:10051000203AA0E81850B1E81850A0E81850BFF4ED
:10052000F5AF5FEA027C24BFB1E81850A0E818508C
:1005300044BF18C918C0BDE810405FEA827C24BFE0
:1005400051F8043B40F8043B08BF7047D20728BF6E
:1005500031F8023B48BF11F8012B28BF20F8023BBD
:1005600048BF00F8012B70474FF0000200B513465A
:1005700094469646203922BFA0E80C50A0E80C50C3
:10058000B1F12001BFF4F7AF090728BFA0E80C5074
:1005900048BF0CC05DF804EB890028BF40F8042B6D
:1005A00008BF704748BF20F8022B11F0804F18BFDA
:1005B00000F8012B7047704770477047004870473C
:1005C0008C56002070477546FFF7F8FFAE460500D1
:1005D0006946534620F00700854618B020B5FFF75E
:1005E000C3FEBDE820404FF000064FF000074FF07B
:1005F00000084FF0000B21F00701AC46ACE8C00941
:10060000ACE8C009ACE8C009ACE8C0098D46704749
:1006100010B50446AFF300802046BDE81040FFF758
:100620002EBE000001491820ABBEFEE726000200E6
:10063000FEE70000014800F078BA0000200B00201F
:10064000014800F072BA0000200B0020014800F0C1
:100650006CBA0000480B0020014800F066BA0000A8
:10066000480B002010B50A88274CC2F30A02A2F5F5
:10067000806202804A788B78D20842EA4312C2F341
:100680000A02A2F5806242808A78CB78920942EA17
:1006900083020B7942EA8322C2F30A02A2F5806246
:1006A00082800A794B79520842EAC312C2F30A02E5
:1006B000A2F58062C2804A79920902724A79C2F335
:1006C000011242720A8AC2F30A02A2F580624281D2
:1006D000CA8882810A89C2814A8902820A7B82741D
:1006E0004A7BC274C98981822088401C80B2A0F5EF
:1006F0002F412080C83906D14FF48041034801F0D2
:10070000E4F80020208010BD040000200014024006
:10071000014800F035BD0000780E0020014800F0CF
:100720002FBD0000D80E0020014800F029BD0000B8
:10073000B80D0020014800F023BD0000380F002054
:10074000014800F01DBD0000180E002001681823AC
:10075000CAB2103AB2FBF3F2054B6FF30901032A58
:100760009B5CC36500D9091D816508467047000080
:100770000C65000810B5014600208B698A6A4FF0AD
:10078000C07453B1B3F5005F15D072B1012A0CD01B
:10079000022A0AD0032A09D104E01AB1012A06D09C
:1007A000022A03D1C96AC90100D5012010BDC96A56
:1007B000A142FAD010BD002AF7D0012AF2D0022AB5
:1007C000F3D0032AF3D010BD30B50468256825F4B2
:1007D00080252560046863608368402B036803D02C
:1007E00099600068C26030BD9A600068C16030BD29
:1007F0007047012000F040BF10B54FF4805000F06A
:100800003BFFBDE810404FF4005000F035BF04201E
:1008100000F032BF082000F02FBF704770B5094DBF
:10082000FF231A4605F5807606E000BF10F8014B5D
:1008300054402A5D5A40335D491EF7D243EA0220F4
:1008400070BD00002C65000890F82020012A07D018
:10085000022A05D0416A41F480214162012070479B
:10086000006842690A43426100207047F0B590F881
:1008700020500468A468012D05D0022D03D0416AE0
:1008800041F4802153E014F0406F01D1E5004BD5D5
:10089000C4F30164022C03D9416A41F4000146E02B
:1008A0000125A5401D608D684FF4C0739DB1CE68D1
:1008B00035434E6845EAC605066803EB0417F55153
:1008C0004FF4C275076805EB04150E697E51097D6A
:1008D000012905D009E00E88CD6845EA4655EBE7C9
:1008E00001684E5946F480764E511179D2F8055080
:1008F0004FF4C67641EA0525016806EB04168D51D2
:100900001178D2F801204FF4C47541EA022102683F
:1009100005EB04155151006803EB0411425842F0F5
:10092000010242500020F0BD416A41F400114162D1
:100930000120F0BD10B590F82020012A07D0022A2E
:1009400005D0416A41F480214162012010BD3B483D
:10095000D0F8002242F00102C0F80022D0F80022B4
:1009600022F47C52C0F80022D0F800224B6A42EAFE
:100970000322C0F800220A7D02F01F0301229A40E0
:10098000D0F81C329343C0F81C32CB69B3B9D0F80D
:100990000C329343C0F80C328C894B6864F31F43CC
:1009A0004C6900EBC404C4F840320C890B6864F352
:1009B0001F434C6900EBC404C4F84432CB69012BDB
:1009C00016D1D0F80C321343C0F80C320C884B68A7
:1009D00064F31F434C6900EBC404C4F840320C8933
:1009E000CB6864F31F434C6900EBC404C4F8443281
:1009F0008B69002BD0F804320ED01343C0F80432B8
:100A00000B69002BD0F8143208D01343C0F814320D
:100A1000096A012904D008E09343EFE79343F5E71F
:100A2000D0F81C121143C0F81C12D0F8001221F0AB
:100A30000101C0F80012002010BD00000064004059
:100A4000704730B590F82040012C05D0022C03D01F
:100A5000416A41F480215DE00468002955D0246991
:100A6000A40754D04FF4D874056804EB01142D5931
:100A700015F00405956005682D594ED0ED085560B8
:100A800005682C5904F00204D4604FF4DA74056848
:100A900004EB01142D5905F00F05156105682D595A
:100AA000C5F30725956105682C59240C54614FF452
:100AB000DC72046802EB0112A4581C700468A4588C
:100AC000240A5C700468A458240C9C700468A25822
:100AD000120EDA704FF4DE72046802EB0112A458B1
:100AE0001C710468A458240A5C710468A458240C7E
:100AF0009C710468A258120EDA71006881B1016914
:100B000041F020010161002030BDE468A8E7416A9E
:100B100041F400114162012030BD6D0D1560AFE759
:100B2000C16841F02001C160EDE72DE9F05F0546A5
:100B3000006800244669D0F804908768D0F80CB0AB
:100B4000D0F810A0D0F81880F10748D0F90714D0D9
:100B500001218160B80703D5284600F0B2FA0CE005
:100B6000780702D54FF4006407E0380702D54FF448
:100B7000805402E0284600F0A3FAF80516D529684B
:100B80004FF480708860B80503D5284600F09BFAC2
:100B90000CE0780502D544F4005407E0380502D58E
:100BA00044F4804402E0284600F08CFAF80316D59D
:100BB00029684FF480308860B80303D5284600F0D8
:100BC00084FA0CE0780302D544F4004407E03803CB
:100BD00002D544F4803402E0284600F075FA30076C
:100BE00007D55FEACB6004D52968102044F400746F
:100BF000C86070074FF0080707D55FEA0B7004D58F
:100C00002868C760284600F0A9F9B00706D528680B
:100C1000C068800702D0284600F0A2F9700607D508
:100C20005FEACA6004D52968102044F48064086132
:100C3000B00607D55FEA0A7004D528680761284620
:100C400000F00EFAF00606D528680069800702D089
:100C5000284600F006FAB00308D55FEAC96005D55A
:100C6000296810204860284600F0FCF9F00307D5F9
:100C70005FEA097004D528684760284600F026FA24
:100C8000300446D55FEA497040D5F00504D55FEAE7
:100C9000C87001D044F00104B00504D55FEA887043
:100CA00001D544F00204700504D55FEA487001D50F
:100CB00044F00404300529D518F0700F26D008F050
:100CC0007000402815D006DC102809D020280AD052
:100CD000302816D10AE050280ED0602811D10EE03D
:100CE00044F008040DE044F010040AE044F020044D
:100CF00007E044F0400404E044F0800401E044F4E0
:100D000080742868816921F070018161296804205C
:100D10004860002C05D0686A204368622846FFF7C7
:100D20008FFEBDE8F09F70B5040003D094F820005A
:100D300010B104E0012070BD204600F081F8206869
:100D4000016821F00201016000F0CCFD0546052696
:100D500004E000F0C7FD401B0A2811D82068406855
:100D60008007F6D42068016841F00101016000F0BD
:100D7000B9FD05460BE000F0B5FD401B0A2806D979
:100D8000606A40F40030606284F82060D2E7206836
:100D90004068C007EFD0207E0128206801683DD060
:100DA00021F080010160607E01282068016838D050
:100DB00021F040010160A07E01282068016833D045
:100DC00021F020010160E07E0128206801682ED01A
:100DD00041F010010160207F01282068016829D0BE
:100DE00021F008010160607F01282068016824D09B
:100DF00021F004010160D4E902010843D4E904129E
:100E0000114308436168491E08432168C8610020F6
:100E10006062012084F82000002070BD41F0800154
:100E2000C0E741F04001C5E741F02001CAE721F0E9
:100E30001001CFE741F00801D4E741F00401D9E700
:100E4000F0B587B0044614216846FFF78DFB3E4B92
:100E50003E48DFF8F0E01968D4F800C03B4A0325AB
:100E60000226092710300024491CF4452AD11960B4
:100E7000012907D1016841F000710160006800F0AC
:100E800000700590106840F0080010601068CDE90F
:100E9000005600F00800CDE9047069462C48CDE901
:100EA000024500F0F5FB00220521132000F08CFD27
:100EB000132000F07BFD00220521142000F084FDAA
:100EC00014203BE0DFF88CE0F44539D1D0F800C0C5
:100ED0004CF0806CC0F800C0D0F800C001290CF0C4
:100EE000806CCDF814C0196007D1016841F0007121
:100EF0000160006800F000700590106840F002008A
:100F00001060106802AB00F0020005904FF44050F2
:100F1000CDE9000683E8B00069460F4800F0B8FB51
:100F2000002205213F2000F04FFD3F2000F03EFD54
:100F300000220521402000F047FD402000F036FD52
:100F400007B0F0BD006400402400002030380240AB
:100F5000000C02400068004000040240704700009E
:100F600030B53A4A01680025394C8BB0914222D104
:100F700007AB6A460021FFF764FD0098A0F201204C
:100F8000062857D22189C0B2491C00EB40022181BA
:100F90003048BDF81C1000EB820049BA8180BDF8D2
:100FA0001E1049BAC180BDF8201049BA01819DF8D0
:100FB000221081723EE0284A91423BD109AB6A4639
:100FC0000021FFF73EFD234800994830A1F201219E
:100FD000062916D22289C9B2521C2281BDF82420CA
:100FE00001EB410100EB810152BA8A80BDF8262055
:100FF00052BACA80BDF8282052BA0A819DF82A2028
:101000008A7282884FF47A6301219A4206D96288F3
:101010002AB92288521C2280618000E06580808B82
:10102000984206D9E08828B9A088401CA080E180B9
:1010300000E0E5802089B0F5167F05D14FF400610E
:10104000064800F042FC25810BB030BD0064004032
:10105000A4000020884C00200068004000100240DE
:10106000704770477047000070B5044690F8200044
:10107000012804D0606A40F40020606218E0022079
:1010800084F820002068016821F00101016000F06F
:1010900029FC05460EE000BF00F024FC401B0A2896
:1010A00008D9606A40F400306062052084F82000AE
:1010B000012070BD20684068C007EDD1606270BD3E
:1010C00070477047704770477047704770472DE909
:1010D000F0410446876D00F005FC064694F83500A3
:1010E0000025022806D08020606584F83450012055
:1010F000BDE8F0812068016821F0160101602068D8
:10110000416921F080014161206C08B9A06C20B1D7
:101110002068016821F0080101602068016821F061
:10112000010101600BE000F0DDFB801B052806D902
:101130002020606504F8345F03206070D8E72068E1
:101140000068C007EFD194F85C103F208840B86079
:1011500004F8345F012060700020C9E790F8351072
:10116000022903D08021416501207047052180F8C4
:1011700035100068016821F001010160002070470E
:101180002DE9F84304464FF00009CDF8009063487C
:101190004FF41651A56D0068B0FBF1F72E6894F876
:1011A0005C10082000FA01F131420FD021680A6872
:1011B00052070BD50A6822F004020A6094F85C100A
:1011C0008840A860606D40F00100606594F85C1094
:1011D0004FF0010808FA01F0304208D0216849694F
:1011E000090604D5A860606D40F00200606594F8BF
:1011F0005C1004208840304208D0216809688907C3
:1012000004D5A860606D40F00400606594F85C103F
:1012100010208840304218D021680968090714D589
:10122000A86020680168490304D50068000308D558
:10123000A16C07E00168C90503D4016821F0080129
:101240000160216C09B12046884794F85C10202089
:101250008840304231D021680968C9062DD5A86080
:1012600094F8350005282068016806D0490347D561
:10127000006800031DD4616C1CE021F016010160C0
:101280002068416921F080014161206C08B9A06C9F
:1012900020B12068016821F00801016094F85C1019
:1012A0003F208840A86084F8349084F83580216D10
:1012B0001FE0E16B09B120468847606D00282BD004
:1012C000606DC00714D0052084F8350020680168DF
:1012D00021F0010101600098401C0090B84203D841
:1012E00020680068C007F6D184F8349084F835800F
:1012F000E16C002910D001B02046BDE8F04308475A
:101300000168C905D5D4016821F01001016084F895
:10131000349084F83580CCE7BDE8F88338000020AD
:101320002DE9F041044600F0DDFA06465CB10025E7
:1013300084F83450022084F835002068016821F0D8
:10134000010101600DE00120BDE8F08100F0CAFA62
:10135000801B052805D920206065032084F835000E
:10136000F2E720680068C007F0D1226811682048C1
:101370000140D4E901031843D4E903363343184349
:1013800063691843A3691843E3691843236A184340
:101390000843616A042903D1D4E90B1319430843B4
:1013A000106020684069666A20F0070130460E43ED
:1013B000012704280CD1A06A0643E06A40B1204608
:1013C000FFF7D8F920B14020606584F83570BAE79E
:1013D000206846612046FFF7B9F994F85C203F2168
:1013E00091408160656584F835700020ACE70000AD
:1013F0003F8010F070B5044690F8340000250128B5
:101400000CD0012084F8340094F835600020012EBF
:1014100006D084F834000225284670BD022070BD35
:10142000022684F8356060652046FFF7CDF9206814
:10143000016841F001010160EEE72DE9F041044649
:10144000866D90F83400002501280DD0012084F825
:10145000340094F835700020012F07D084F8340050
:1014600002252846BDE8F0810220FBE7022784F828
:10147000357060652046FFF7A7F994F85C103F20AF
:101480008840B0602068016841F016010160206C5E
:1014900020B12068016841F00801016020680168FE
:1014A00041F001010160DCE770B5044600F01AFA72
:1014B0000546601C02D004480078044400F012FA8B
:1014C000401BA042FAD370BD2C0000202DE9F0474C
:1014D0000027DFF88CA1634C634E0125012810D052
:1014E0006903624A88423BD188469146104600F023
:1014F000E7F930B34146484600F0E2F9012827D029
:101500002CE0DFF86C910121484600F0D9F94FF446
:10151000807830B10121484600F0D2F9012807D087
:101520000CE000224146504600F0D7F9257105E055
:1015300001224146504600F0D0F927713560BDE8E0
:10154000F08700222021504600F0C7F9A77005E07F
:1015500001222021504600F0C0F9A57040467DE0F0
:101560004FF480584FF0020940451DD141461746BF
:10157000104600F0A5F930B14146384600F0A0F918
:10158000012808D00DE001221021504600F0A5F9F5
:1015900084F8029005E000221021504600F09DF9E9
:1015A000A570C6F80080CAE7DFF8C88008280FD009
:1015B000042829D00228C2D10221404600F080F937
:1015C000A8B30221404600F07BF901283FD044E057
:1015D0000821404600F074F930B10821404600F07F
:1015E0006FF9012808D00DE001220821504600F0D3
:1015F00074F984F8039005E000220821504600F0B9
:101600006CF9E570082029E00421404600F058F903
:1016100030B10421404600F053F9012808D00DE014
:1016200001224021504600F058F9E77006E007E03B
:1016300000224021504600F050F9E57004200DE0F2
:1016400001228021504600F048F9E57105E00022B2
:101650008021504600F041F9E771484630606EE75E
:1016600000180240F8000020143C0140000C024029
:101670000008024000000240044910B50A68024216
:1016800002D00860FFF722FF10BD0000143C0140AB
:101690002DE9F84FDFF8F4A1002201240AF1040B30
:1016A00003254FF00F090BF1040E00BF0B6804FA7D
:1016B00002F63340B3426FD10F7907F00307012FD1
:1016C00001D0022F16D187684FEA420805FA08FCBC
:1016D00027EA0C07D1F80CC00CFA08FC4CEA070CFE
:1016E000C0F808C04768B7430E79C6F300169640A5
:1016F0003E4346600E79F643B6070AD0C7684FEA04
:10170000420C05FA0CF6B7438E6806FA0CF63E4317
:10171000C6600E7906F00306022E10D1D60800EB43
:101720008608D8F8206057074FEAD76C09FA0CF7FB
:10173000BE430F6907FA0CF73743C8F820700668F4
:101740004FEA420C05FA0CF7BE430F7907F0030786
:1017500007FA0CF7374307604E68F6001CD54C4E6D
:10176000376847F480473760366822F0030706F48D
:1017700080460096474E07EB060CDCF80868970792
:101780003F0F09FA07F826EA0806DFF80C81404502
:1017900003D14FF0000841E072E0DFF800814045DE
:1017A00002D14FF0010839E0DFF8F480404502D162
:1017B0004FF0020832E0DFF8EC80404502D14FF0F4
:1017C00003082BE0DFF8E080404502D14FF0040829
:1017D00024E0DFF8D880404502D14FF005081DE035
:1017E000DFF8CC80404502D14FF0060816E0DFF864
:1017F000C480404502D14FF007080FE0DFF8B88001
:10180000404502D14FF0080808E0DFF8B0804045BD
:1018100002D14FF0090801E04FF00A0808FA07F872
:1018200048EA0608CCF80888DAF800605746D1F88C
:1018300004C09E435FEACC3C00D51E433E60DBF80B
:1018400000605F46D1F804C09E435FEA8C3C00D53F
:101850001E433E60DEF800607746D1F804C09E4328
:101860005FEACC2C00D51E433E60084F0C373E6823
:10187000D1F804C09E435FEA8C2C00D51E433E6025
:10188000521C102AFFF412AFBDE8F88F003C014053
:101890004438024000300140000002400004024091
:1018A00000080240000C02400010024000140240F8
:1018B00000180240001C02400020024000240240A8
:1018C0000069084000D001207047426921EA020304
:1018D0000A4043EA0241816170470AB18161704761
:1018E0000904FBE701488068704700002C000020D5
:1018F0000248816802781144816070472C00002002
:101900000B4810B5016841F400710160016841F4B1
:1019100080610160016841F480710160032000F082
:1019200073F80F2000F006F800F024F8002010BD36
:10193000003C024070B50D4D04464FF47A71287892
:10194000B1FBF0F00A490968B1FBF0F000F010FBC0
:1019500048B9102C07D200222146501E00F034F85E
:1019600000206C6070BD012070BD00002C000020C4
:10197000380000200C4882B0016841F480410160C9
:10198000006800F4804000900748001F016841F0A3
:10199000805101600068002200F0805000900F210B
:1019A000901E02B000F010B844380240002809DB55
:1019B00000F01F02012191404009800000F1E02069
:1019C000C0F8001170470000F0B40E4B1B680C46C5
:1019D000C3F30223C3F10705042D00D90425191D03
:1019E000072901D2002300E0DB1E012606FA05F1DB
:1019F000491E214099409E40761E16403143F0BC5E
:101A000003F0FBB90CED00E0064900F0070208689E
:101A10004FF6FF03184040EA0220034A10430860D3
:101A2000704700000CED00E00000FA052DE9F047DA
:101A30000E46050065D0DFF81481D8F80000F7B233
:101A400000F00F00B04207D288F80070D8F800000C
:101A500000F00F00B04254D128683D4C810712D5E8
:101A6000400703D5206840F4E05020602878000744
:101A700003D5206840F4604020602068A96820F009
:101A8000F000084320602878C0072DD030496868EE
:101A90000839012812D0022813D0032811D0096870
:101AA000890700292DDA216821F003010143216013
:101AB000FFF718FF814641F2883A0EE00968890372
:101AC000EFE709688901ECE7FFF70CFFA0EB0901DC
:101AD000514502D90320BDE8F0872068696800F00D
:101AE0000C00B0EB810FEFD1D8F80010404601F0A8
:101AF0000F01B14207D90770006800F00F00B04233
:101B000001D00120E7E72878400705D52068E9687B
:101B100020F4E050084320602878000706D52068AC
:101B2000296920F4604040EAC100206000F038F8E4
:101B30002168084AC1F30311515CC8400649086096
:101B400006480068FFF7F6FE0020C4E7003C0240AC
:101B500008380240146500083800002030000020DA
:101B60000448054900680968044AC1F38221515CB0
:101B7000C84070473800002008380240246500083B
:101B80000448054900680968044AC1F34231515CC0
:101B9000C84070473800002008380240246500081B
:101BA000154810B5006810F00C02144813D0144901
:101BB000042A0FD0082A0ED10F4C241F2268236854
:101BC00002F03F025B0207D52068C0F38810A0FB3B
:101BD000010106E0084610BD2168C1F38811A1FB90
:101BE00000010023FEF7D2FB2168C1F30141491C2B
:101BF0004900B0FBF1F010BD083802400024F400A9
:101C0000001BB7002DE9F84F04006ED02078DFF8F4
:101C10004C93C007A9F104054AD009F104000168FA
:101C2000C1F38101012908D00068C0F381000228B6
:101C30000AD1D9F80000400206D52868800337D5BC
:101C400060680028E1D033E06068B0F5803F10D0D4
:101C5000B0F5A02F286810D020F4803028602868C4
:101C600020F4802028606068A8B1FFF73BFE06469C
:101C70000DE0286840F48030F4E740F480202860CC
:101C8000F7E700BFFFF72EFE801B642873D8286893
:101C90008003F7D50CE0FFF725FE064605E000BF00
:101CA000FFF720FE801B6428F0D828688003F7D453
:101CB0002078DFF8AC8280074FF0000A3ED5A748B5
:101CC000001D016811F00C0F08D00068C0F38100FE
:101CD00002280BD1D9F80000400207D428688007F9
:101CE00016D5E068012800D112E033E1E068B8B110
:101CF0000120C8F80000FFF7F5FD064605E000BF2B
:101D0000FFF7F0FD801B0228C0D828688007F7D5B0
:101D10002868216920F0F80040EAC10028600DE041
:101D2000C8F800A0FFF7DEFD064604E0FFF7DAFD85
:101D3000801B02281FD828688007F7D42078000766
:101D400022D5864F87486169703771B101210160E2
:101D5000FFF7C8FD064604E0FFF7C4FD801B02281C
:101D600009D838688007F7D50EE0C0F800A0FFF763
:101D7000B9FD064605E082E0FFF7B4FD801B0228AE
:101D80007DD838688007F7D42078400768D5DFF819
:101D9000CCB100270BF13C0BDBF80000C0000BD4EA
:101DA000DBF8001041F08051CBF80010DBF80000A8
:101DB000012700F0805000906B4E3068C00510D4B1
:101DC000306840F480703060FFF78CFD009005E0D3
:101DD000FFF788FD0099401A022850D83068C005E6
:101DE000F6D55E4EA0686C3601280FD00528306805
:101DF00010D020F001003060306820F00400306026
:101E0000A068B8B1FFF76EFD00900FE0306840F0B9
:101E10000100F4E740F004003060F7E7FFF762FDEF
:101E20000099411A41F28830814266D830688007B3
:101E3000F4D50EE0FFF756FD009007E0FFF752FDE6
:101E40000099411A41F28830814256D830688007A3
:101E5000F4D42FB1DBF8001021F08051CBF8001042
:101E6000A069C8B33D49091D0968C1F38101022970
:101E70004AD00228504607D0C8F8600000E03CE095
:101E8000FFF730FD04463BE04746C8F86000FFF727
:101E900029FD064605E000BFFFF724FD801B022850
:101EA0002BD828688001F7D4D4E907010843A16A38
:101EB0002E4A490802EB0141626A41EA8211084355
:101EC00094F82C1040EA0161C9F80010012038662E
:101ED000FFF708FD044606E03EE000BFFFF702FD05
:101EE000001B022809D828688001F7D534E000BF1C
:101EF000FFF7F8FC001B022802D90320BDE8F88F89
:101F000028688001F4D427E00128F7D0D9F8000030
:101F1000E26900F4800191421CD1226A00F03F0185
:101F2000914217D147F6C071626A0140B1EB821F3E
:101F300010D1A26A4FF0FF3300F4403103EB52029C
:101F4000B1EB024F06D194F82C1000F07060B0EBAA
:101F5000016F01D00120D1E70020CFE70438024013
:101F600000004742800E4742007000400000FFFF23
:101F700010B5401EB0F1807F01D3012010BD4FF09D
:101F8000E02460610F21601702F037FF0020A0619C
:101F900007202061002010BD7047704770B590F891
:101FA0003C20012A32D0012480F83C40022280F8F3
:101FB0003D2003685A689D6822F070060A68324323
:101FC0005A60134B02689A4214D0B2F1804F11D07C
:101FD000104B9A420ED0104B9A420BD00F4B9A42A4
:101FE00008D00F4B9A4205D00E4B9A4202D00E4BAE
:101FF0009A4204D1496825F080031943916080F822
:102000003D40002180F83C10084670BD022070BDA4
:10201000000001400004004000080040000C0040A7
:1020200000040140004001400018004010B50400C9
:1020300003D094F83D0010B107E0012010BD00204E
:1020400084F83C00204600F01FF8022084F83D0090
:10205000211D206802F050FA012084F8460084F81F
:102060003E0084F83F0084F8400084F8410084F882
:10207000420084F8430084F8440084F8450084F862
:102080003D00002010BD000008B5114A016811484C
:10209000914208D1016841F004010160006800F03C
:1020A0000400009008BD0C4A9142FBD1016841F048
:1020B000200101600068002200F02000009005214E
:1020C0003720FFF781FCBDE808403720FFF76EBCE2
:1020D00000080040403802400014004090F83D10D5
:1020E000012901D001207047022180F83D100168CC
:1020F000CA6842F00102CA6000681149884214D0DF
:10210000B0F1804F11D00F4988420ED00E4988425D
:102110000BD00E49884208D00D49884205D00D49A0
:10212000884202D00C49884204D1816801F007013D
:10213000062903D0016841F00101016000207047C9
:10214000000001400004004000080040000C004076
:1021500000040140004001400018004070B50446F2
:1021600090F83C00012817D0012584F83C5002204B
:1021700084F83D002068826822F0770222F47F42D2
:1021800082600868502830D00DDC20284DD005DC56
:1021900098B310283BD148E0022070BD302844D0CD
:1021A000402834D139E0602828D0702806D0B0F516
:1021B000805F2CD0B0F5005F29D10AE0CB68D1E96F
:1021C0000121206802F009FA2068816841F0770156
:1021D00009E0CB68D1E90121206802F0FEF920680E
:1021E000816841F48041816011E0CA6849682068D3
:1021F00002F0C8FA5021206807E016E0CA68496872
:10220000206802F0D0FA6021206802F0F0F984F82A
:102210003D50002084F83C0070BDCA6849682068C1
:1022200002F0B0FA40212068EFE72268014610462C
:10223000EBE7704770B50446006801694FF0000590
:10224000C943890715D4C168C943890711D4E91E58
:10225000016101202077206880698007204602D034
:10226000FFF7E7FF04E000F0C3F8204600F052F962
:10227000257720680169C943490717D4C168C94354
:10228000490713D46FF00401016102202077206810
:10229000806910F4407F204602D0FFF7CAFF04E0B7
:1022A00000F0A6F8204600F035F92577206801698E
:1022B000C943090716D4C168C943090712D46FF08E
:1022C00008010161042020772068C069800720464A
:1022D00002D0FFF7AEFF04E000F08AF8204600F0DD
:1022E00019F9257720680169C943C90617D4C1685F
:1022F000C943C90613D46FF010010161082020778B
:102300002068C06910F4407F204602D0FFF791FF9B
:1023100004E000F06DF8204600F0FCF82577206816
:102320000169C943C90708D1C168C943C90704D1B4
:10233000891E0161204600F053F920680169C943F4
:10234000090609D4C168C943090605D46FF08001A4
:1023500001612046FFF720FE20680169C943490654
:1023600009D4C168C943490605D46FF04001016131
:10237000204600F036F920680169C94389060BD46C
:10238000C168C943890607D46FF020010161204666
:10239000BDE87040FFF701BE70BD000010B586B00B
:1023A000044614216846FEF7DFF80E49206888428B
:1023B00015D10D480021026842F008020260006851
:1023C00000F0080005904FF4804000900220CDE915
:1023D0000101CDE9031069460448FFF759F906B039
:1023E00010BD00000008004030380240000C0240E0
:1023F000704770B5044690F83C000D4601280AD09D
:10240000012084F83C0042B1042A18D0082A2AD0BE
:102410000C2A4DD139E0022070BD206802F0F0F89E
:102420002068816941F0080181612068816921F09B
:1024300004018161206881692A69114311E02068E3
:1024400002F00EF92068816941F400618161206821
:10245000816921F480618161206881692A6941EA8A
:102460000221816124E0206802F030F92068C1690E
:1024700041F00801C1612068C16921F00401C16116
:102480002068C1692A69114311E0206802F052F9FD
:102490002068C16941F40061C1612068C16921F40B
:1024A0008061C1612068C1692A6941EA0221C16174
:1024B000002084F83C0070BD10B5040003D094F8EF
:1024C0003D0010B107E0012010BD002084F83C0061
:1024D000204600F01EF8022084F83D00211D2068EF
:1024E00002F00AF8012084F8460084F83E0084F8DF
:1024F0003F0084F8400084F8410084F8420084F8EA
:10250000430084F8440084F8450084F83D0000202E
:1025100010BD70477047000010B50446022249B153
:1025200004290ED0082913D094F84100012816D0B0
:10253000012010BD94F83E000128F9D184F83E2016
:102540000FE094F83F000128F2D184F83F2008E022
:1025500094F840000128EBD184F8402001E084F891
:1025600041200122206802F02BF816492068164A03
:10257000884201D0904203D1436C43F4004343644A
:102580002068884213D0B0F1804F10D00F498842A4
:102590000DD00F4988420AD00E49884207D0904298
:1025A00005D00D49884202D00C49884204D1816887
:1025B00001F00701062903D0016841F00101016023
:1025C000002010BD00000140000401400004004054
:1025D00000080040000C004000400140001800408E
:1025E00070477047704710B504460068416994F819
:1025F0003D20C1F3C011212A0BD151B1416921F015
:1026000080014161606B08B1FEF761FD204602F078
:10261000C6F92068416994F83E20C1F38011222A4E
:102620000BD151B1416921F040014161A06B08B16A
:10263000FEF74DFD204602F09AF9002010BD7047CC
:1026400030B401680A68D2065ED50A684968816BB1
:10265000304A096891420AD02F4A914207D02D4A48
:102660006032914203D02C4A6032914201D1202243
:1026700022E0284B1833DA1499421DD0264B183328
:10268000994219D0234B7833994215D0224B783395
:10269000994211D01F4B9202303399420CD01E4BFD
:1026A0003033994208D01B4B9033994204D01A4BD7
:1026B0009033994200D092010B6823F001030B6024
:1026C000816B154B09684833994202D91249091F99
:1026D00005E0104BA833994203D90F4908390A6025
:1026E00008E00C4C0B4B4834103BA14201D9DA6096
:1026F00000E09A60826B818D12685160816B09687D
:102700000A6842F001020A60816A30BC0348FDF7A2
:10271000A9BF000010600240106402404C4D002030
:10272000F8B5026804461068D168536910F00F0FBD
:102730004FF0000553D003F0010601F490773743C2
:102740005FD0C20705D0CA0503D5226C42F0010252
:102750002264420705D5DA0703D0226C42F0020258
:102760002264820705D5DA0703D0226C42F0040206
:102770002264020707D501F02002324303D0226C05
:1027800042F008022264226C002A34D0800604D56C
:10279000880602D5204602F047F920684069216C7E
:1027A000C0F38010090700D430B3204602F0DFF8F0
:1027B0002068416949061BD5416921F0400141610A
:1027C000A06BA8B159490165A06BFEF7C7FC0028B2
:1027D00011D0A06B016D01B0BDE8F0400847830641
:1027E0000FD58B060DD52046BDE8F84002F01CB988
:1027F0002046FFF724FFF8BD2046FFF720FF2564A1
:10280000F8BD266B2023012E53D1C60651D5CE0626
:102810004FD5106850680090506940062BD5A16BC9
:10282000086840680004000CEAD0A68D8642E7D90B
:10283000E085C869B0F5807F18D0D06820F480703A
:10284000D0602068416921F001014161206841693F
:1028500021F04001416184F83E3025632068C16861
:1028600021F01001C160A06BFEF731FCA08DE18D5D
:10287000401A81B219E0A08DE18D401A81B2E08D3D
:102880000028BDD00029BBD0D06820F49070D06063
:102890002068426922F00102426184F83E302563DB
:1028A0002068C26822F01002C2602046FFF79AFE3C
:1028B000F8BD05062BD50D0629D594F83D00212835
:1028C000F6D1A068B0F5805F01D12069B0B1206A6F
:1028D000411C2162216800784860E08C401E0004A1
:1028E000000CE084E4D12068C16821F08001C1605F
:1028F0002068C16841F04001C160F8BD206A0088CD
:10290000C0F308005060206A801C2062E5E74006A2
:10291000F3D54806F1D5D168204621F04001D160B9
:1029200084F83D3000F05CFAF8BD0000694800080A
:1029300070B5040004D094F83D00002510B106E005
:10294000012070BD84F83C50204600F023F824207C
:1029500084F83D002068C16821F40051C160204620
:1029600002F0BAF82068016921F490410161206801
:10297000416921F02A0141612068C16841F4005198
:10298000C1602564202084F83D0084F83E000020CA
:1029900070BD00002DE9F04F87B004461421684651
:1029A000FDF7E2FDA448A34F2668A34B103802228E
:1029B0000321DFF888A200254FF001094FF0080C31
:1029C000BE421DD11C6844F080441C601B6803F0AB
:1029D00080430593036843F0100303600068CDE96A
:1029E000029100F010000590C801CDE90002CDF879
:1029F00010C069465046FEF74BFE07B0BDE8F08FA9
:102A0000DFF83C824FF48067464534D11E6846F0BB
:102A100000461E601B6803F000430593036843F003
:102A200010030360006800F0100005908DE80602B6
:102A3000CDE9031C69465046FEF72AFE824E8148C6
:102A400030600005C6E90105C6E90357B810756195
:102A5000C6E90650356230467562FEF761FC08B182
:102A6000FDF7DBFEA663002205215320B463FEF7C9
:102A7000ABFF532044E0DFF8D481DFF8BC914FF086
:102A8000070A09F104094FF0006B46453BD1D9F81C
:102A9000006046F01006C9F80060D9F8003003F075
:102AA00010030593036843F0020303600068CDE957
:102AB000025100F002000590C020CDE90002CDF8DF
:102AC00010A069466248FEF7E3FD5F4E614860363C
:102AD0003060C6E901B5C6E903577561B561F561B6
:102AE000356230467562FEF71BFC08B1FDF795FEB6
:102AF000A663002205212520B463FEF765FF25208B
:102B0000FEF754FF79E7DFF85081464550D11E6843
:102B100046F480261E601B6803F480230593036837
:102B200043F0080303600068CDE9025100F008009B
:102B300005904FF44070CDE90002CDF810A0694631
:102B40004648FEF7A5FD404E3E48C0367838306016
:102B5000C6E901B5C6E903577561B561F56135622E
:102B600030467562FEF7DCFB08B1FDF756FEA66342
:102B7000B46334483A4E303806F1080130604005FD
:102B80007060402081E8A1007561B561F561356232
:102B900030467562FEF7C4FB08B1FDF73EFE666382
:102BA000002205212720B463FEF70EFF2720A7E7A8
:102BB0002C4B9E42A6D1D9F8006046F02006C9F8F9
:102BC0000060D9F8003003F020030593036843F058
:102BD000400303600068CDE9025100F04000059019
:102BE0004FF48440CDE90002CDF810C069461E487C
:102BF000FEF74EFD1A4E17486036183830608005D3
:102C0000C6E90105C6E903574FF480707561C6E94E
:102C10000650356230467562FEF782FB08B1FDF75B
:102C2000FCFDA663002205214720B463FEF7CCFE1D
:102C3000472065E70078004040380240001002401D
:102C4000007C0040A0600240B80D00200010014050
:102C5000000402404064024000480040000C024072
:102C6000D80E0020001401400018024090F83E30B9
:102C7000202B0ED159B152B190F83C30012B08D025
:102C8000012380F83C300023036301F0ABBF012037
:102C900070470220704730B40368DC6844F01004C9
:102CA000DC6030BC01F084BE704770472DE9F8430A
:102CB000044690F83D001F4616460D4620284CD18C
:102CC000C5B1BEB194F83C00012846D0012084F87B
:102CD0003C004FF00008C4F84080212084F83D00FB
:102CE000FEF700FEA6848146E684A068B0F5805F0A
:102CF00003D004E00120BDE8F883206928B12E4606
:102D00005FF0000584F83C800EE00026FAE78021A1
:102D1000204601F09FFFA0B9AEB116F8010B216863
:102D20004860E08C401EE084E08C4B464FF000028F
:102D300000970028EBD14FF04001204601F08AFFB8
:102D400030B10320D7E735F8020BC0F30800E6E7FF
:102D5000202084F83D000020CDE70220CBE70000D2
:102D600070B5044690F83D00202830D169B362B3B5
:102D700094F83C0001282AD0012084F83C0021620C
:102D8000A284E28400252564212084F83D00636B41
:102D90001048D863636B10481864636B0F48D8649D
:102DA000606B134605652668606B321DFEF745FBB8
:102DB00021686FF04000086084F83C502068416949
:102DC00041F080014161002070BD012070BD0220F2
:102DD00070BD0000374900086549000879480008BF
:102DE00070477047FEE700002DE9F05FDFF840A470
:102DF000AAF11806BAF8140000F001017170C0F3CE
:102E00004001F170C0F38001B170C0F3C0013171B5
:102E1000C0F300117171C0F34011B171C0F38011A2
:102E2000F171C0F3C0113172C0F300217172C0F3AF
:102E30004021B172C0F38021F172C0F3C02131731F
:102E4000C0F300317173C0F34031B173C0F380300F
:102E5000F073F84CD4E90F01411A64297CD920643D
:102E600002F02AF830700246F07AF34900254FF05C
:102E7000020E40F2DD134FF0010B04F1480C012863
:102E800017D1207B401CC0B22073022800D92573C3
:102E9000207B20B1012806D002280AD106E040F2AA
:102EA0001620088005E08CF805E001E08CF805B0FC
:102EB0000B8077786420002F678C06D00A373FB2EA
:102EC0006784642F07DD608405E01E3F3FB267849E
:102ED000002F00DA6584F778002FE78C06D00A37D8
:102EE0003FB2E784642F07DDE08405E01E3F3FB278
:102EF000E784002F00DAE584B778002FA78C06D08E
:102F00000A373FB2A784642F07DDA08405E01E3F87
:102F10003FB2A784002F00DAA58437793FB1278D0F
:102F20000A373FB22785642F08DD208506E0208D13
:102F30001E3800B22085002800DA2585707996F8C1
:102F4000088010EA080F08D0678DBF1C3FB2678564
:102F50003C2F0DDD3C270AE08DE0F779384207D0A1
:102F6000678DBF1E3FB267850A2F01DA0A27678582
:102F7000B24FB1467E42EAB3B148C846012A76D084
:102F8000DFF8C092022A73D0032A72D0052A71D0CA
:102F9000042A7FD1DFF89CC200220CF1480C8CF887
:102FA00005B00B800421FEF798FCB4F92200B4F9B7
:102FB0002610DFF87C82401AB4F92A10A8F13408F0
:102FC000484300EE100AB8EEC00A88ED010AB4F9D1
:102FD0002400B4F92820801A484300EE100AB8EE05
:102FE000C00A88ED020ABAF80C2012FB01F100EECB
:102FF000101A00E00BE0B8EEC00A08F11C0488EDDE
:10300000000A617A00297CD0A8F80C6078E240F2CE
:1030100016220A80B4F92810B4F92420891AB4F9C8
:103020002A20514300EE101A8149B8EEC00A343903
:1030300081ED010AB4F92230B4F926401B1B534339
:1030400000EE103AB8EEC00A81ED020ABAF80C3070
:1030500013FB02F200EE102A4A46B8EEC00A81EDD8
:10306000000ACD8299F8093033B18E8109E019E068
:103070005EE00BE19BE10DE0937A0BB18F8100E004
:103080008D81B8F1000F00D030B199F8072002B15E
:1030900020B14D82BDE8F09F6B4801E04FF47A709B
:1030A0004882F7E78CF805E00B80B4F92410B4F9F6
:1030B00028205F4E8A1AB4F92A10343E4A4300EEA3
:1030C000102AB8EEC00A86ED010AB4F92620B4F938
:1030D0002230D21A4A4300EE102AB8EEC00A86ED1A
:1030E000020ABAF90C2052424A4300EE102AB8EE06
:1030F000C00A86ED000AF58298F8091021B108216E
:1031000000E0F6E1FEF7E1FB98F8080010B198F84E
:10311000050038B198F8070010B198F8050018B10B
:103120007582B7E7484801E04FF47A707082B1E7E2
:103130008CF805B00B80B4F92210B4F92620DFF822
:10314000F0808A1AB4F92A10A8F134084A4300EE34
:10315000102AB8EEC00A88ED010AB4F92420B4F9A7
:103160002830D21A4A4300EE102AB8EEC00A88ED81
:10317000020ABAF80C2012FB01F100EE101A00222C
:103180000421B8EEC00A2E4888ED000AA8F816E01F
:10319000FEF7A3FB08F11C04607A10B1A8F80C60DC
:1031A00006E0A07A10B1A8F80C7001E0A8F80C5065
:1031B000207A10B1A8F80E6006E0E07910B1A8F806
:1031C0000E7001E0A8F80E50BAF8021040F6B832BE
:1031D00011FB02F24FF4257192FBF1F1A8F81010E7
:1031E000E17B09B1A57455E7A17C002999D09AF833
:1031F000120008B1257502E0207D002891D1A07D44
:1032000001282CD0022823D0032836D0042888D1C6
:103210006FF0C700A8F80E000C49D9F800008842EA
:1032200085DA002210210648FEF757FBEAE100008C
:103230004C4D0020B000002002000020D4FEFFFF13
:10324000001C02400001002018FCFFFF0000C842E3
:10325000C820A8F80E00ED49D9F8000020E1EC4D97
:10326000012210212846FEF738FB4FF4E16002F0FE
:1032700001F80122202128461BE1002220218DE1B6
:10328000A07D86E0A07584F814B003E7DFF884C35E
:10329000DFF884838CF805B00B80B4F92210B4F900
:1032A00026208A1AB4F92A104A4300EE102AB8EEF2
:1032B000C00A88ED010AB4F92420B4F92830D21AE2
:1032C0004A4300EE102AB8EEC00A88ED020ABAF8A6
:1032D0000C2012FB01F100EE101A00220421B8EEBE
:1032E000C00ACB4888ED000AA8F816E0FEF7F5FA08
:1032F00008F11C04607A10B1A8F80C6006E0A07A0E
:1033000010B1A8F80C7001E0A8F80C50207A10B1A8
:10331000A8F80E6006E0E07910B1A8F80E7001E0A0
:10332000A8F80E50BAF8021040F6B83211FB02F2BB
:103330004FF4257192FBF1F1A8F81010E17B002900
:103340007FF450AFA17C00299FD09AF8121009B1E8
:10335000257502E0207D002897D1A07D062894D213
:10336000DFE800F0050403060C1D71E777E791E63E
:10337000A84A1279012A0ED001290CD06FF0C7019A
:10338000A8F80E10A54AD9F800109142EFDAA8F873
:103390000E50401C76E7002220219D4821E10022AA
:1033A00010219B48FEF799FA40F214509EE08CF8E9
:1033B00005B00B80B4F92210B4F92620DFF858824A
:1033C0008A1AB4F92A104A4300EE102AB8EEC00A4D
:1033D00088ED010AB4F92420B4F92830D21A4A43FE
:1033E00000EE102AB8EEC00A88ED020ABAF80C20E6
:1033F00012FB01F100EE101A01220421B8EEC00AFE
:10340000834888ED000AA8F816E0FEF766FA08F18E
:103410001C04607A10B1A8F80C6006E0A07A10B124
:10342000A8F80C7001E0A8F80C50207A10B1A8F8A8
:103430000E6006E0E07910B1A8F80E7001E0A8F87F
:103440000E50BAF8021040F6B83211FB02F24FF4F7
:10345000257192FBF1F1A8F81010E17B00297FF4AF
:10346000C1AEA17C00293FF41CAE9AF8120008B14D
:10347000257503E0207D00287FF413AEA07D07288A
:10348000BFF40FAEDFE800F005040612271A2F0084
:10349000E5E6FFE5C820A8F80E006149D9F800006C
:1034A0008842F6DDA8F80E500320EBE6002220212A
:1034B0005748FEF712FA4FF4FA7017E06FF0C700A2
:1034C000A8F80E005549D9F800008842E1DAA8F8BA
:1034D0000E500620D6E6002204214D48FEF7FDF9E5
:1034E00040F2DC5002E0002210215FE001F0C2FE59
:1034F000C6E6A17A11B1A8F80C7001E0A8F80C504A
:10350000217A11B1A8F80E6006E0E17911B1A8F8AE
:103510000E7001E0A8F80E50BAF80200574640F6C7
:10352000B83110FB01F14FF4257091FBF0F0A8F8D1
:103530001000E07B28B1A574012220213448FEF759
:10354000CCF9A07C0028A4D0B87C08B1257502E095
:10355000207D00289DD1A07D07289AD2DFE800F0C9
:103560000405151C242B440094E500222021284842
:10357000FEF7B3F94FF4C870A8F80C00254880781E
:10358000022886D1A8F80C507AE6C820A8F80E00C8
:103590002449D9F8000083E7012210211C48FEF7D6
:1035A0009CF94FF44870A1E7012220211848FEF74A
:1035B00094F930469AE7164D002210212846FEF76E
:1035C0008CF94FF4E16001F055FE002220212846DD
:1035D000FEF783F94FF4487001F04CFE01221021F0
:1035E0002846FEF77AF94BE6002210210848FEF73C
:1035F00074F96FF0C700A8F80E000849D9F8000068
:103600008842B1DAA8F80E503AE6000000004843BC
:10361000001C0240F8000020184D00200000C842A5
:10362000000016430000F0420F4810B50D4901603C
:103630000321416000214FF400228160C0E90312A0
:103640004FF440124261017641768176C17601776E
:103650004177FDF768FB002803D0BDE81040FDF777
:10366000DCB810BD00640040200B00200F4810B5EE
:103670000D4901600321416000214FF40022816067
:10368000C0E903124FF4401242610176417681761F
:10369000C17601774177FDF746FB002803D0BDE8EE
:1036A0001040FDF7BAB810BD00680040480B00207C
:1036B0001D4808B5016841F480010160016801F40A
:1036C00080010091016841F400110160006800224E
:1036D00000F40010009005210C20FEF775F90C2075
:1036E000FEF764F9002205210F20FEF76DF90F2087
:1036F000FEF75CF9002205211120FEF765F9112083
:10370000FEF754F9002205213920FEF75DF9392032
:10371000FEF74CF9002205213A20FEF755F9BDE8E5
:1037200008403A20FEF742B93038024010B5AAB03E
:103730001C2221496846FCF7E5FE0021684601F09D
:10374000A5FD1E4C1C491C2260601C3107A8FCF71B
:10375000D9FE002107A801F099FD1749A0601C229D
:1037600038310EA8FCF7CEFE00210EA801F08EFD28
:103770001149E0601C22543115A8FCF7C3FE00215A
:1037800015A801F083FD0C4920611C2270311CA892
:10379000FCF7B8FE00211CA801F078FD0649606125
:1037A0001C228C3123A8FCF7ADFE002123A801F0D8
:1037B0006DFDA0612AB010BD6464000808000020FF
:1037C0002DE9F04F87B014216846FCF7CDFE644820
:1037D0000024016841F010010160016801F010014E
:1037E0000591016841F040010160016801F040016C
:1037F0000591016841F001010160016801F00101DA
:103800000591016841F002010160016801F00201C7
:103810000591016841F008010160016801F00801AB
:103820000591016841F080010160016801F08001AB
:103830000591016841F004010160016801F0040193
:103840000591016841F0200101600068DFF81491E2
:1038500000F02000059000223C214846FEF73DF88C
:10386000DFF804A14FF4FF76012231465046FEF7FF
:1038700034F80122DFF8F4B0D70239465846FEF793
:103880002CF84FF48048012241463948FEF725F8CC
:103890003C2000900125CDE9015469464846039437
:1038A000FDF7F6FE0096CDE90154694650460394B3
:1038B000FDF7EEFE2F4E6946CDE900562E480295E3
:1038C000FDF7E6FE0420CDE9000469462B4802948A
:1038D000FDF7DEFE4FF44050CDE900066946029543
:1038E0002748FDF7D5FE0E20CDE900066946029572
:1038F0002448FDF7CDFE0097CDE9015469465846AE
:103900000394FDF7C5FECDF80080CDE9015469466A
:1039100017480394FDF7BCFE062100220846FEF777
:1039200053F80620FEF742F8002206210820FEF791
:103930004BF80820FEF73AF8002206210920FEF78E
:1039400043F80920FEF732F8002206212820FEF76E
:103950003BF82820FEF72AF807B0BDE8F08F0000FA
:1039600030380240001C02400018024000100240A3
:103970000014024000003110000802400004024020
:10398000000C02400000024010B58EB000240794E5
:10399000089409940A940B941C2168460C94FCF733
:1039A000E3FD1F481D49016040F28F61C0E9011429
:1039B00040F2CF71C0E9031480218161FEF736FB2C
:1039C00008B1FCF72AFF4FF48050079007A914486C
:1039D000FEF7C4FB08B1FCF720FF1148FEF76CFDB1
:1039E00008B1FCF71AFF0B940BA90D480C94FEF7D5
:1039F000D5FA08B1FCF711FF6020CDE9000402946C
:103A00000822694606480494FEF7F3FC08B1FCF767
:103A100004FF0348FEF7C2FC0EB010BD00080040D2
:103A2000700B00201CB500240E4800940C49019432
:103A300001605321C0E9011440F2CF718461C1607B
:103A4000FEF7F4FA08B1FCF7E8FE00946946054871
:103A50000194FEF7A3FA002801D0FCF7DEFE1CBD9E
:103A600000140040B80B00200C4810B50A49016052
:103A70004FF4E1314160002181600C22C160C0E956
:103A800004128161C161FEF753FF002803D0BDE835
:103A90001040FCF7C2BE10BD00780040640C00204E
:103AA0000C4810B50A4901604FF4E1314160002132
:103AB00081600C22C160C0E904128161C161FEF71E
:103AC00037FF002803D0BDE81040FCF7A6BE10BDAC
:103AD000007C0040A80C00200D4810B50B49016087
:103AE0000C49416000214FF480628160C0E90312FB
:103AF0000C22C0E90521C161FEF71AFF002803D09E
:103B0000BDE81040FCF789BE10BD00000010014068
:103B1000EC0C0020A08601000C4810B50A49016099
:103B20004FF4E1314160002181600C22C160C0E9A5
:103B300004128161C161FEF7FBFE002803D0BDE8DD
:103B40001040FCF76ABE10BD00480040300D002058
:103B50000C4810B50A4901604FF4E1314160002181
:103B600081600C22C160C0E904128161C161FEF76D
:103B7000DFFE002803D0BDE81040FCF74EBE10BDAC
:103B800000140140740D0020FEE770471A4F1B4ED1
:103B90001B4C1C4D4FF004094FF0010A4FF0020B73
:103BA0004FF00008B87EC0F34001317000F0010012
:103BB0007070607A022802D0012806D00CE0207ACA
:103BC000022809D185F8009008E0207A012809D060
:103BD00003280AD002280BD085F80080012001F0CC
:103BE00049FBDFE785F800A0F8E785F800B0F5E7C6
:103BF00003202870F2E7000030520020F800002077
:103C00004C4D0020000000202DED048BDFF8808259
:103C1000DFF880B2DFF88092DFEDA08A9FEDA09AF6
:103C2000A04FDFF884A29FEDA18AA14E0025A14CF0
:103C3000FDF758FEC8F800003878042808D001289D
:103C400009D002284DD0032876D0002875D0F2E0A4
:103C5000FFF7CAF8EFE0B9F90410484600EE101A71
:103C6000F8EEC00A9FED940A60EE800A80EEA81A72
:103C700084ED011AB9F9061000EE901AF8EEE00A88
:103C800060EE800A80EEA81A84ED021AB9F90010DD
:103C900000EE901AF8EEE00A60EE800A80EEA80AC4
:103CA00084ED000AB0F90A1000EE101AB8EEC00A4E
:103CB00020EE090ADFED810A4FF6184080EE201A47
:103CC000BDEEC10A10EE101AA181B9F8021011FB65
:103CD00000F04FF4257190FBF1F0608240F2162065
:103CE00098E084ED018A84ED028A84ED008AA58142
:103CF000E581B9F90000B0F5967F01DD012202E00F
:103D0000584504DA002204216D48FDF7E6FDB9F9B3
:103D10000200B0F5967F01DD012202E0584504DA89
:103D2000002208216648FDF7D8FDB9F90400B0F576
:103D3000967F03DD012204E01AE06EE0584504DAC4
:103D4000002210215E48FDF7C8FDB9F90600B0F564
:103D5000967F01DD012202E0584504DA002220218D
:103D60005748FDF7BAFD40F2DD11AAF8001062E0F5
:103D700084ED018A84ED028A84ED008AB9F902009B
:103D80004FF496734946984201DD02200CE05845F5
:103D900001DA012008E0B1F900209A4201DD042097
:103DA00002E05A4502DA0320E08202E00AB900B9D3
:103DB000E582B1F9060000EE100AB8EEC00A20EE66
:103DC000090AC0EE280ABDEEE00A10EE100AA08132
:103DD000B1F9040000EE100AB8EEC00A20EE090A9C
:103DE000C0EE280ABDEEE00ADFED360A10EE100A3A
:103DF000E081B9F90A0000EE100AB8EEC00A20EE20
:103E0000200AC0EE280ABDEEE00A10EE100A208259
:103E100040F2DD10AAF800000DE084ED018A84ED87
:103E2000028A84ED008AA581E581258240F216216F
:103E3000AAF800106582B07810B1022806D009E017
:103E4000B4F90C00002805DAA58103E0B4F90C00F0
:103E50000028F9DCF078022802D088B105D00BE008
:103E6000B4F91200002800DA658240F6B8306082AA
:103E7000322001F0FFF96582012001F0FBF9D7E65D
:103E8000B4F91200002800DD65824FF24840EEE7E9
:103E9000EC000020D4FEFFFF4C4D00200000254424
:103EA0000000164400000020020000200000000076
:103EB000F8000020184D002000401C45000025C4DB
:103EC000001C024000803B45914F924E924C2DEDDC
:103ED000028B9FED928ADFED928A924DDFF8489235
:103EE000DFF848A2DFF848824FF6FF7B96ED011A13
:103EF000D6ED020A96ED000A71EE601A70EEC12A44
:103F000031EE802AF1EE601A70EE810A71EEC11A6C
:103F100072EE802A84ED002A71EE801A30EE800A5B
:103F2000C4ED011AC4ED022A84ED030A386800EEDC
:103F3000900AF8EEE00AB4EEE02AF1EE10FA05DDA0
:103F400000EE900AF8EEE00AC4ED000A414200EEED
:103F5000901A94ED001AF8EEE00AB4EEE01AF1EED1
:103F600010FA05D200EE901AF8EEE00AC4ED000A4D
:103F700000EE900AF8EEE00AF4EEE01AF1EE10FA24
:103F800005DD00EE900AF8EEE00AC4ED010A00EE4D
:103F9000901A94ED011AF8EEE00AB4EEE01AF1EE90
:103FA00010FA05D200EE901AF8EEE00AC4ED010A0C
:103FB00000EE900AF8EEE00AF4EEE02AF1EE10FAD4
:103FC00005DD00EE900AF8EEE00AC4ED020A00EE0C
:103FD000901A94ED021AF8EEE00AB4EEE01AF1EE4F
:103FE00010FA05D200EE901AF8EEE00AC4ED020ACB
:103FF00000EE900AF8EEE00AB4EEE00AF1EE10FAF4
:1040000005DD00EE100AB8EEC00A84ED030AF0EEFA
:10401000400A00EE101AB8EEC00AF4EEC00AF1EE43
:1040200010FA05D200EE101AB8EEC00A84ED030AA9
:10403000B6F90C00414200EE101AB8EEC00A84ED49
:10404000040A00EE100AB8EEC00A84ED050AB6F9BB
:10405000120000EE100AB8EEC00A85ED000AB6F9AB
:10406000100000EE100AB8EEC00A85ED010AB6F99C
:104070000E0000EE100A4042B8EEC00A85ED020ABA
:1040800000EE100AB8EEC00A85ED030AB6F9160074
:1040900005281AD2DFE800F01306030E090085EDAB
:1040A000048A09E0C5ED048A01E085ED048A85ED06
:1040B000058A0AE0C5ED048AC5ED058A05E09FED95
:1040C0001D0A85ED040A85ED050ADAF80010B9F835
:1040D0000000C86398F8051098F80620914212D0A5
:1040E000012902D0022904D009E05B46012212A175
:1040F00002E05B46012211A11148FEF7D7FD98F8B6
:10410000051088F80610012001F0B4F8EEE6000072
:10411000E0000020184D00203801002000803B45C1
:1041200000803BC55401002002000020700B0020DD
:10413000F800002000000000310000003200000004
:10414000640C0020DFF8C8A000240226314D8CB09A
:104150004FF4707B012740F201184FF4077900BF3C
:104160009AF80000022802D0662804D008E02E80C9
:104170004FF4817003E0662028804FF4B3706880AC
:10418000CDE908B4CDF81CB000970494CDE90546FC
:10419000CDE901468C214FF42072CDE90A21039428
:1041A00001232A886988404601F0FAFCCDE90949D3
:1041B000CDF82C9000970494CDE90546CDE9014651
:1041C00040F2ED3140F289300394CDE9070102233A
:1041D0002A886988404601F0E3FC4FF4FA70CDE983
:1041E00009400B9000970494CDE90546CDE90146BE
:1041F000410040F28E300394CDE9070103232A8861
:104200006988404601F0CCFC0A2001F033F8A7E7AA
:1042100030520020080000204FF48062084909480D
:1042200000F09AFE08494FF40072A1F5007001F009
:104230003BFD00BF01F09AFB0A2001F01BF8F9E7F3
:104240008952002064510020624F00204FF48062A8
:104250000849094800F080FE08494FF40072A1F5B2
:10426000007001F021FD00BF01F080FB0A2001F089
:1042700001F8F9E78952002064510020624F0020C4
:1042800010B5FDF735FB02F011F8012803D0BDE8A9
:10429000104001F09DBF10BD30B593B0302168468D
:1042A000FCF762F914210CA8FCF75EF91948002507
:1042B000016841F080510160006800F08050119069
:1042C0001548016841F4404101600068022400F48F
:1042D0004040119001200090000401908001CDE940
:1042E000064006200890A820CDE9090404200B9080
:1042F0006846FDF787FC0CA90F2081E831004FF4D8
:10430000A0500F90E002109005210CA8FDF78EFB45
:1043100013B030BD403802400070004005480168CD
:1043200041F47001016003494FF00060803908607A
:104330007047000088ED00E02DE9F84FDFF894B1F8
:10434000654DDFF898819BF80000DFF89491654E89
:104350004FF0000A00287CD05FF0000404EB44001A
:1043600005EB8007C4EB0411B7F9060000EE100A54
:1043700008EB8400F8EEC00A90ED000A09EB81001A
:1043800000F0AEFFBDEEC00A641CE4B210EE100AED
:10439000042C7880E2D3B6F9060000EE100A5248E9
:1043A000F8EEC00A90ED000A504800F099FFBDEE0B
:1043B000C00A10EE100A7080B5F926000090B5F919
:1043C0001A30B5F90E20B5F90210002001F050FBAB
:1043D0000023CDF800A0B6F902101A46184601F0E5
:1043E00075FB002202214248FDF777FA9BF8010095
:1043F00000286DD05FF0040404EB440005EB800757
:10440000C4EB0411B7F9060000EE100A08EB8400B3
:10441000F8EEC00A90ED000A09EB810000F060FFA1
:10442000BDEEC00A641CE4B210EE100A062C7880BF
:10443000E2D3DFF8B480DFF8B490012404EB440049
:1044400006EB8007B7F9060000EE100AF8EEC00A86
:1044500000E03BE008EB8400C4EB041190ED000A9F
:1044600009EB810000F03CFFBDEEC00A641CE4B221
:1044700010EE100A062C7880E0D3CDF800A0544648
:10448000B5F93E20B5F932100023012001F0F0FA11
:10449000B6F9260000900021B6F91A30B6F90E20C0
:1044A000084601F013FB0094B6F93E20B6F932102D
:1044B0000023012001F00AFB002204210C48FDF733
:1044C0000CFABDE8F84F0B48FDF7B4BE012289E7AE
:1044D0000122F2E7F8000020884C0020380100207B
:1044E00070010020D04C0020540100201403002053
:1044F00000180240B80B0020F0B50268254C264D8C
:10450000264E274F274B4FF0804CA04209D06045E4
:1045100007D0A84205D0B04203D0B84201D098429B
:1045200004D122F0700E4A6842EA0E02A0421BD06B
:10453000604519D0A84217D0B04215D0B84213D068
:10454000984211D0184DA8420ED0184DA8420BD059
:10455000174DA84208D0174DA84205D0164DA842C5
:1045600002D0164DA84203D122F44075CA682A43EE
:104570004D6922F080022A4302608A68C2620A689A
:104580008262A04201D0984201D1096901630121F0
:104590004161F0BD000001400004004000080040FF
:1045A000000C004000040140004001400044014074
:1045B0000048014000180040001C0040002000405E
:1045C00010B501F01F030121046A99408C43046275
:1045D000016A9A401143016210BD10B5846842EA35
:1045E000032224F47F440A432243826010BD826880
:1045F00022F070020A4342F0070181607047000018
:10460000F0B5026A22F001020262036A426884691C
:10461000124E24F073050C682C4323F002058B68BE
:104620002B430D4DA84201D0B04205D123F008071D
:10463000CB683B4323F00403A84201D0B04205D12C
:104640004D6922F4407215438A692A4342608461AD
:10465000496841630362F0BD00000140000401406D
:10466000F0B5026A22F010020262026A43688469AD
:104670000D6824F4E64444EA05248D6822F0200203
:1046800042EA05120F4D104EA84201D0B04206D1A9
:10469000CF6822F0800242EA071222F04002A842CC
:1046A00001D0B04207D14D6923F4406343EA85034A
:1046B0008D6943EA850343608461496881630262CE
:1046C000F0BD00000000014000040140F0B5026AA6
:1046D00022F480720262026A4368C46922F40072A2
:1046E00024F073050C68124E2C438D6842EA0522B3
:1046F0000E4DA84201D0B04206D1CF6822F400622C
:1047000042EA072222F48062A84201D0B04207D1D7
:104710004D6923F4405343EA05138D6943EA0513B9
:104720004360C4614968C1630262F0BD000001409A
:104730000004014030B5026A22F480520262046A29
:104740004268C3690D6823F4E64343EA05238D6894
:1047500024F4005444EA0534084DA84202D0084D20
:10476000A84204D14D6922F4804242EA8512426097
:10477000C36149680164046230BD0000000001406B
:104780000004014010B5036A046A24F001040462C5
:10479000846924F0F00444EA021423F00A020A4374
:1047A0008461026210BD10B5036A23F01003036236
:1047B0008369046A23F4704343EA023224F0A003BD
:1047C00043EA01118261016210BD0000204808B572
:1047D00000680168C943C9062FD401684068009089
:1047E0001B48FDF700FF1B48006840681A49C0F1EC
:1047F000090082B21648FEF7B3FA07211648FCF703
:104800000DF81549B1F8072052BA824215D1D1F8F6
:104810000300897900BA20F0FF00084300EE100A77
:10482000DFED0F0A0D48B8EEC00A20EE200ADFEDDA
:104830000D0A20EE200A80ED000A092206490448EC
:10484000FEF714FABDE808400148FDF769BF000013
:10485000A80C0020B80D0020C20400200001002098
:10486000000080360000B44310B5806B0021C18584
:10487000C184FDF7E4FE10BD70B5846B206840690B
:1048800094F83D10C0F3C0100025212904D118B1BF
:10489000E584204600F083F82068406994F83E10D3
:1048A000C0F38010222904D118B1E585204600F01C
:1048B0005EF8206C40F0100020642046FDF7BFFE3B
:1048C00070BD10B50146806B09680968C9051BD425
:1048D0000021C1850168CA6822F48072CA6001683B
:1048E0004A6922F001024A6101684A6922F04002E5
:1048F0004A61202180F83E10016B012904D1016832
:10490000CA6822F01002CA60016B012902D0FEF7CA
:10491000CBF910BD818DFDF765FE10BD10B5806B24
:10492000016B012902D0FEF7C0F910BD818D490845
:10493000FDF758FE10BD10B50146806B0968096887
:10494000C9050CD40021C18401684A6922F08002A3
:104950004A610068C16841F04001C16010BDFEF7C6
:104960003FFA10BD10B5806BFEF73BFA10BD016831
:10497000CA6822F49072CA6001684A6922F0010292
:104980004A61016B012904D10168CA6822F0100252
:10499000CA60202180F83E10002101637047016841
:1049A000CA6822F0C002CA60202180F83D1070471A
:1049B000F8B5044690F83E00202833D179B372B39D
:1049C00094F83C0001282DD0012084F83C00A1621D
:1049D000A28500252564222084F83E00A06B1346A2
:1049E00005650846A66B216802463046091DFCF79E
:1049F00001FD206801684168009184F83C50C1685D
:104A000041F48071C1602068416941F00101416158
:104A10002068416941F0400141610020F8BDFFE795
:104A20000120FBE70220F9E710B5044690F83E00AC
:104A3000222801D0022010BDA1684FF4805291427B
:104A400001D1206920B1A06A91421BD049B10AE08E
:104A50002168A06A4968C1F308010180A06A801C2E
:104A600008E0216971B12168496801F07F01017096
:104A7000A06A401CA062E08D401E0004000CE0858E
:104A800003D01CE021684968F1E72068C16821F083
:104A90002001C1602068C16821F48071C160206874
:104AA000416921F001014161202084F83E00206B22
:104AB000012806D02046FEF7F7F8002020630020EA
:104AC00010BD2068C16821F01001C160A18D204691
:104AD000FDF788FDF1E7000070B504460068016944
:104AE000E26821F44051114301612169A068E26943
:104AF00008436169114308432168CA6849F20C639D
:104B00009A430243CA6020684169A26921F4407156
:104B10001143416131492068884202D030498842BE
:104B200002D1FDF72DF801E0FDF71AF8E269002344
:104B3000192164253226B2F5004F626828D0A0FB07
:104B40000101930F9200FBF721FC0146B0FBF5F049
:104B50006FF01802504301EB800006EB0010B0FB31
:104B6000F5F000F0F002B1FBF5F002EB0012B1FB42
:104B7000F5F06FF01803584301EB800006EB0010CE
:104B8000B0FBF5F000F00F0021681044886070BDA4
:104B9000A0FB010192185B41FBF7F8FB0146B0FB5B
:104BA000F5F00201B1FBF5F06FF01803584301EB8B
:104BB000800006EBC000B0FBF5F000F0F80002EB5F
:104BC0004002B1FBF5F0584301EB800006EBC0005A
:104BD000B0FBF5F000F00700D6E700000010014040
:104BE0000014014038B581628285002513460446D1
:104BF0000564222084F83E00A26B1348D063A26BA8
:104C000012481064A26B1248D064A06B0A46056576
:104C10002168A06B091DFCF710FC20680168416841
:104C2000009184F83C50C16841F48071C1602068F3
:104C3000416941F0010141612068416941F0400151
:104C40004161002038BD0000C34800081D4900082C
:104C5000794800082DE9F041984617460E4604466B
:104C6000069D1DE0681C1BD02DB1FCF73BFEA0EBA0
:104C70000800A84214D92068C16821F4D071C1602D
:104C80002068416921F001014161202084F83D0044
:104C900084F83E00002084F83C000320BDE8F08149
:104CA0002068006836EA000004D00020B842D9D05D
:104CB0000020F3E70120F9E70148FDF7C1BC00003F
:104CC000EC0C002038B51F480068C00634D51E48DB
:104CD00001680A6849680091816B09680A681B4B82
:104CE00012030A684FF4007422F001020A60816B1B
:104CF00009684A68C2F5007292B21A804C60816BF2
:104D000009680B680BD443F400230B60806B0068C8
:104D1000016841F0010101600D490E480AE023F4E9
:104D200000230B60806B0068016841F001010160A5
:104D30000949084800F01BF9BDE838400248FDF772
:104D4000EFBC000000480040300D0020280000208B
:104D5000624D002064510020624F0020204808B5B9
:104D600000680168C943C9062FD4016840680090F3
:104D70001B48FDF738FC1B48006840681A49C0F121
:104D8000090082B21648FDF7EBFF07211648FBF732
:104D900045FD1549B1F8072052BA824215D1D1F824
:104DA0000300897900BA20F0FF00084300EE100AE2
:104DB000DFED0F0A0D48B8EEC00A20EE200ADFED45
:104DC0000D0A20EE200A80ED000A09220649044857
:104DD000FDF74CFFBDE808400148FDF7A1BC00000D
:104DE000740D0020380F0020B804002004010020BA
:104DF000000080360000B443FEE70907090E0028D2
:104E000004DB00F1E02080F80014704700F00F0090
:104E100000F1E02080F8141D7047000030B50C460A
:104E200005000CD0022C0AD90548A11E028828468C
:104E300000F0DEF8291901F8020D000A487030BDB3
:104E40000801002030B50C46050008D0022C06D918
:104E5000FF22611E00F0E2F8291901F8010C30BDB3
:104E600000B58BB000200121CDE90601089100902A
:104E70000190029003900590049069460C48FBF75E
:104E800059FD0B48FCF7F0F802210948FBF7DCFC60
:104E90000E200990059069460648FBF74BFD054832
:104EA000FCF7E2F802210348FBF7CEFC0BB000BD93
:104EB000200B0020480B002070B51B484FF000026B
:104EC0004FF001014379057B2B4204D08274817538
:104ED0000175012070BD84792C4204D082748175E3
:104EE0000175002070BD457B2B4204D08174817513
:104EF0000275022070BD2C4204D081748175027548
:104F0000032070BD857B2B4204D0817481750275AE
:104F1000052070BD2C4204D0817481750275042077
:104F200070BD007870BD0000344D0020EFF310819B
:104F300072B6436802699A4201D90268026112F8A6
:104F4000013B02618268521C8260C268521E81F37A
:104F50001088C260184670478B185B1E0160C0E95C
:104F600001320022C0E903214161104670472DE95A
:104F7000F0475FEA01080546EFF3108672B62FD0BE
:104F8000AC686CB369686869884201D9286868614F
:104F9000944200DD14460F1A7F1CA74206DB22460E
:104FA0004146FBF76AFA686920440DE0A4EB070963
:104FB0003A464146FBF761FA08EB07014A46286882
:104FC000FBF75BFA286848446861A868001BA86082
:104FD000E8682044E860204686F31088BDE8F08742
:104FE00086F310884FF0FF30F8E7C0687047000084
:104FF00010B558B1084C491E0BD310F8013B534073
:10500000DBB234F8133083EA1222F4E74FF6FF7074
:1050100010BD104610BD00002C68000810B5054CEE
:1050200004E000BF10F8013B5340E25C491EF9D296
:10503000104610BD2C6700082DED068BFCF760FCB8
:10504000FFF72AF9FEF7BCFBFEF732FBFEF7ECFA9E
:10505000FEF742FDFEF77CFDFEF7E4FCFEF706FBE3
:10506000FEF75AFDFEF71CFDFEF78EFCFEF7FCFC7A
:105070006B4C01220C212046FCF72FFC0022302132
:105080002046FCF72AFCFFF7EBFE642265496648E0
:10509000FDF701FE65480068C16841F01001C1607C
:1050A000092263496148FDF7E1FD62480068C16873
:1050B00041F01001C1605E4909220A395D48FDF7DF
:1050C000D5FD5B4910220A315B48FDF7CFFD5A48F8
:1050D0000068C16841F01001C160584D00249FED87
:1050E00058AA9FED589A9FED588ADFED588A00BF65
:1050F000C4EB0410B0EE481A05EB8001F0EE412A33
:10510000B0EE682AF0EE4A1AF0EE490AB2EE040A4E
:10511000012000F063F9641CE4B2042CE8D30424F9
:10512000DFED4B9AC4EB041005EB8001F0EE482A4A
:10513000B0EE682AF0EE691AB2EE041AF0EE490AEF
:10514000B1EE080A012000F049F9641CE4B2062C13
:10515000E8D3404C002500BFC5EB051004EB8001EF
:10516000F0EE482AB0EE682AF0EE4A1AB2EE0E1AB5
:10517000F0EE490AB1EE000A012000F02FF96D1C93
:10518000EDB2022DE8D30225C5EB051004EB80013A
:10519000F0EE482AB0EE682AF0EE4A1AB1EE041A90
:1051A000F0EE490AB2EE040A012000F017F96D1C76
:1051B000EDB2042DE8D304259FED279AC5EB051029
:1051C00004EB8001F0EE482AB0EE682AF0EE691A8E
:1051D000B2EE041AF0EE490AB1EE080A012000F01E
:1051E000FDF86D1CEDB2062DE8D300F09DFC082102
:1051F0001A48FDF791F900224FF480411848FCF756
:105200006CFB4FF4FA70FCF74FF91648FCF766FF99
:10521000FEF78CFA00F035F80120FCF745F9FBE7C2
:10522000001C0240000C0020EC0C0020A80C002008
:10523000C2040020740D0020300D002070010020F9
:1052400000606A46CDCCCC3D0000000000008046E6
:105250000000FA45140300206F12833A700B0020FF
:1052600000140240B80B002001460020842900D021
:10527000C81C704710B500B9012000F06BFE00207B
:1052800010BD10B500F08CFE002010BD7FB50D469E
:1052900004464169B0F9080081B1A16971B1FFF715
:1052A000E3FFD4E905128DE80700D4E900102B468E
:1052B000226900F0D0FF039004B070BDFFF7D4FF67
:1052C00003A9CDE90001208A2B4682B2D4E900105F
:1052D00000F094FF012801D00020EDE70398EBE7F0
:1052E00080ED070AC0ED080A90ED091A30EE600A59
:1052F00080ED0A1A80ED090AD0ED061AF0EEC00A18
:10530000F4EEE10AF1EE10FA04DCF5EEC01AF1EE6B
:1053100010FA5BD1017891B910EE901AB1F18B4F70
:105320000DDDB5EEC00ADFED2B0AF1EE10FA02DD5D
:1053300030EE600A01E030EE200A80ED090A90EDBF
:10534000010AD0ED091A60EE210AC0ED0B0A90EDBA
:105350000C0A90ED022A02EE210A80ED0C0A90ED73
:10536000032A12EE211A80ED0D1AD0ED041AB1EEC7
:10537000612AB4EEC20AF1EE10FA02D8B0EE420A87
:1053800006E0B4EEE10AF1EE10FA01DBB0EE610ADC
:1053900080ED0C0A30EE800A30EE010A80ED0E0A34
:1053A000D0ED050AB1EE601AB4EEC10AF1EE10FAC2
:1053B00002D8B0EE410A06E0B4EEE00AF1EE10FACF
:1053C00001DBB0EE600A80ED0E0A70479FED020A25
:1053D000F9E7000000F8FF45000000000A1D82EC1C
:1053E000060A0870704700002DE9F041184C0F467E
:1053F0000546E6682068001D00F0E4FC38B9206826
:1054000090F82C1001208840216981432161681C9B
:1054100007D137B12168BDE8F0410E48091D00F001
:1054200015BD20683544B5424560216805D2A06BA2
:10543000BDE8F041091D00F0F1BC606B091D00F0F2
:10544000EDFCA06A854200D2A562BDE8F0810000B3
:105450003C000020741000202DE9F041054600F0CA
:1054600001FD2E4CA068401CA06020682C4F10B19C
:10547000606940B32DE02560A068012829D100268D
:1054800006EB860007EB800000F0BAFC761C072EC6
:10549000F6D323488C3000F0B3FC2148A03000F054
:1054A000AFFC1F48B43000F0ABFC1D48C83000F022
:1054B000A7FC1B48DC3000F0A3FC19488C3060636B
:1054C0001430A06305E02068E96AC06A884200D809
:1054D0002560606A401C6062E96A01202269884098
:1054E0001043206101EB810007EB8000291D00F0D3
:1054F000ADFC00F0D7FC606900280CD02068E96A98
:10550000C06A884207D207494FF080500860BFF355
:105510004F8FBFF36F8FBDE8F08100003C0000208B
:10552000980F002004ED00E010B5044690F85100FB
:1055300058B101280CD002280FD0502080F31188D8
:10554000BFF34F8FBFF36F8FFEE7206B00F0BEFC01
:105550002046BDE8104000F0B9BC10BD10484FF423
:105560007051420706D0C01D0D4920F00700411AB6
:10557000C1F570510B4A00230144C2E90003083908
:10558000183A21F0070111604B600B600B1AC0E95B
:10559000001393604FF0004053605061704700006B
:1055A0008810002090000020144E154CA6F1C8076A
:1055B0004FF08058DFF84C9012E000BF00F052FC32
:1055C000F068C568281D00F0FDFBA068401EA060C3
:1055D0006068401E606000F065FC2846FFF7A4FF8D
:1055E00060680028EAD138680128F9D9C9F8008034
:1055F000BFF34F8FBFF36F8FF2E700006010002002
:105600003C00002004ED00E02DE9F0479A46DDE97A
:10561000098481466FF00303206B03EB8202104480
:10562000089E20F00707780707D0502080F31188E4
:10563000BFF34F8FBFF36F8FFEE7002561B10020EE
:1056400023180A5C83F834200A5C12B1401C10282D
:10565000F6D384F8435001E084F83450072E00D389
:105660000626E662C4E91165201D00F0D4FB04F1B2
:10567000180000F0D0FB2461C6F107006462A0614D
:10568000E56484F8505052464946384600F0C0F868
:105690002060B8F1000F01D0C8F80040BDE8F087E5
:1056A00030B5114900E011460A688242FBD34B68CD
:1056B0005C18844203D14068184448600846436837
:1056C0001C18944209D1084C183C2468A24209D005
:1056D00052681A4442600A6812680260814200D02F
:1056E000086030BD0460F9E7900000200648416B77
:1056F000096829B1416BC968C96849688162704706
:105700004FF0FF31FAE700003C00002008484068F5
:10571000401C4FF0500080F3118804D0BFF34F8F2E
:10572000BFF36F8FFEE7BFF34F8FBFF36F8FFEE7BF
:10573000980000202DE9F0410546002700F066FCA6
:10574000324E306808B9FFF709FF706905424ED143
:10575000C5B3083568070ED005F00700C0F1080092
:105760000544680707D0502080F31188BFF34F8F9E
:10577000BFF36F8FFEE72DB37068854237D823489B
:10578000183001460C6801E020460C466168A942C9
:1057900002D221680029F7D131688C4227D00768EE
:1057A0002168016060680837411B10290FD9601912
:1057B000420708D0502080F31188BFF34F8FBFF30A
:1057C0006F8FFEE713E041606560FFF769FF616876
:1057D0007068401A7060B268904200D2B060706920
:1057E00001430020C4E90001F068401CF06000F0B3
:1057F000D1FD780707D0502080F31188BFF34F8F79
:10580000BFF36F8FFEE73846BDE8F08178000020D7
:1058100010B5031F4FF080741C601B1F21F00101A5
:105820001960191F044B0B6014390A60091F6FF0CF
:10583000020244380A6010BD0D57000818B4002158
:10584000ADF800104749026840F202244A6102792B
:105850000A76B0F80520ADF8002092B2A2F2022339
:10586000A2425FD01EDCB2F5817F4BD00EDC012A54
:1058700033D0022A3ED0032A3FD0A2F58072013AEB
:1058800002D1D0F80700C86018BC7047A2F580723A
:10589000033A3BD0012A40D0FE2AF5D1C11D1B227C
:1058A000314848E0042B4CD00ADC012B3FD0022BBE
:1058B00044D0032BE8D1B0F80700A1F80700E3E7D4
:1058C000052B41D0062B48D0FF2BDDD150F8072FF8
:1058D00041F81F2F80888880D6E7234950F8072F8A
:1058E0004C3941F8212F42684A6002890A81807A46
:1058F0008872C9E7C0798870C6E7C11D1A4820229E
:10590000203818E0D0F807000861BDE7B0F807209C
:10591000A1F80920407AC872B6E7B0F80700A1F8EC
:105920000500B1E7C11D104810221B3003E0C11D66
:105930000D4810222B3018BCFAF79FBDC079C870F3
:10594000A2E7C07908719FE750F8072F41F8252F8B
:1059500082888A808079887196E750F8072F41F80D
:10596000192FB7E70A0100203052002070B5A52694
:105970003E4C002572E03D481838FFF7D7FA94F8FE
:10598000861006294BD2DFE801F003131D2D384D98
:10599000B0420AD1012184F88610B4F88710A31D03
:1059A0004A1CA4F88720C85458E0A4F8875055E052
:1059B000A080B4F88710A31D4A1CA4F88720C854FF
:1059C000022017E0A188A31D41EA0021A180B4F8BC
:1059D00087104A1CA4F88720C854A08877281ED2B4
:1059E000032007E0B4F88710A31D4A1CA4F8872001
:1059F000C854042084F8860030E0B4F88710A31D52
:105A00004A1CA4F88720C854B4F88700052825D17B
:105A10000521A01D00F04EFB08B10520EAE784F83F
:105A20008650C2E7A288B4F887100932914204D2A6
:105A3000A31D4A1CA4F88720C854A188B4F8870085
:105A4000093188420AD384F88650A4F88750A01DF3
:105A500000F012FB10B1A01DFFF7F0FE034818384C
:105A6000FFF7C3FA002886D170BD00007C510020EA
:105A700010B588B00A9C18B340F2FF1002900020C5
:105A80000490059008200690080A8DF800008DF813
:105A90000110100A8DF80200180A8DF804008DF824
:105AA00005308DF80740200A8DF803208DF8060098
:105AB00001236A4602A90448FAF7D8FE08B010BDCF
:105AC0004FF40070DAE70000200B002010B588B01A
:105AD0000A9C18B340F2FF10029000200490059039
:105AE00008200690080A8DF800008DF80110100AB1
:105AF0008DF80200180A8DF804008DF805308DF835
:105B00000740200A8DF803208DF8060001236A461D
:105B100002A90448FAF7AAFE08B010BD4FF40070BD
:105B2000DAE70000480B00202DE9F041194C08216C
:105B30002046FBF7C5FE064604212046FBF7C0FEC3
:105B4000154F0546A1143846FBF7BAFE04464FF43C
:105B500000513846FBF7B4FE022200230F4901270B
:105B600016B1012E04D004E0012D02D1CA7001E06B
:105B700025B1CF7024B1012C07D007E08B70F9E775
:105B8000012803D18A70BDE8F08108B18F70FAE76F
:105B90008B70F8E700000240000C0240F800002083
:105BA0002DE9F04FA1B02AAC349D94E8C05F3B4C86
:105BB000A4F80700A4F80B10A4F809206373207C54
:105BC00066F3020067F3C5002074218A68F3891127
:105BD0002182617C69F385016174B4F811006AF374
:105BE0008E10A4F81100608A6BF3CF106082A08A37
:105BF0006CF30900A082B4F815006EF38C00A4F8D1
:105C00001500B4F81910329860F38C01A4F819103B
:105C1000218B339860F309012183E08A65F34F10EB
:105C2000E082618B359860F34F116183A52020706D
:105C30001520A4F801001A484178E170491CC9B246
:105C40004170FF2901D1002141701448C01FD0F8D4
:105C500007100091C07A8DF8040005216846FFF70F
:105C6000F1F89DF80400207140F20130A4F805001D
:105C70001E220A496846FAF700FC1E216846FFF713
:105C8000CDF81E21684600F06BF8FF231E226946FE
:105C90000448FDF70BF821B0BDE8F08F6B520020EF
:105CA0000A010020300D0020F0B5274B1C68656903
:105CB00045F0400565611C68656945F080056561D2
:105CC0001B68DC6844F01004DC60204B1C6825680D
:105CD00025F0010525601C682568ED07F7D11C4FEC
:105CE000FD14BC4202D91A4E4C3E04E0194EB44297
:105CF00003D9174E503E356008E0164F154E603FF1
:105D0000B83EBC4201D9F56000E0B560124DA56017
:105D10001C68E060186801611868426018680168D2
:105D200041F4802101601868016841F001010160BF
:105D30000A4801680A6822F001020A6001680A68DC
:105D4000D207F7D18D60F0BD300D0020780E002015
:105D500058640240B860024004480040D80E002059
:105D600070B5154A13681C6824F001041C601368A0
:105D70001C68E407F7D1114E4FF40014B34202D966
:105D80000E4D4C3D04E00E4DAB4203D90B4D503D42
:105D90002C6008E00A4E0A4D603EB83DB34201D97E
:105DA000EC6000E0AC60D860106841601068016889
:105DB00041F00101016070BDD80E0020586402401E
:105DC000B8600240D0E9013201699A60D0E901234C
:105DD0005A604A68824201D182684A6000220261A8
:105DE0000868401E0860086870470000034B0360A5
:105DF00003F154000860802010607047CC08002038
:105E000000F108014FF0FF32C0E90112C1600161E9
:105E100000210160704700210161704730B50B68B7
:105E20005A1C02D000F1080202E0026904E0224696
:105E3000546825689D42FAD953684B6099608A601E
:105E4000516008610168491C016030BD42684A60C8
:105E500093688B6093685960916008610168491C80
:105E600001607047502080F31188BFF34F8FBFF35C
:105E70006F8F0A494868401C486001280CD10848C7
:105E8000006810F0FF0F07D0502080F31188BFF397
:105E90004F8FBFF36F8FFEE7704700009800002020
:105EA00004ED00E00849486828B1401E486001D16F
:105EB00080F311887047502080F31188BFF34F8F13
:105EC000BFF36F8FFEE700009800002070B5002838
:105ED0002AD0164DA0F1080460686969084207D10C
:105EE000502080F31188BFF34F8FBFF36F8FFEE711
:105EF00022683AB1502080F31188BFF34F8FBFF36F
:105F00006F8FFEE78843606000F080F86068696822
:105F1000084468602046FFF7C3FB2869401C2861DD
:105F2000BDE8704000F036BA70BD00007800002077
:105F30004FF0E02000210161816105494FF47A7240
:105F40000968B1FBF2F1491E416107210161704707
:105F50003800002010B5020014D00F48006B38B193
:105F6000502080F31188BFF34F8FBFF36F8FFEE790
:105F700000F04CF800211046FFF736FA00F00AFA5C
:105F8000002807D105494FF080500860BFF34F8FBC
:105F9000BFF36F8F10BD00003C00002004ED00E057
:105FA00010B586B00024039405AA04A903A804949C
:105FB000FFF71CFFDDE903010094CDE90110002388
:105FC0000EA11048059A00F046F90F490028C86252
:105FD00011D0502080F31188BFF34F8FBFF36F8F24
:105FE0004FF0FF30886201204861CC6006B0BDE808
:105FF000104000F073B806B010BD000049444C4595
:1060000000000000A95500083C0000200248016B78
:10601000491C0163704700003C0000201448016BDC
:1060200011B10121C16170470021C1610169B1FA5B
:1060300081F1C1F11F0101EB81020E4951F82230BB
:106040006BB101EB820101F108034A6852684A60B2
:106050009A4201D152684A60D1680160704750206D
:1060600080F31188BFF34F8FBFF36F8FFEE70000FF
:106070003C000020980F002030B50C46050014D0DD
:10608000022C12D90A48A11E02882846FEF7B0FF4A
:106090002919C2B211F8023C9A4206D111F8011C2A
:1060A000B1EB102F01D1012030BD002030BD000028
:1060B0000801002030B50C4605000CD0022C0AD98E
:1060C000FF22611EFEF7AAFF291911F8011C814267
:1060D00001D1012030BD002030BD00001CB5374883
:1060E0000168374A914207D1502080F31188BFF3ED
:1060F0004F8FBFF36F8FFEE700683149491E88421A
:1061000007D1502080F31188BFF34F8FBFF36F8FFB
:10611000FEE72C4908780190FF20087008788DF878
:1061200000009DF800009DF8002000F0F000904273
:1061300007D0502080F31188BFF34F8FBFF36F8FCC
:10614000FEE79DF80000204C00F050002070072072
:10615000A06005E09DF8002052008DF80020401E50
:106160009DF800201206F5D4A060032807D0502027
:1061700080F31188BFF34F8FBFF36F8FFEE74FF4AB
:106180004070A060019808700C482030016841F40C
:1061900070010160016841F070410160FFF7C8FEC5
:1061A00000206060FAF796F80848016841F0404125
:1061B0000160FAF77BF800201CBD000000ED00E054
:1061C00071C20F4100E400E09800002034EF00E0CD
:1061D00010B5502080F31188BFF34F8FBFF36F8F3E
:1061E00000F072F818B104494FF0805008600020A8
:1061F00080F3118810BD000004ED00E02DE9FF5F81
:106200008346DDE90E87994616468A469000FFF7D9
:1062100091FA05001CD05420FFF78CFA040014D02A
:106220000020256384F85100CDE90240CDE90087C4
:106230004B46324651465846FFF7E6F92046FFF7EF
:106240000BF9012004B0BDE8F09F2846FFF73EFEA1
:106250004FF0FF30F6E7F0B585B0DDE90B640A9D3D
:10626000A6B1DCB1542700972663022684F851605A
:10627000002604AFCDE90246CDE90057FFF7C4F987
:106280002046FFF7E9F8049805B0F0BD502080F3F0
:106290001188BFF34F8FBFF36F8FFEE7502080F35D
:1062A0001188BFF34F8FBFF36F8FFEE70548416939
:1062B00019B1006B18B1002070470120704702200F
:1062C000704700003C0000202DE9F0412F4C0026D3
:1062D000206B28B1A069401CA0613046BDE8F08168
:1062E000E5686D1CE56013D1606B006838B1502023
:1062F00080F31188BFF34F8FBFF36F8FFEE7606BA2
:10630000A16B6163A063206A401C2062FFF7EEF975
:10631000A06ADFF87C80854209D3606B0068A0B179
:10632000606BC068C7687868854211D2A062206837
:10633000C06A00EB800158F82100012800D901262D
:10634000E0690028C9D00126C7E74FF0FF30EDE72C
:10635000381DFFF737FDB86A18B107F11800FFF7CD
:1063600031FDF96A0120226988401043206101EB68
:10637000810108EB8100391DFFF768FDF86A21688B
:10638000C96A8842C9D30126C7E700003C00002043
:10639000980F00202DE9F0472C4D00242746286B4C
:1063A00038B1FFF75FFD286B401E2863286B40B1B2
:1063B00046E0502080F31188BFF34F8FBFF36F8FFB
:1063C000FEE7A968224E0120D1B3A6F1B4098046A8
:1063D0003068E8B1F068C46804F11800FFF7F2FC17
:1063E000201DFFF7EFFCE06A2A6908FA00F111436B
:1063F000296100EB800109EB8100211DFFF726FDDB
:10640000E06A2968C96A8842E2D3C5F81C80DFE7E0
:106410000CB1FFF76BF9AC6944B14646FFF754FF86
:1064200000B1EE61641EF9D10020A861E86938B1BD
:106430000849012738070860BFF34F8FBFF36F8FFC
:10644000FFF730FD3846BDE8F08700003C00002033
:106450004C10002004ED00E04FF04070E1EE100A17
:1064600070470000686A00088D3B000800000000CB
:10647000000000008000000000000000000000009C
:106480002C6A0008093C0008FDFF00000000000025
:10649000800000000000000000000000386A0008D2
:1064A000C93E0008FDFF0000000000008000000061
:1064B0000000000000000000446A00084541000898
:1064C000FDFF000000000000800000000000000050
:1064D00000000000506A000819420008FDFF00009B
:1064E000000000008000000000000000000000002C
:1064F0005C6A00084D420008FDFF0000000000003B
:1065000080000000000000000000000000061016DF
:106510000006101600000000000000000102030445
:1065200006070809000000000102030400C18140C1
:1065300001C0804101C0804100C1814001C0804153
:1065400000C1814000C1814001C0804101C0804143
:1065500000C1814000C1814001C0804100C1814033
:1065600001C0804101C0804100C1814001C0804123
:1065700000C1814000C1814001C0804100C1814013
:1065800001C0804101C0804100C1814000C1814003
:1065900001C0804101C0804100C1814001C08041F3
:1065A00000C1814000C1814001C0804101C08041E3
:1065B00000C1814000C1814001C0804100C18140D3
:1065C00001C0804101C0804100C1814000C18140C3
:1065D00001C0804101C0804100C1814001C08041B3
:1065E00000C1814000C1814001C0804100C18140A3
:1065F00001C0804101C0804100C1814001C0804193
:1066000000C1814000C1814001C0804101C0804182
:1066100000C1814000C1814001C0804100C1814072
:1066200001C0804101C0804100C1814000C0C10162
:10663000C30302C2C60607C705C5C404CC0C0DCDF2
:106640000FCFCE0E0ACACB0BC90908C8D81819D962
:106650001BDBDA1A1EDEDF1FDD1D1CDC14D4D51592
:10666000D71716D6D21213D311D1D010F03031F182
:1066700033F3F23236F6F737F53534F43CFCFD3DB2
:10668000FF3F3EFEFA3A3BFB39F9F83828E8E929A2
:10669000EB2B2AEAEE2E2FEF2DEDEC2CE42425E552
:1066A00027E7E62622E2E323E12120E0A06061A1C2
:1066B00063A3A26266A6A767A56564A46CACAD6D72
:1066C000AF6F6EAEAA6A6BAB69A9A86878B8B979E2
:1066D000BB7B7ABABE7E7FBF7DBDBC7CB47475B512
:1066E00077B7B67672B2B373B17170B05090915102
:1066F0009353529296565797559594549C5C5D9D32
:106700005F9F9E5E5A9A9B5B995958988848498921
:106710004B8B8A4A4E8E8F4F8D4D4C8C44848545D1
:10672000874746868242438341818040005EBCE2C7
:10673000613FDD83C29C7E20A3FD1F419DC3217F5D
:10674000FCA2401E5F01E3BD3E6082DC237D9FC151
:10675000421CFEA0E1BF5D0380DE3C62BEE0025C45
:10676000DF81633D7C22C09E1D43A1FF4618FAA431
:1067700027799BC584DA3866E5BB5907DB8567391D
:10678000BAE406581947A5FB7826C49A653BD98711
:10679000045AB8E6A7F91B45C6987A24F8A6441A05
:1067A00099C7257B3A6486D85B05E7B98CD2306EF1
:1067B000EDB3510F4E10F2AC2F7193CD114FADF3DD
:1067C000702ECC92D38D6F31B2EC0E50AFF1134DD1
:1067D000CE90722C6D33D18F0C52B0EE326C8ED0C5
:1067E000530DEFB1F0AE4C1291CF2D73CA947628B1
:1067F000ABF517490856B4EA6937D58B5709EBB59D
:1068000036688AD495CB2977F4AA4816E9B7550B90
:1068100088D6346A2B7597C94A14F6A8742AC89684
:10682000154BA9F7B6E80A54D7896B3500008911D2
:1068300012239B322446AD573665BF74488CC19DE8
:106840005AAFD3BE6CCAE5DB7EE9F7F881100801C8
:1068500093331A22A5562C47B7753E64C99C408DC8
:10686000DBBF52AEEDDA64CBFFF976E802218B3064
:10687000100299132667AF763444BD554AADC3BCA8
:10688000588ED19F6EEBE7FA7CC8F5D983310A2088
:1068900091121803A7772E66B5543C45CBBD42AC88
:1068A000D99E508FEFFB66EAFDD874C904428D5320
:1068B00016619F702004A9153227BB364CCEC5DF68
:1068C0005EEDD7FC6888E1997AABF3BA85520C4348
:1068D00097711E60A1142805B3373A26CDDE44CF48
:1068E000DFFD56ECE9986089FBBB72AA06638F72E4
:1068F00014409D512225AB343006B9174EEFC7FE28
:106900005CCCD5DD6AA9E3B8788AF19B87730E6207
:1069100095501C41A3352A24B1163807CFFF46EE07
:10692000DDDC54CDEBB962A8F99A708B08848195AF
:106930001AA793B62CC2A5D33EE1B7F04008C919F7
:10694000522BDB3A644EED5F766DFF7C89940085B7
:106950009BB712A6ADD224C3BFF136E0C1184809D7
:10696000D33B5A2AE55E6C4FF77D7E6C0AA583B453
:10697000188691972EE3A7F23CC0B5D14229CB38B7
:10698000500AD91B666FEF7E744CFD5D8BB502A477
:1069900099961087AFF326E2BDD034C1C3394A2897
:1069A000D11A580BE77F6E6EF55C7C4D0CC685D70F
:1069B0001EE597F42880A1913AA3B3B2444ACD5B77
:1069C0005669DF78600CE91D722FFB3E8DD604C737
:1069D0009FF516E4A9902081BBB332A2C55A4C4B57
:1069E000D7795E68E11C680DF33F7A2E0EE787F6D3
:1069F0001CC495D52AA1A3B03882B193466BCF7A37
:106A00005448DD59622DEB3C700EF91F8FF706E6F6
:106A10009DD414C5ABB122A0B9923083C77B4E6A16
:106A2000D5585C49E33D6A2CF11E780F6D795461AD
:106A3000736B3032000000006D795461736B30333A
:106A4000000000006D795461736B30340000000069
:106A50006D795461736B3035000000006D795461BD
:106A6000736B30360000000064656661756C7454A9
:106A700061736B00946A0008000000203801000078
:106A8000E8010008BC6A000838010020B85B00007B
:106A900044020008012C32018210036124F41AAA76
:106AA000010911861901490701103AB402A9AE2162
:0C6AB0000B1A401FD18943032EFFFF008A
:04000005080001AD41
:00000001FF
