Component: ARM Compiler 5.06 update 6 (build 750) Tool: armlink [4d35ed]

==============================================================================

Section Cross References

    startup_stm32f427xx.o(STACK) refers (Special) to heapauxi.o(.text) for __use_two_region_memory
    startup_stm32f427xx.o(HEAP) refers (Special) to heapauxi.o(.text) for __use_two_region_memory
    startup_stm32f427xx.o(RESET) refers (Special) to heapauxi.o(.text) for __use_two_region_memory
    startup_stm32f427xx.o(RESET) refers to startup_stm32f427xx.o(STACK) for __initial_sp
    startup_stm32f427xx.o(RESET) refers to startup_stm32f427xx.o(.text) for Reset_Handler
    startup_stm32f427xx.o(RESET) refers to stm32f4xx_it.o(i.NMI_Handler) for NMI_Handler
    startup_stm32f427xx.o(RESET) refers to stm32f4xx_it.o(i.HardFault_Handler) for HardFault_Handler
    startup_stm32f427xx.o(RESET) refers to stm32f4xx_it.o(i.MemManage_Handler) for MemManage_Handler
    startup_stm32f427xx.o(RESET) refers to stm32f4xx_it.o(i.BusFault_Handler) for BusFault_Handler
    startup_stm32f427xx.o(RESET) refers to stm32f4xx_it.o(i.UsageFault_Handler) for UsageFault_Handler
    startup_stm32f427xx.o(RESET) refers to port.o(.emb_text) for SVC_Handler
    startup_stm32f427xx.o(RESET) refers to stm32f4xx_it.o(i.DebugMon_Handler) for DebugMon_Handler
    startup_stm32f427xx.o(RESET) refers to stm32f4xx_it.o(i.SysTick_Handler) for SysTick_Handler
    startup_stm32f427xx.o(RESET) refers to stm32f4xx_it.o(i.EXTI0_IRQHandler) for EXTI0_IRQHandler
    startup_stm32f427xx.o(RESET) refers to stm32f4xx_it.o(i.EXTI2_IRQHandler) for EXTI2_IRQHandler
    startup_stm32f427xx.o(RESET) refers to stm32f4xx_it.o(i.EXTI3_IRQHandler) for EXTI3_IRQHandler
    startup_stm32f427xx.o(RESET) refers to stm32f4xx_it.o(i.DMA1_Stream1_IRQHandler) for DMA1_Stream1_IRQHandler
    startup_stm32f427xx.o(RESET) refers to stm32f4xx_it.o(i.DMA1_Stream4_IRQHandler) for DMA1_Stream4_IRQHandler
==============================================================================

Removing Unused input sections from the image.

    Removing main.o(.rev16_text), (4 bytes).
    Removing main.o(.revsh_text), (4 bytes).
    Removing main.o(.rrx_text), (6 bytes).
    Removing gpio.o(.rev16_text), (4 bytes).
    Removing gpio.o(.revsh_text), (4 bytes).
    Removing gpio.o(.rrx_text), (6 bytes).
    Removing freertos.o(.rev16_text), (4 bytes).
    Removing freertos.o(.revsh_text), (4 bytes).
    Removing freertos.o(.rrx_text), (6 bytes).
    Removing can.o(.rev16_text), (4 bytes).
    Removing can.o(.revsh_text), (4 bytes).
    Removing can.o(.rrx_text), (6 bytes).
    Removing can.o(i.HAL_CAN_MspDeInit), (128 bytes).
    Removing dma.o(.rev16_text), (4 bytes).
    Removing dma.o(.revsh_text), (4 bytes).
    Removing dma.o(.rrx_text), (6 bytes).
    Removing tim.o(.rev16_text), (4 bytes).
    Removing tim.o(.revsh_text), (4 bytes).
==============================================================================

Image Symbol Table

    Local Symbols

    Symbol Name                              Value     Ov Type        Size  Object(Section)

    ../Drivers/STM32F4xx_HAL_Driver/Src/stm32f4xx_hal.c 0x00000000   Number         0  stm32f4xx_hal.o ABSOLUTE
    ../Drivers/STM32F4xx_HAL_Driver/Src/stm32f4xx_hal_can.c 0x00000000   Number         0  stm32f4xx_hal_can.o ABSOLUTE
    ../Drivers/STM32F4xx_HAL_Driver/Src/stm32f4xx_hal_cortex.c 0x00000000   Number         0  stm32f4xx_hal_cortex.o ABSOLUTE
    ../Drivers/STM32F4xx_HAL_Driver/Src/stm32f4xx_hal_dma.c 0x00000000   Number         0  stm32f4xx_hal_dma.o ABSOLUTE
    ../Drivers/STM32F4xx_HAL_Driver/Src/stm32f4xx_hal_dma_ex.c 0x00000000   Number         0  stm32f4xx_hal_dma_ex.o ABSOLUTE
    ../Drivers/STM32F4xx_HAL_Driver/Src/stm32f4xx_hal_exti.c 0x00000000   Number         0  stm32f4xx_hal_exti.o ABSOLUTE
    ../Drivers/STM32F4xx_HAL_Driver/Src/stm32f4xx_hal_flash.c 0x00000000   Number         0  stm32f4xx_hal_flash.o ABSOLUTE
    ../Drivers/STM32F4xx_HAL_Driver/Src/stm32f4xx_hal_flash_ex.c 0x00000000   Number         0  stm32f4xx_hal_flash_ex.o ABSOLUTE
    ../Drivers/STM32F4xx_HAL_Driver/Src/stm32f4xx_hal_flash_ramfunc.c 0x00000000   Number         0  stm32f4xx_hal_flash_ramfunc.o ABSOLUTE
    ../Drivers/STM32F4xx_HAL_Driver/Src/stm32f4xx_hal_gpio.c 0x00000000   Number         0  stm32f4xx_hal_gpio.o ABSOLUTE
    ../Drivers/STM32F4xx_HAL_Driver/Src/stm32f4xx_hal_pwr.c 0x00000000   Number         0  stm32f4xx_hal_pwr.o ABSOLUTE
    ../Drivers/STM32F4xx_HAL_Driver/Src/stm32f4xx_hal_pwr_ex.c 0x00000000   Number         0  stm32f4xx_hal_pwr_ex.o ABSOLUTE
    ../Drivers/STM32F4xx_HAL_Driver/Src/stm32f4xx_hal_rcc.c 0x00000000   Number         0  stm32f4xx_hal_rcc.o ABSOLUTE
    ../Drivers/STM32F4xx_HAL_Driver/Src/stm32f4xx_hal_rcc_ex.c 0x00000000   Number         0  stm32f4xx_hal_rcc_ex.o ABSOLUTE
    ../Drivers/STM32F4xx_HAL_Driver/Src/stm32f4xx_hal_tim.c 0x00000000   Number         0  stm32f4xx_hal_tim.o ABSOLUTE
    ../Drivers/STM32F4xx_HAL_Driver/Src/stm32f4xx_hal_tim_ex.c 0x00000000   Number         0  stm32f4xx_hal_tim_ex.o ABSOLUTE
    ../Drivers/STM32F4xx_HAL_Driver/Src/stm32f4xx_hal_uart.c 0x00000000   Number         0  stm32f4xx_hal_uart.o ABSOLUTE
    ../Middlewares/Third_Party/FreeRTOS/Source/CMSIS_RTOS/cmsis_os.c 0x00000000   Number         0  cmsis_os.o ABSOLUTE
    ../Middlewares/Third_Party/FreeRTOS/Source/croutine.c 0x00000000   Number         0  croutine.o ABSOLUTE
    ../Middlewares/Third_Party/FreeRTOS/Source/event_groups.c 0x00000000   Number         0  event_groups.o ABSOLUTE
    ../Middlewares/Third_Party/FreeRTOS/Source/list.c 0x00000000   Number         0  list.o ABSOLUTE
    ../Middlewares/Third_Party/FreeRTOS/Source/portable/MemMang/heap_4.c 0x00000000   Number         0  heap_4.o ABSOLUTE
    ../Middlewares/Third_Party/FreeRTOS/Source/portable/RVDS/ARM_CM4F/port.c 0x00000000   Number         0  port.o ABSOLUTE
    ../Middlewares/Third_Party/FreeRTOS/Source/queue.c 0x00000000   Number         0  queue.o ABSOLUTE
    ../Middlewares/Third_Party/FreeRTOS/Source/stream_buffer.c 0x00000000   Number         0  stream_buffer.o ABSOLUTE
    ../Middlewares/Third_Party/FreeRTOS/Source/tasks.c 0x00000000   Number         0  tasks.o ABSOLUTE
    ../Middlewares/Third_Party/FreeRTOS/Source/timers.c 0x00000000   Number         0  timers.o ABSOLUTE
    ../Src/can.c                             0x00000000   Number         0  can.o ABSOLUTE
    ../Src/dma.c                             0x00000000   Number         0  dma.o ABSOLUTE
    ../Src/freertos.c                        0x00000000   Number         0  freertos.o ABSOLUTE
    ../Src/gpio.c                            0x00000000   Number         0  gpio.o ABSOLUTE
    ../Src/main.c                            0x00000000   Number         0  main.o ABSOLUTE
    ../Src/stm32f4xx_hal_msp.c               0x00000000   Number         0  stm32f4xx_hal_msp.o ABSOLUTE
    ../Src/stm32f4xx_it.c                    0x00000000   Number         0  stm32f4xx_it.o ABSOLUTE
    ../Src/system_stm32f4xx.c                0x00000000   Number         0  system_stm32f4xx.o ABSOLUTE
    ../Src/tim.c                             0x00000000   Number         0  tim.o ABSOLUTE
    ../Src/usart.c                           0x00000000   Number         0  usart.o ABSOLUTE
    ../clib/angel/boardlib.s                 0x00000000   Number         0  boardinit2.o ABSOLUTE
    ../clib/angel/boardlib.s                 0x00000000   Number         0  boardshut.o ABSOLUTE
    ../clib/angel/boardlib.s                 0x00000000   Number         0  boardinit1.o ABSOLUTE
    ../clib/angel/boardlib.s                 0x00000000   Number         0  boardinit3.o ABSOLUTE
    ../clib/angel/dczerorl2.s                0x00000000   Number         0  __dczerorl2.o ABSOLUTE
    ../clib/angel/handlers.s                 0x00000000   Number         0  __scatter_zi.o ABSOLUTE
    ../clib/angel/kernel.s                   0x00000000   Number         0  __rtentry.o ABSOLUTE
    ../clib/angel/kernel.s                   0x00000000   Number         0  rtexit2.o ABSOLUTE
    ../clib/angel/kernel.s                   0x00000000   Number         0  __rtentry2.o ABSOLUTE
    ../clib/angel/kernel.s                   0x00000000   Number         0  __rtentry4.o ABSOLUTE
    ../clib/angel/kernel.s                   0x00000000   Number         0  rtexit.o ABSOLUTE
    ../clib/angel/rt.s                       0x00000000   Number         0  rt_raise.o ABSOLUTE
    ../clib/angel/rt.s                       0x00000000   Number         0  rt_heap_descriptor_intlibspace.o ABSOLUTE
    ../clib/angel/rt.s                       0x00000000   Number         0  rt_div0.o ABSOLUTE
    ../clib/angel/rt.s                       0x00000000   Number         0  rt_heap_descriptor.o ABSOLUTE
    ../clib/angel/rt.s                       0x00000000   Number         0  aeabi_ldiv0_sigfpe.o ABSOLUTE
    ../clib/angel/rt.s                       0x00000000   Number         0  aeabi_ldiv0.o ABSOLUTE
    ../clib/angel/scatter.s                  0x00000000   Number         0  __scatter.o ABSOLUTE
    ../clib/angel/startup.s                  0x00000000   Number         0  __main.o ABSOLUTE
    ../clib/angel/sys.s                      0x00000000   Number         0  libspace.o ABSOLUTE
    ../clib/angel/sys.s                      0x00000000   Number         0  use_no_semi.o ABSOLUTE
    ../clib/angel/sys.s                      0x00000000   Number         0  sys_stackheap_outer.o ABSOLUTE
    ../clib/angel/sys.s                      0x00000000   Number         0  indicate_semi.o ABSOLUTE
    ../clib/angel/sys.s                      0x00000000   Number         0  mutex_dummy.o ABSOLUTE
    ../clib/angel/sysapp.c                   0x00000000   Number         0  sys_command.o ABSOLUTE
    ../clib/angel/sysapp.c                   0x00000000   Number         0  sys_wrch.o ABSOLUTE
    ../clib/angel/sysapp.c                   0x00000000   Number         0  sys_exit.o ABSOLUTE
    ../clib/armsys.c                         0x00000000   Number         0  argv_veneer.o ABSOLUTE
    ../clib/armsys.c                         0x00000000   Number         0  _get_argv.o ABSOLUTE
    ../clib/armsys.c                         0x00000000   Number         0  argv_veneer.o ABSOLUTE
    ../clib/armsys.c                         0x00000000   Number         0  _get_argv_nomalloc.o ABSOLUTE
    ../clib/armsys.c                         0x00000000   Number         0  no_argv.o ABSOLUTE
    ../clib/heap1.c                          0x00000000   Number         0  h1_extend.o ABSOLUTE
    ../clib/heap1.c                          0x00000000   Number         0  h1_init.o ABSOLUTE
    ../clib/heap1.c                          0x00000000   Number         0  h1_free.o ABSOLUTE
    ../clib/heap1.c                          0x00000000   Number         0  h1_alloc.o ABSOLUTE
    ../clib/heap1.c                          0x00000000   Number         0  h1_init_mt.o ABSOLUTE
    ../clib/heap1.c                          0x00000000   Number         0  h1_alloc_mt.o ABSOLUTE
    ../clib/heap1.c                          0x00000000   Number         0  h1_free_mt.o ABSOLUTE
    ../clib/heap1.c                          0x00000000   Number         0  h1_extend_mt.o ABSOLUTE
    ../clib/heap1.c                          0x00000000   Number         0  h1_final.o ABSOLUTE
    ../clib/heap1.c                          0x00000000   Number         0  h1_final_mt.o ABSOLUTE
    ../clib/heap2.c                          0x00000000   Number         0  fdtree.o ABSOLUTE
    ../clib/heap2.c                          0x00000000   Number         0  heap2.o ABSOLUTE
    ../clib/heap2.c                          0x00000000   Number         0  heap2mt.o ABSOLUTE
    ../clib/heapalloc.c                      0x00000000   Number         0  maybetermalloc2.o ABSOLUTE
    ../clib/heapalloc.c                      0x00000000   Number         0  init_alloc.o ABSOLUTE
    ../clib/heapalloc.c                      0x00000000   Number         0  term_alloc.o ABSOLUTE
    ../clib/heapalloc.c                      0x00000000   Number         0  hguard.o ABSOLUTE
    ../clib/heapalloc.c                      0x00000000   Number         0  maybetermalloc1.o ABSOLUTE
    ../clib/heapalloc.c                      0x00000000   Number         0  maybetermalloc1.o ABSOLUTE
    ../clib/heapalloc.c                      0x00000000   Number         0  maybetermalloc2.o ABSOLUTE
    ../clib/heapalloc.c                      0x00000000   Number         0  malloc.o ABSOLUTE
    ../clib/heapalloc.c                      0x00000000   Number         0  hrguard.o ABSOLUTE
    ../clib/heapalloc.c                      0x00000000   Number         0  free.o ABSOLUTE
    ../clib/heapalloc.c                      0x00000000   Number         0  heapstubs.o ABSOLUTE
    ../clib/heapaux.c                        0x00000000   Number         0  heapauxa.o ABSOLUTE
    ../clib/heapaux.c                        0x00000000   Number         0  heapauxi.o ABSOLUTE
    ../clib/libinit.s                        0x00000000   Number         0  libinit.o ABSOLUTE
    ../clib/libinit.s                        0x00000000   Number         0  libinit2.o ABSOLUTE
    ../clib/libinit.s                        0x00000000   Number         0  libshutdown.o ABSOLUTE
    ../clib/libinit.s                        0x00000000   Number         0  libshutdown2.o ABSOLUTE
    ../clib/longlong.s                       0x00000000   Number         0  lludivv7m.o ABSOLUTE
    ../clib/memcpset.s                       0x00000000   Number         0  rt_memclr.o ABSOLUTE
    ../clib/memcpset.s                       0x00000000   Number         0  rt_memclr_w.o ABSOLUTE
    ../clib/memcpset.s                       0x00000000   Number         0  rt_memcpy_w.o ABSOLUTE
    ../clib/memcpset.s                       0x00000000   Number         0  rt_memcpy_v6.o ABSOLUTE
    ../clib/memcpset.s                       0x00000000   Number         0  memset.o ABSOLUTE
    ../clib/signal.c                         0x00000000   Number         0  defsig_general.o ABSOLUTE
    ../clib/signal.c                         0x00000000   Number         0  defsig_stak_inner.o ABSOLUTE
    ../clib/signal.c                         0x00000000   Number         0  defsig_rtred_inner.o ABSOLUTE
    ../clib/signal.c                         0x00000000   Number         0  defsig_abrt_inner.o ABSOLUTE
    ../clib/signal.c                         0x00000000   Number         0  defsig_rtmem_inner.o ABSOLUTE
    ../clib/signal.c                         0x00000000   Number         0  defsig_exit.o ABSOLUTE
    ../clib/signal.c                         0x00000000   Number         0  defsig_fpe_inner.o ABSOLUTE
    ../clib/signal.c                         0x00000000   Number         0  defsig_fpe_formal.o ABSOLUTE
    ../clib/signal.c                         0x00000000   Number         0  defsig_other.o ABSOLUTE
    ../clib/signal.c                         0x00000000   Number         0  defsig_rtmem_outer.o ABSOLUTE
    ../clib/signal.c                         0x00000000   Number         0  defsig_rtmem_formal.o ABSOLUTE
    ../clib/signal.c                         0x00000000   Number         0  defsig_segv_inner.o ABSOLUTE
    ../clib/signal.c                         0x00000000   Number         0  defsig_cppl_inner.o ABSOLUTE
    ../clib/signal.c                         0x00000000   Number         0  __raise.o ABSOLUTE
    ../clib/signal.c                         0x00000000   Number         0  defsig_fpe_outer.o ABSOLUTE
    ../clib/signal.c                         0x00000000   Number         0  defsig_pvfn_inner.o ABSOLUTE
    ../clib/signal.s                         0x00000000   Number         0  defsig.o ABSOLUTE
    ../clib/stdlib.c                         0x00000000   Number         0  exit.o ABSOLUTE
    ../fplib/fpinit.s                        0x00000000   Number         0  fpinit.o ABSOLUTE
    ..\Bsp\CRC8_CRC16.c                      0x00000000   Number         0  crc8_crc16.o ABSOLUTE
    ..\Bsp\bsp_can.c                         0x00000000   Number         0  bsp_can.o ABSOLUTE
    ..\Bsp\bsp_key.c                         0x00000000   Number         0  bsp_key.o ABSOLUTE
    ..\Bsp\bsp_sensor.c                      0x00000000   Number         0  bsp_sensor.o ABSOLUTE
    ..\Bsp\bsp_usart.c                       0x00000000   Number         0  bsp_usart.o ABSOLUTE
    ..\Bsp\fifo.c                            0x00000000   Number         0  fifo.o ABSOLUTE
    ..\Bsp\pid.c                             0x00000000   Number         0  pid.o ABSOLUTE
    ..\Bsp\rc.c                              0x00000000   Number         0  rc.o ABSOLUTE
    ..\Bsp\remote.c                          0x00000000   Number         0  remote.o ABSOLUTE
    ..\Drivers\STM32F4xx_HAL_Driver\Src\stm32f4xx_hal.c 0x00000000   Number         0  stm32f4xx_hal.o ABSOLUTE
    ..\Drivers\STM32F4xx_HAL_Driver\Src\stm32f4xx_hal_can.c 0x00000000   Number         0  stm32f4xx_hal_can.o ABSOLUTE
    ..\Drivers\STM32F4xx_HAL_Driver\Src\stm32f4xx_hal_cortex.c 0x00000000   Number         0  stm32f4xx_hal_cortex.o ABSOLUTE
    ..\Drivers\STM32F4xx_HAL_Driver\Src\stm32f4xx_hal_dma.c 0x00000000   Number         0  stm32f4xx_hal_dma.o ABSOLUTE
    ..\Drivers\STM32F4xx_HAL_Driver\Src\stm32f4xx_hal_dma_ex.c 0x00000000   Number         0  stm32f4xx_hal_dma_ex.o ABSOLUTE
    ..\Drivers\STM32F4xx_HAL_Driver\Src\stm32f4xx_hal_exti.c 0x00000000   Number         0  stm32f4xx_hal_exti.o ABSOLUTE
    ..\Drivers\STM32F4xx_HAL_Driver\Src\stm32f4xx_hal_flash.c 0x00000000   Number         0  stm32f4xx_hal_flash.o ABSOLUTE
    ..\Drivers\STM32F4xx_HAL_Driver\Src\stm32f4xx_hal_flash_ex.c 0x00000000   Number         0  stm32f4xx_hal_flash_ex.o ABSOLUTE
    ..\Drivers\STM32F4xx_HAL_Driver\Src\stm32f4xx_hal_flash_ramfunc.c 0x00000000   Number         0  stm32f4xx_hal_flash_ramfunc.o ABSOLUTE
    ..\Drivers\STM32F4xx_HAL_Driver\Src\stm32f4xx_hal_gpio.c 0x00000000   Number         0  stm32f4xx_hal_gpio.o ABSOLUTE
    ..\Drivers\STM32F4xx_HAL_Driver\Src\stm32f4xx_hal_pwr.c 0x00000000   Number         0  stm32f4xx_hal_pwr.o ABSOLUTE
    ..\Drivers\STM32F4xx_HAL_Driver\Src\stm32f4xx_hal_pwr_ex.c 0x00000000   Number         0  stm32f4xx_hal_pwr_ex.o ABSOLUTE
    ..\Drivers\STM32F4xx_HAL_Driver\Src\stm32f4xx_hal_rcc.c 0x00000000   Number         0  stm32f4xx_hal_rcc.o ABSOLUTE
    ..\Drivers\STM32F4xx_HAL_Driver\Src\stm32f4xx_hal_rcc_ex.c 0x00000000   Number         0  stm32f4xx_hal_rcc_ex.o ABSOLUTE
    ..\Drivers\STM32F4xx_HAL_Driver\Src\stm32f4xx_hal_tim.c 0x00000000   Number         0  stm32f4xx_hal_tim.o ABSOLUTE
    ..\Drivers\STM32F4xx_HAL_Driver\Src\stm32f4xx_hal_tim_ex.c 0x00000000   Number         0  stm32f4xx_hal_tim_ex.o ABSOLUTE
    ..\Drivers\STM32F4xx_HAL_Driver\Src\stm32f4xx_hal_uart.c 0x00000000   Number         0  stm32f4xx_hal_uart.o ABSOLUTE
    ..\Middlewares\Third_Party\FreeRTOS\Source\CMSIS_RTOS\cmsis_os.c 0x00000000   Number         0  cmsis_os.o ABSOLUTE
    ..\Middlewares\Third_Party\FreeRTOS\Source\portable\RVDS\ARM_CM4F\port.c 0x00000000   Number         0  port.o ABSOLUTE
    ..\Src\can.c                             0x00000000   Number         0  can.o ABSOLUTE
    ..\Src\dma.c                             0x00000000   Number         0  dma.o ABSOLUTE
    ..\Src\freertos.c                        0x00000000   Number         0  freertos.o ABSOLUTE
    ..\Src\gpio.c                            0x00000000   Number         0  gpio.o ABSOLUTE
    ..\Src\main.c                            0x00000000   Number         0  main.o ABSOLUTE
    ..\Src\stm32f4xx_hal_msp.c               0x00000000   Number         0  stm32f4xx_hal_msp.o ABSOLUTE
    ..\Src\stm32f4xx_it.c                    0x00000000   Number         0  stm32f4xx_it.o ABSOLUTE
    ..\Src\system_stm32f4xx.c                0x00000000   Number         0  system_stm32f4xx.o ABSOLUTE
    ..\Src\tim.c                             0x00000000   Number         0  tim.o ABSOLUTE
    ..\Src\usart.c                           0x00000000   Number         0  usart.o ABSOLUTE
    ..\\Bsp\\CRC8_CRC16.c                    0x00000000   Number         0  crc8_crc16.o ABSOLUTE
    ..\\Bsp\\bsp_can.c                       0x00000000   Number         0  bsp_can.o ABSOLUTE
    ..\\Bsp\\bsp_key.c                       0x00000000   Number         0  bsp_key.o ABSOLUTE
    ..\\Bsp\\bsp_sensor.c                    0x00000000   Number         0  bsp_sensor.o ABSOLUTE
    ..\\Bsp\\bsp_usart.c                     0x00000000   Number         0  bsp_usart.o ABSOLUTE
    ..\\Bsp\\fifo.c                          0x00000000   Number         0  fifo.o ABSOLUTE
    ..\\Bsp\\pid.c                           0x00000000   Number         0  pid.o ABSOLUTE
    ..\\Bsp\\rc.c                            0x00000000   Number         0  rc.o ABSOLUTE
    ..\\Bsp\\remote.c                        0x00000000   Number         0  remote.o ABSOLUTE
    dc.s                                     0x00000000   Number         0  dc.o ABSOLUTE
    startup_stm32f427xx.s                    0x00000000   Number         0  startup_stm32f427xx.o ABSOLUTE
    RESET                                    0x08000000   Section      428  startup_stm32f427xx.o(RESET)
    !!!main                                  0x080001ac   Section        8  __main.o(!!!main)
    !!!scatter                               0x080001b4   Section       52  __scatter.o(!!!scatter)
    !!dczerorl2                              0x080001e8   Section       90  __dczerorl2.o(!!dczerorl2)
    !!handler_zi                             0x08000244   Section       28  __scatter_zi.o(!!handler_zi)
    .ARM.Collect$$libinit$$00000000          0x08000260   Section        2  libinit.o(.ARM.Collect$$libinit$$00000000)
    .ARM.Collect$$libinit$$00000001          0x08000262   Section        4  libinit2.o(.ARM.Collect$$libinit$$00000001)
    .ARM.Collect$$libinit$$00000004          0x08000266   Section        0  libinit2.o(.ARM.Collect$$libinit$$00000004)
    .ARM.Collect$$libinit$$0000000A          0x08000266   Section        0  libinit2.o(.ARM.Collect$$libinit$$0000000A)
    .ARM.Collect$$libinit$$0000000C          0x08000266   Section        0  libinit2.o(.ARM.Collect$$libinit$$0000000C)
    .ARM.Collect$$libinit$$0000000E          0x08000266   Section        0  libinit2.o(.ARM.Collect$$libinit$$0000000E)
    .ARM.Collect$$libinit$$00000011          0x08000266   Section        0  libinit2.o(.ARM.Collect$$libinit$$00000011)
    .ARM.Collect$$libinit$$00000013          0x08000266   Section        0  libinit2.o(.ARM.Collect$$libinit$$00000013)
    .ARM.Collect$$libinit$$00000015          0x08000266   Section        0  libinit2.o(.ARM.Collect$$libinit$$00000015)
    .ARM.Collect$$libinit$$00000017          0x08000266   Section        0  libinit2.o(.ARM.Collect$$libinit$$00000017)
    .ARM.Collect$$libinit$$00000019          0x08000266   Section        0  libinit2.o(.ARM.Collect$$libinit$$00000019)
    .ARM.Collect$$libinit$$0000001B          0x08000266   Section        0  libinit2.o(.ARM.Collect$$libinit$$0000001B)
    .ARM.Collect$$libinit$$0000001D          0x08000266   Section        0  libinit2.o(.ARM.Collect$$libinit$$0000001D)
    .ARM.Collect$$libinit$$0000001F          0x08000266   Section        0  libinit2.o(.ARM.Collect$$libinit$$0000001F)
    .ARM.Collect$$libinit$$00000021          0x08000266   Section        0  libinit2.o(.ARM.Collect$$libinit$$00000021)
    .ARM.Collect$$libinit$$00000023          0x08000266   Section        0  libinit2.o(.ARM.Collect$$libinit$$00000023)
    .ARM.Collect$$libinit$$00000025          0x08000266   Section        0  libinit2.o(.ARM.Collect$$libinit$$00000025)
    .ARM.Collect$$libinit$$0000002C          0x08000266   Section        0  libinit2.o(.ARM.Collect$$libinit$$0000002C)
    .ARM.Collect$$libinit$$0000002E          0x08000266   Section        0  libinit2.o(.ARM.Collect$$libinit$$0000002E)
    .ARM.Collect$$libinit$$00000030          0x08000266   Section        0  libinit2.o(.ARM.Collect$$libinit$$00000030)
    .ARM.Collect$$libinit$$00000032          0x08000266   Section        0  libinit2.o(.ARM.Collect$$libinit$$00000032)
    .ARM.Collect$$libinit$$00000033          0x08000266   Section        2  libinit2.o(.ARM.Collect$$libinit$$00000033)
    .ARM.Collect$$libshutdown$$00000000      0x08000268   Section        2  libshutdown.o(.ARM.Collect$$libshutdown$$00000000)
    .ARM.Collect$$libshutdown$$00000002      0x0800026a   Section        0  libshutdown2.o(.ARM.Collect$$libshutdown$$00000002)
    .ARM.Collect$$libshutdown$$00000004      0x0800026a   Section        0  libshutdown2.o(.ARM.Collect$$libshutdown$$00000004)
    .ARM.Collect$$libshutdown$$00000007      0x0800026a   Section        0  libshutdown2.o(.ARM.Collect$$libshutdown$$00000007)
    .ARM.Collect$$libshutdown$$0000000A      0x0800026a   Section        0  libshutdown2.o(.ARM.Collect$$libshutdown$$0000000A)
    .ARM.Collect$$libshutdown$$0000000C      0x0800026a   Section        0  libshutdown2.o(.ARM.Collect$$libshutdown$$0000000C)
    .ARM.Collect$$libshutdown$$0000000F      0x0800026a   Section        0  libshutdown2.o(.ARM.Collect$$libshutdown$$0000000F)
    .ARM.Collect$$libshutdown$$00000010      0x0800026a   Section        2  libshutdown2.o(.ARM.Collect$$libshutdown$$00000010)
    .ARM.Collect$$rtentry$$00000000          0x0800026c   Section        0  __rtentry.o(.ARM.Collect$$rtentry$$00000000)
    .ARM.Collect$$rtentry$$00000002          0x0800026c   Section        0  __rtentry2.o(.ARM.Collect$$rtentry$$00000002)
    .ARM.Collect$$rtentry$$00000004          0x0800026c   Section        6  __rtentry4.o(.ARM.Collect$$rtentry$$00000004)
    .ARM.Collect$$rtentry$$00000009          0x08000272   Section        0  __rtentry2.o(.ARM.Collect$$rtentry$$00000009)
    .ARM.Collect$$rtentry$$0000000A          0x08000272   Section        4  __rtentry2.o(.ARM.Collect$$rtentry$$0000000A)
    .ARM.Collect$$rtentry$$0000000C          0x08000276   Section        0  __rtentry2.o(.ARM.Collect$$rtentry$$0000000C)
    .ARM.Collect$$rtentry$$0000000D          0x08000276   Section        8  __rtentry2.o(.ARM.Collect$$rtentry$$0000000D)
    .ARM.Collect$$rtexit$$00000000           0x0800027e   Section        2  rtexit.o(.ARM.Collect$$rtexit$$00000000)
    .ARM.Collect$$rtexit$$00000002           0x08000280   Section        0  rtexit2.o(.ARM.Collect$$rtexit$$00000002)
    .ARM.Collect$$rtexit$$00000003           0x08000280   Section        4  rtexit2.o(.ARM.Collect$$rtexit$$00000003)
    .ARM.Collect$$rtexit$$00000004           0x08000284   Section        6  rtexit2.o(.ARM.Collect$$rtexit$$00000004)
    .emb_text                                0x0800028c   Section      190  port.o(.emb_text)
    $v0                                      0x0800028c   Number         0  port.o(.emb_text)
    .text                                    0x0800034c   Section       64  startup_stm32f427xx.o(.text)
    $v0                                      0x0800034c   Number         0  startup_stm32f427xx.o(.text)
    .text                                    0x0800038c   Section      238  lludivv7m.o(.text)
    .text                                    0x0800047a   Section      138  rt_memcpy_v6.o(.text)
    .text                                    0x08000504   Section      100  rt_memcpy_w.o(.text)
    .text                                    0x08000568   Section       78  rt_memclr_w.o(.text)
    .text                                    0x080005b6   Section        0  heapauxi.o(.text)
    .text                                    0x080005bc   Section        8  libspace.o(.text)
    .text                                    0x080005c4   Section        2  use_no_semi.o(.text)
    .text                                    0x080005c6   Section        0  indicate_semi.o(.text)
    .text                                    0x080005c6   Section       74  sys_stackheap_outer.o(.text)
    .text                                    0x08000610   Section        0  exit.o(.text)
    .text                                    0x08000624   Section        0  sys_exit.o(.text)
    i.BusFault_Handler                       0x08000630   Section        0  stm32f4xx_it.o(i.BusFault_Handler)
    i.CAN1_RX0_IRQHandler                    0x08000634   Section        0  stm32f4xx_it.o(i.CAN1_RX0_IRQHandler)
    i.CAN1_TX_IRQHandler                     0x08000640   Section        0  stm32f4xx_it.o(i.CAN1_TX_IRQHandler)
    i.CAN2_RX0_IRQHandler                    0x0800064c   Section        0  stm32f4xx_it.o(i.CAN2_RX0_IRQHandler)
    i.CAN2_TX_IRQHandler                     0x08000658   Section        0  stm32f4xx_it.o(i.CAN2_TX_IRQHandler)
    i.Callback_RC_Handle                     0x08000664   Section        0  remote.o(i.Callback_RC_Handle)
    i.DMA1_Stream1_IRQHandler                0x08000710   Section        0  stm32f4xx_it.o(i.DMA1_Stream1_IRQHandler)
    i.DMA1_Stream4_IRQHandler                0x0800071c   Section        0  stm32f4xx_it.o(i.DMA1_Stream4_IRQHandler)
    i.DMA1_Stream6_IRQHandler                0x08000728   Section        0  stm32f4xx_it.o(i.DMA1_Stream6_IRQHandler)
    i.DMA2_Stream1_IRQHandler                0x08000734   Section        0  stm32f4xx_it.o(i.DMA2_Stream1_IRQHandler)
    i.DMA2_Stream2_IRQHandler                0x08000740   Section        0  stm32f4xx_it.o(i.DMA2_Stream2_IRQHandler)
    i.DMA_CalcBaseAndBitshift                0x0800074c   Section        0  stm32f4xx_hal_dma.o(i.DMA_CalcBaseAndBitshift)
    DMA_CalcBaseAndBitshift                  0x0800074d   Thumb Code    34  stm32f4xx_hal_dma.o(i.DMA_CalcBaseAndBitshift)
    i.DMA_CheckFifoParam                     0x08000774   Section        0  stm32f4xx_hal_dma.o(i.DMA_CheckFifoParam)
    DMA_CheckFifoParam                       0x08000775   Thumb Code    84  stm32f4xx_hal_dma.o(i.DMA_CheckFifoParam)
    i.DMA_SetConfig                          0x080007c8   Section        0  stm32f4xx_hal_dma.o(i.DMA_SetConfig)
    DMA_SetConfig                            0x080007c9   Thumb Code    40  stm32f4xx_hal_dma.o(i.DMA_SetConfig)
    i.DebugMon_Handler                       0x080007f0   Section        0  stm32f4xx_it.o(i.DebugMon_Handler)
    i.EXTI0_IRQHandler                       0x080007f2   Section        0  stm32f4xx_it.o(i.EXTI0_IRQHandler)
    i.EXTI15_10_IRQHandler                   0x080007f8   Section        0  stm32f4xx_it.o(i.EXTI15_10_IRQHandler)
    i.EXTI2_IRQHandler                       0x0800080e   Section        0  stm32f4xx_it.o(i.EXTI2_IRQHandler)
    i.EXTI3_IRQHandler                       0x08000814   Section        0  stm32f4xx_it.o(i.EXTI3_IRQHandler)
    i.Error_Handler                          0x0800081a   Section        0  main.o(i.Error_Handler)
    i.GetModbusCRC16_Tab                     0x0800081c   Section        0  bsp_sensor.o(i.GetModbusCRC16_Tab)
    i.HAL_CAN_ActivateNotification           0x08000848   Section        0  stm32f4xx_hal_can.o(i.HAL_CAN_ActivateNotification)
    i.HAL_CAN_AddTxMessage                   0x0800086c   Section        0  stm32f4xx_hal_can.o(i.HAL_CAN_AddTxMessage)
    i.HAL_CAN_ConfigFilter                   0x08000934   Section        0  stm32f4xx_hal_can.o(i.HAL_CAN_ConfigFilter)
    i.HAL_CAN_ErrorCallback                  0x08000a40   Section        0  stm32f4xx_hal_can.o(i.HAL_CAN_ErrorCallback)
    i.HAL_CAN_GetRxMessage                   0x08000a42   Section        0  stm32f4xx_hal_can.o(i.HAL_CAN_GetRxMessage)
    i.HAL_CAN_IRQHandler                     0x08000b2a   Section        0  stm32f4xx_hal_can.o(i.HAL_CAN_IRQHandler)
    i.HAL_CAN_Init                           0x08000d26   Section        0  stm32f4xx_hal_can.o(i.HAL_CAN_Init)
    i.HAL_CAN_MspInit                        0x08000e40   Section        0  can.o(i.HAL_CAN_MspInit)
    i.HAL_CAN_RxFifo0FullCallback            0x08000f5c   Section        0  stm32f4xx_hal_can.o(i.HAL_CAN_RxFifo0FullCallback)
    i.HAL_CAN_RxFifo0MsgPendingCallback      0x08000f60   Section        0  bsp_can.o(i.HAL_CAN_RxFifo0MsgPendingCallback)
    i.HAL_CAN_RxFifo1FullCallback            0x08001060   Section        0  stm32f4xx_hal_can.o(i.HAL_CAN_RxFifo1FullCallback)
    i.HAL_CAN_RxFifo1MsgPendingCallback      0x08001062   Section        0  stm32f4xx_hal_can.o(i.HAL_CAN_RxFifo1MsgPendingCallback)
    i.HAL_CAN_SleepCallback                  0x08001064   Section        0  stm32f4xx_hal_can.o(i.HAL_CAN_SleepCallback)
    i.HAL_CAN_Start                          0x08001068   Section        0  stm32f4xx_hal_can.o(i.HAL_CAN_Start)
    i.HAL_CAN_TxMailbox0AbortCallback        0x080010c0   Section        0  stm32f4xx_hal_can.o(i.HAL_CAN_TxMailbox0AbortCallback)
    i.HAL_CAN_TxMailbox0CompleteCallback     0x080010c2   Section        0  stm32f4xx_hal_can.o(i.HAL_CAN_TxMailbox0CompleteCallback)
    i.HAL_CAN_TxMailbox1AbortCallback        0x080010c4   Section        0  stm32f4xx_hal_can.o(i.HAL_CAN_TxMailbox1AbortCallback)
    i.HAL_CAN_TxMailbox1CompleteCallback     0x080010c6   Section        0  stm32f4xx_hal_can.o(i.HAL_CAN_TxMailbox1CompleteCallback)
    i.HAL_CAN_TxMailbox2AbortCallback        0x080010c8   Section        0  stm32f4xx_hal_can.o(i.HAL_CAN_TxMailbox2AbortCallback)
    i.HAL_CAN_TxMailbox2CompleteCallback     0x080010ca   Section        0  stm32f4xx_hal_can.o(i.HAL_CAN_TxMailbox2CompleteCallback)
    i.HAL_CAN_WakeUpFromRxMsgCallback        0x080010cc   Section        0  stm32f4xx_hal_can.o(i.HAL_CAN_WakeUpFromRxMsgCallback)
    i.HAL_DMA_Abort                          0x080010ce   Section        0  stm32f4xx_hal_dma.o(i.HAL_DMA_Abort)
    i.HAL_DMA_Abort_IT                       0x0800115c   Section        0  stm32f4xx_hal_dma.o(i.HAL_DMA_Abort_IT)
    i.HAL_DMA_IRQHandler                     0x08001180   Section        0  stm32f4xx_hal_dma.o(i.HAL_DMA_IRQHandler)
    i.HAL_DMA_Init                           0x08001320   Section        0  stm32f4xx_hal_dma.o(i.HAL_DMA_Init)
    i.HAL_DMA_Start                          0x080013f4   Section        0  stm32f4xx_hal_dma.o(i.HAL_DMA_Start)
    i.HAL_DMA_Start_IT                       0x0800143a   Section        0  stm32f4xx_hal_dma.o(i.HAL_DMA_Start_IT)
    i.HAL_Delay                              0x080014a8   Section        0  stm32f4xx_hal.o(i.HAL_Delay)
    i.HAL_GPIO_EXTI_Callback                 0x080014cc   Section        0  bsp_sensor.o(i.HAL_GPIO_EXTI_Callback)
    i.HAL_GPIO_EXTI_IRQHandler               0x08001678   Section        0  stm32f4xx_hal_gpio.o(i.HAL_GPIO_EXTI_IRQHandler)
    i.HAL_GPIO_Init                          0x08001690   Section        0  stm32f4xx_hal_gpio.o(i.HAL_GPIO_Init)
    i.HAL_GPIO_ReadPin                       0x080018c0   Section        0  stm32f4xx_hal_gpio.o(i.HAL_GPIO_ReadPin)
    i.HAL_GPIO_TogglePin                     0x080018ca   Section        0  stm32f4xx_hal_gpio.o(i.HAL_GPIO_TogglePin)
    i.HAL_GPIO_WritePin                      0x080018da   Section        0  stm32f4xx_hal_gpio.o(i.HAL_GPIO_WritePin)
    i.HAL_GetTick                            0x080018e4   Section        0  stm32f4xx_hal.o(i.HAL_GetTick)
    i.HAL_IncTick                            0x080018f0   Section        0  stm32f4xx_hal.o(i.HAL_IncTick)
    i.HAL_Init                               0x08001900   Section        0  stm32f4xx_hal.o(i.HAL_Init)
    i.HAL_InitTick                           0x08001934   Section        0  stm32f4xx_hal.o(i.HAL_InitTick)
    i.HAL_MspInit                            0x08001974   Section        0  stm32f4xx_hal_msp.o(i.HAL_MspInit)
    i.HAL_NVIC_EnableIRQ                     0x080019ac   Section        0  stm32f4xx_hal_cortex.o(i.HAL_NVIC_EnableIRQ)
    i.HAL_NVIC_SetPriority                   0x080019c8   Section        0  stm32f4xx_hal_cortex.o(i.HAL_NVIC_SetPriority)
    i.HAL_NVIC_SetPriorityGrouping           0x08001a08   Section        0  stm32f4xx_hal_cortex.o(i.HAL_NVIC_SetPriorityGrouping)
    i.HAL_RCC_ClockConfig                    0x08001a2c   Section        0  stm32f4xx_hal_rcc.o(i.HAL_RCC_ClockConfig)
    i.HAL_RCC_GetPCLK1Freq                   0x08001b60   Section        0  stm32f4xx_hal_rcc.o(i.HAL_RCC_GetPCLK1Freq)
    i.HAL_RCC_GetPCLK2Freq                   0x08001b80   Section        0  stm32f4xx_hal_rcc.o(i.HAL_RCC_GetPCLK2Freq)
    i.HAL_RCC_GetSysClockFreq                0x08001ba0   Section        0  stm32f4xx_hal_rcc.o(i.HAL_RCC_GetSysClockFreq)
    i.HAL_RCC_OscConfig                      0x08001c04   Section        0  stm32f4xx_hal_rcc.o(i.HAL_RCC_OscConfig)
    i.HAL_SYSTICK_Config                     0x08001f70   Section        0  stm32f4xx_hal_cortex.o(i.HAL_SYSTICK_Config)
    i.HAL_TIMEx_BreakCallback                0x08001f98   Section        0  stm32f4xx_hal_tim_ex.o(i.HAL_TIMEx_BreakCallback)
    i.HAL_TIMEx_CommutCallback               0x08001f9a   Section        0  stm32f4xx_hal_tim_ex.o(i.HAL_TIMEx_CommutCallback)
    i.HAL_TIMEx_MasterConfigSynchronization  0x08001f9c   Section        0  stm32f4xx_hal_tim_ex.o(i.HAL_TIMEx_MasterConfigSynchronization)
    i.HAL_TIM_Base_Init                      0x0800202c   Section        0  stm32f4xx_hal_tim.o(i.HAL_TIM_Base_Init)
    i.HAL_TIM_Base_MspInit                   0x08002088   Section        0  tim.o(i.HAL_TIM_Base_MspInit)
    i.HAL_TIM_Base_Start_IT                  0x080020dc   Section        0  stm32f4xx_hal_tim.o(i.HAL_TIM_Base_Start_IT)
    i.HAL_TIM_ConfigClockSource              0x0800215c   Section        0  stm32f4xx_hal_tim.o(i.HAL_TIM_ConfigClockSource)
    i.HAL_TIM_IC_CaptureCallback             0x08002232   Section        0  stm32f4xx_hal_tim.o(i.HAL_TIM_IC_CaptureCallback)
    i.HAL_TIM_IRQHandler                     0x08002234   Section        0  stm32f4xx_hal_tim.o(i.HAL_TIM_IRQHandler)
    i.HAL_TIM_MspPostInit                    0x0800239c   Section        0  tim.o(i.HAL_TIM_MspPostInit)
    i.HAL_TIM_OC_DelayElapsedCallback        0x080023f0   Section        0  stm32f4xx_hal_tim.o(i.HAL_TIM_OC_DelayElapsedCallback)
    i.HAL_TIM_PWM_ConfigChannel              0x080023f2   Section        0  stm32f4xx_hal_tim.o(i.HAL_TIM_PWM_ConfigChannel)
    i.HAL_TIM_PWM_Init                       0x080024b8   Section        0  stm32f4xx_hal_tim.o(i.HAL_TIM_PWM_Init)
    i.HAL_TIM_PWM_MspInit                    0x08002512   Section        0  stm32f4xx_hal_tim.o(i.HAL_TIM_PWM_MspInit)
    i.HAL_TIM_PWM_PulseFinishedCallback      0x08002514   Section        0  stm32f4xx_hal_tim.o(i.HAL_TIM_PWM_PulseFinishedCallback)
    i.HAL_TIM_PWM_Start                      0x08002518   Section        0  stm32f4xx_hal_tim.o(i.HAL_TIM_PWM_Start)
    i.HAL_TIM_PeriodElapsedCallback          0x080025e0   Section        0  stm32f4xx_hal_tim.o(i.HAL_TIM_PeriodElapsedCallback)
    i.HAL_TIM_TriggerCallback                0x080025e2   Section        0  stm32f4xx_hal_tim.o(i.HAL_TIM_TriggerCallback)
    i.HAL_UARTEx_RxEventCallback             0x080025e4   Section        0  stm32f4xx_hal_uart.o(i.HAL_UARTEx_RxEventCallback)
    i.HAL_UART_DMAStop                       0x080025e6   Section        0  stm32f4xx_hal_uart.o(i.HAL_UART_DMAStop)
    i.HAL_UART_ErrorCallback                 0x0800263e   Section        0  stm32f4xx_hal_uart.o(i.HAL_UART_ErrorCallback)
    i.HAL_UART_IDLE_IRQHandler               0x08002640   Section        0  usart.o(i.HAL_UART_IDLE_IRQHandler)
    i.HAL_UART_IRQHandler                    0x08002720   Section        0  stm32f4xx_hal_uart.o(i.HAL_UART_IRQHandler)
    i.HAL_UART_Init                          0x08002930   Section        0  stm32f4xx_hal_uart.o(i.HAL_UART_Init)
    i.HAL_UART_MspInit                       0x08002994   Section        0  usart.o(i.HAL_UART_MspInit)
    i.HAL_UART_Receive_DMA                   0x08002c6c   Section        0  stm32f4xx_hal_uart.o(i.HAL_UART_Receive_DMA)
    i.HAL_UART_Receive_IT_IDLE               0x08002c96   Section        0  usart.o(i.HAL_UART_Receive_IT_IDLE)
    i.HAL_UART_RxCpltCallback                0x08002ca8   Section        0  stm32f4xx_hal_uart.o(i.HAL_UART_RxCpltCallback)
    i.HAL_UART_RxHalfCpltCallback            0x08002caa   Section        0  stm32f4xx_hal_uart.o(i.HAL_UART_RxHalfCpltCallback)
    i.HAL_UART_Transmit                      0x08002cac   Section        0  stm32f4xx_hal_uart.o(i.HAL_UART_Transmit)
    i.HAL_UART_Transmit_DMA                  0x08002d60   Section        0  stm32f4xx_hal_uart.o(i.HAL_UART_Transmit_DMA)
    i.HAL_UART_TxCpltCallback                0x08002de0   Section        0  stm32f4xx_hal_uart.o(i.HAL_UART_TxCpltCallback)
    i.HAL_UART_TxHalfCpltCallback            0x08002de2   Section        0  stm32f4xx_hal_uart.o(i.HAL_UART_TxHalfCpltCallback)
    i.HardFault_Handler                      0x08002de4   Section        0  stm32f4xx_it.o(i.HardFault_Handler)
    i.Keymos_control                         0x08002de8   Section        0  remote.o(i.Keymos_control)
    i.MX_CAN1_Init                           0x08003628   Section        0  can.o(i.MX_CAN1_Init)
    i.MX_CAN2_Init                           0x0800366c   Section        0  can.o(i.MX_CAN2_Init)
    i.MX_DMA_Init                            0x080036b0   Section        0  dma.o(i.MX_DMA_Init)
    i.MX_FREERTOS_Init                       0x0800372c   Section        0  freertos.o(i.MX_FREERTOS_Init)
    i.MX_GPIO_Init                           0x080037c0   Section        0  gpio.o(i.MX_GPIO_Init)
    i.MX_TIM4_Init                           0x08003988   Section        0  tim.o(i.MX_TIM4_Init)
    i.MX_TIM7_Init                           0x08003a24   Section        0  tim.o(i.MX_TIM7_Init)
    i.MX_UART7_Init                          0x08003a68   Section        0  usart.o(i.MX_UART7_Init)
    i.MX_UART8_Init                          0x08003aa0   Section        0  usart.o(i.MX_UART8_Init)
    i.MX_USART1_UART_Init                    0x08003ad8   Section        0  usart.o(i.MX_USART1_UART_Init)
    i.MX_USART3_UART_Init                    0x08003b18   Section        0  usart.o(i.MX_USART3_UART_Init)
    i.MX_USART6_UART_Init                    0x08003b50   Section        0  usart.o(i.MX_USART6_UART_Init)
    i.MemManage_Handler                      0x08003b88   Section        0  stm32f4xx_it.o(i.MemManage_Handler)
    i.NMI_Handler                            0x08003b8a   Section        0  stm32f4xx_it.o(i.NMI_Handler)
    i.StartDefaultTask                       0x08003b8c   Section        0  freertos.o(i.StartDefaultTask)
    i.StartTask02                            0x08003c08   Section        0  freertos.o(i.StartTask02)
    i.StartTask03                            0x08003ec8   Section        0  freertos.o(i.StartTask03)
    i.StartTask04                            0x08004144   Section        0  freertos.o(i.StartTask04)
    i.StartTask05                            0x08004218   Section        0  freertos.o(i.StartTask05)
    i.StartTask06                            0x0800424c   Section        0  freertos.o(i.StartTask06)
    i.SysTick_Handler                        0x08004280   Section        0  stm32f4xx_it.o(i.SysTick_Handler)
    i.SystemClock_Config                     0x08004298   Section        0  main.o(i.SystemClock_Config)
    i.SystemInit                             0x0800431c   Section        0  system_stm32f4xx.o(i.SystemInit)
    i.TIM7_IRQHandler                        0x08004338   Section        0  stm32f4xx_it.o(i.TIM7_IRQHandler)
    i.TIM_Base_SetConfig                     0x080044f8   Section        0  stm32f4xx_hal_tim.o(i.TIM_Base_SetConfig)
    i.TIM_CCxChannelCmd                      0x080045c0   Section        0  stm32f4xx_hal_tim.o(i.TIM_CCxChannelCmd)
    i.TIM_ETR_SetConfig                      0x080045da   Section        0  stm32f4xx_hal_tim.o(i.TIM_ETR_SetConfig)
    i.TIM_ITRx_SetConfig                     0x080045ee   Section        0  stm32f4xx_hal_tim.o(i.TIM_ITRx_SetConfig)
    TIM_ITRx_SetConfig                       0x080045ef   Thumb Code    16  stm32f4xx_hal_tim.o(i.TIM_ITRx_SetConfig)
    i.TIM_OC1_SetConfig                      0x08004600   Section        0  stm32f4xx_hal_tim.o(i.TIM_OC1_SetConfig)
    TIM_OC1_SetConfig                        0x08004601   Thumb Code    88  stm32f4xx_hal_tim.o(i.TIM_OC1_SetConfig)
    i.TIM_OC2_SetConfig                      0x08004660   Section        0  stm32f4xx_hal_tim.o(i.TIM_OC2_SetConfig)
    i.TIM_OC3_SetConfig                      0x080046cc   Section        0  stm32f4xx_hal_tim.o(i.TIM_OC3_SetConfig)
    TIM_OC3_SetConfig                        0x080046cd   Thumb Code    96  stm32f4xx_hal_tim.o(i.TIM_OC3_SetConfig)
    i.TIM_OC4_SetConfig                      0x08004734   Section        0  stm32f4xx_hal_tim.o(i.TIM_OC4_SetConfig)
    TIM_OC4_SetConfig                        0x08004735   Thumb Code    70  stm32f4xx_hal_tim.o(i.TIM_OC4_SetConfig)
    i.TIM_TI1_ConfigInputStage               0x08004784   Section        0  stm32f4xx_hal_tim.o(i.TIM_TI1_ConfigInputStage)
    TIM_TI1_ConfigInputStage                 0x08004785   Thumb Code    34  stm32f4xx_hal_tim.o(i.TIM_TI1_ConfigInputStage)
    i.TIM_TI2_ConfigInputStage               0x080047a6   Section        0  stm32f4xx_hal_tim.o(i.TIM_TI2_ConfigInputStage)
    TIM_TI2_ConfigInputStage                 0x080047a7   Thumb Code    36  stm32f4xx_hal_tim.o(i.TIM_TI2_ConfigInputStage)
    i.UART8_IRQHandler                       0x080047cc   Section        0  stm32f4xx_it.o(i.UART8_IRQHandler)
    i.UART_DMAAbortOnError                   0x08004868   Section        0  stm32f4xx_hal_uart.o(i.UART_DMAAbortOnError)
    UART_DMAAbortOnError                     0x08004869   Thumb Code    16  stm32f4xx_hal_uart.o(i.UART_DMAAbortOnError)
    i.UART_DMAError                          0x08004878   Section        0  stm32f4xx_hal_uart.o(i.UART_DMAError)
    UART_DMAError                            0x08004879   Thumb Code    74  stm32f4xx_hal_uart.o(i.UART_DMAError)
    i.UART_DMAReceiveCplt                    0x080048c2   Section        0  stm32f4xx_hal_uart.o(i.UART_DMAReceiveCplt)
    UART_DMAReceiveCplt                      0x080048c3   Thumb Code    90  stm32f4xx_hal_uart.o(i.UART_DMAReceiveCplt)
    i.UART_DMARxHalfCplt                     0x0800491c   Section        0  stm32f4xx_hal_uart.o(i.UART_DMARxHalfCplt)
    UART_DMARxHalfCplt                       0x0800491d   Thumb Code    26  stm32f4xx_hal_uart.o(i.UART_DMARxHalfCplt)
    i.UART_DMATransmitCplt                   0x08004936   Section        0  stm32f4xx_hal_uart.o(i.UART_DMATransmitCplt)
    UART_DMATransmitCplt                     0x08004937   Thumb Code    46  stm32f4xx_hal_uart.o(i.UART_DMATransmitCplt)
    i.UART_DMATxHalfCplt                     0x08004964   Section        0  stm32f4xx_hal_uart.o(i.UART_DMATxHalfCplt)
    UART_DMATxHalfCplt                       0x08004965   Thumb Code    10  stm32f4xx_hal_uart.o(i.UART_DMATxHalfCplt)
    i.UART_EndRxTransfer                     0x0800496e   Section        0  stm32f4xx_hal_uart.o(i.UART_EndRxTransfer)
    UART_EndRxTransfer                       0x0800496f   Thumb Code    48  stm32f4xx_hal_uart.o(i.UART_EndRxTransfer)
    i.UART_EndTxTransfer                     0x0800499e   Section        0  stm32f4xx_hal_uart.o(i.UART_EndTxTransfer)
    UART_EndTxTransfer                       0x0800499f   Thumb Code    18  stm32f4xx_hal_uart.o(i.UART_EndTxTransfer)
    i.UART_Receive_DMA_NoIT                  0x080049b0   Section        0  usart.o(i.UART_Receive_DMA_NoIT)
    i.UART_Receive_IT                        0x08004a28   Section        0  stm32f4xx_hal_uart.o(i.UART_Receive_IT)
    UART_Receive_IT                          0x08004a29   Thumb Code   174  stm32f4xx_hal_uart.o(i.UART_Receive_IT)
    i.UART_SetConfig                         0x08004ad8   Section        0  stm32f4xx_hal_uart.o(i.UART_SetConfig)
    UART_SetConfig                           0x08004ad9   Thumb Code   258  stm32f4xx_hal_uart.o(i.UART_SetConfig)
    i.UART_Start_Receive_DMA                 0x08004be4   Section        0  stm32f4xx_hal_uart.o(i.UART_Start_Receive_DMA)
    i.UART_WaitOnFlagUntilTimeout            0x08004c54   Section        0  stm32f4xx_hal_uart.o(i.UART_WaitOnFlagUntilTimeout)
    UART_WaitOnFlagUntilTimeout              0x08004c55   Thumb Code   100  stm32f4xx_hal_uart.o(i.UART_WaitOnFlagUntilTimeout)
    i.USART1_IRQHandler                      0x08004cb8   Section        0  stm32f4xx_it.o(i.USART1_IRQHandler)
    i.USART3_IRQHandler                      0x08004cc4   Section        0  stm32f4xx_it.o(i.USART3_IRQHandler)
    i.USART6_IRQHandler                      0x08004d5c   Section        0  stm32f4xx_it.o(i.USART6_IRQHandler)
    i.UsageFault_Handler                     0x08004df8   Section        0  stm32f4xx_it.o(i.UsageFault_Handler)
    i.__NVIC_SetPriority                     0x08004dfa   Section        0  stm32f4xx_hal_cortex.o(i.__NVIC_SetPriority)
    __NVIC_SetPriority                       0x08004dfb   Thumb Code    32  stm32f4xx_hal_cortex.o(i.__NVIC_SetPriority)
    i.append_CRC16_check_sum                 0x08004e1c   Section        0  crc8_crc16.o(i.append_CRC16_check_sum)
    i.append_CRC8_check_sum                  0x08004e44   Section        0  crc8_crc16.o(i.append_CRC8_check_sum)
    i.can_filter_init                        0x08004e60   Section        0  bsp_can.o(i.can_filter_init)
    i.climode_check                          0x08004eb8   Section        0  remote.o(i.climode_check)
    i.fifo_s_get                             0x08004f2c   Section        0  fifo.o(i.fifo_s_get)
    i.fifo_s_init                            0x08004f58   Section        0  fifo.o(i.fifo_s_init)
    i.fifo_s_puts                            0x08004f6e   Section        0  fifo.o(i.fifo_s_puts)
    i.fifo_s_used                            0x08004fea   Section        0  fifo.o(i.fifo_s_used)
    i.get_CRC16_check_sum                    0x08004ff0   Section        0  crc8_crc16.o(i.get_CRC16_check_sum)
    i.get_CRC8_check_sum                     0x0800501c   Section        0  crc8_crc16.o(i.get_CRC8_check_sum)
    i.main                                   0x08005038   Section        0  main.o(i.main)
    i.makeFreeRtosPriority                   0x08005268   Section        0  cmsis_os.o(i.makeFreeRtosPriority)
    makeFreeRtosPriority                     0x08005269   Thumb Code    12  cmsis_os.o(i.makeFreeRtosPriority)
    i.osDelay                                0x08005274   Section        0  cmsis_os.o(i.osDelay)
    i.osKernelStart                          0x08005282   Section        0  cmsis_os.o(i.osKernelStart)
    i.osThreadCreate                         0x0800528c   Section        0  cmsis_os.o(i.osThreadCreate)
    i.pid_calc                               0x080052e0   Section        0  pid.o(i.pid_calc)
    i.pid_init                               0x080053dc   Section        0  pid.o(i.pid_init)
    i.prvAddCurrentTaskToDelayedList         0x080053e8   Section        0  tasks.o(i.prvAddCurrentTaskToDelayedList)
    prvAddCurrentTaskToDelayedList           0x080053e9   Thumb Code   102  tasks.o(i.prvAddCurrentTaskToDelayedList)
    i.prvAddNewTaskToReadyList               0x08005458   Section        0  tasks.o(i.prvAddNewTaskToReadyList)
    prvAddNewTaskToReadyList                 0x08005459   Thumb Code   194  tasks.o(i.prvAddNewTaskToReadyList)
    i.prvDeleteTCB                           0x08005528   Section        0  tasks.o(i.prvDeleteTCB)
    prvDeleteTCB                             0x08005529   Thumb Code    52  tasks.o(i.prvDeleteTCB)
    i.prvHeapInit                            0x0800555c   Section        0  heap_4.o(i.prvHeapInit)
    prvHeapInit                              0x0800555d   Thumb Code    66  heap_4.o(i.prvHeapInit)
    i.prvIdleTask                            0x080055a8   Section        0  tasks.o(i.prvIdleTask)
    prvIdleTask                              0x080055a9   Thumb Code    82  tasks.o(i.prvIdleTask)
    i.prvInitialiseNewTask                   0x08005608   Section        0  tasks.o(i.prvInitialiseNewTask)
    prvInitialiseNewTask                     0x08005609   Thumb Code   152  tasks.o(i.prvInitialiseNewTask)
    i.prvInsertBlockIntoFreeList             0x080056a0   Section        0  heap_4.o(i.prvInsertBlockIntoFreeList)
    prvInsertBlockIntoFreeList               0x080056a1   Thumb Code    72  heap_4.o(i.prvInsertBlockIntoFreeList)
    i.prvResetNextTaskUnblockTime            0x080056ec   Section        0  tasks.o(i.prvResetNextTaskUnblockTime)
    prvResetNextTaskUnblockTime              0x080056ed   Thumb Code    26  tasks.o(i.prvResetNextTaskUnblockTime)
    i.prvTaskExitError                       0x0800570c   Section        0  port.o(i.prvTaskExitError)
    prvTaskExitError                         0x0800570d   Thumb Code    36  port.o(i.prvTaskExitError)
    i.pvPortMalloc                           0x08005734   Section        0  heap_4.o(i.pvPortMalloc)
    i.pxPortInitialiseStack                  0x08005810   Section        0  port.o(i.pxPortInitialiseStack)
    i.referee_data_solve                     0x0800583c   Section        0  rc.o(i.referee_data_solve)
    i.referee_unpack_fifo_data               0x0800596c   Section        0  rc.o(i.referee_unpack_fifo_data)
    i.set_motor_voltage_CAN1                 0x08005a70   Section        0  bsp_can.o(i.set_motor_voltage_CAN1)
    i.set_motor_voltage_CAN2                 0x08005acc   Section        0  bsp_can.o(i.set_motor_voltage_CAN2)
    i.state_check                            0x08005b28   Section        0  remote.o(i.state_check)
    i.ui_draw                                0x08005ba0   Section        0  rc.o(i.ui_draw)
    i.usart3_init                            0x08005ca8   Section        0  bsp_usart.o(i.usart3_init)
    i.usart3_tx_dma_enable                   0x08005d60   Section        0  bsp_usart.o(i.usart3_tx_dma_enable)
    i.uxListRemove                           0x08005dc4   Section        0  list.o(i.uxListRemove)
    i.vApplicationGetIdleTaskMemory          0x08005dec   Section        0  freertos.o(i.vApplicationGetIdleTaskMemory)
    i.vListInitialise                        0x08005e00   Section        0  list.o(i.vListInitialise)
    i.vListInitialiseItem                    0x08005e16   Section        0  list.o(i.vListInitialiseItem)
    i.vListInsert                            0x08005e1c   Section        0  list.o(i.vListInsert)
    i.vListInsertEnd                         0x08005e4c   Section        0  list.o(i.vListInsertEnd)
    i.vPortEnterCritical                     0x08005e64   Section        0  port.o(i.vPortEnterCritical)
    i.vPortExitCritical                      0x08005ea4   Section        0  port.o(i.vPortExitCritical)
    i.vPortFree                              0x08005ecc   Section        0  heap_4.o(i.vPortFree)
    i.vPortSetupTimerInterrupt               0x08005f30   Section        0  port.o(i.vPortSetupTimerInterrupt)
    i.vTaskDelay                             0x08005f54   Section        0  tasks.o(i.vTaskDelay)
    i.vTaskStartScheduler                    0x08005fa0   Section        0  tasks.o(i.vTaskStartScheduler)
    i.vTaskSuspendAll                        0x0800600c   Section        0  tasks.o(i.vTaskSuspendAll)
    i.vTaskSwitchContext                     0x0800601c   Section        0  tasks.o(i.vTaskSwitchContext)
    i.verify_CRC16_check_sum                 0x08006078   Section        0  crc8_crc16.o(i.verify_CRC16_check_sum)
    i.verify_CRC8_check_sum                  0x080060b4   Section        0  crc8_crc16.o(i.verify_CRC8_check_sum)
    i.xPortStartScheduler                    0x080060dc   Section        0  port.o(i.xPortStartScheduler)
    i.xPortSysTickHandler                    0x080061d0   Section        0  port.o(i.xPortSysTickHandler)
    i.xTaskCreate                            0x080061fc   Section        0  tasks.o(i.xTaskCreate)
    i.xTaskCreateStatic                      0x08006256   Section        0  tasks.o(i.xTaskCreateStatic)
    i.xTaskGetSchedulerState                 0x080062ac   Section        0  tasks.o(i.xTaskGetSchedulerState)
    i.xTaskIncrementTick                     0x080062c8   Section        0  tasks.o(i.xTaskIncrementTick)
    i.xTaskResumeAll                         0x08006394   Section        0  tasks.o(i.xTaskResumeAll)
    x$fpl$fpinit                             0x08006458   Section       10  fpinit.o(x$fpl$fpinit)
    $v0                                      0x08006458   Number         0  fpinit.o(x$fpl$fpinit)
    .constdata                               0x08006464   Section      168  freertos.o(.constdata)
    .constdata                               0x0800650c   Section        8  stm32f4xx_hal_dma.o(.constdata)
    flagBitshiftOffset                       0x0800650c   Data           8  stm32f4xx_hal_dma.o(.constdata)
    .constdata                               0x08006514   Section       16  system_stm32f4xx.o(.constdata)
    .constdata                               0x08006524   Section        8  system_stm32f4xx.o(.constdata)
    .constdata                               0x0800652c   Section      512  bsp_sensor.o(.constdata)
    .constdata                               0x0800672c   Section      768  crc8_crc16.o(.constdata)
    .conststring                             0x08006a2c   Section       72  freertos.o(.conststring)
    .data                                    0x20000000   Section        1  main.o(.data)
    .data                                    0x20000002   Section        2  main.o(.data)
    .data                                    0x20000004   Section        2  main.o(.data)
    .data                                    0x20000008   Section       28  freertos.o(.data)
    .data                                    0x20000024   Section        4  can.o(.data)
    HAL_RCC_CAN1_CLK_ENABLED                 0x20000024   Data           4  can.o(.data)
    .data                                    0x20000028   Section        2  stm32f4xx_it.o(.data)
    this_time_rx_len                         0x20000028   Data           2  stm32f4xx_it.o(.data)
    .data                                    0x2000002c   Section       12  stm32f4xx_hal.o(.data)
    .data                                    0x20000038   Section        4  system_stm32f4xx.o(.data)
    .data                                    0x2000003c   Section       60  tasks.o(.data)
    uxDeletedTasksWaitingCleanUp             0x20000040   Data           4  tasks.o(.data)
    uxCurrentNumberOfTasks                   0x20000044   Data           4  tasks.o(.data)
    xTickCount                               0x20000048   Data           4  tasks.o(.data)
    uxTopReadyPriority                       0x2000004c   Data           4  tasks.o(.data)
    xSchedulerRunning                        0x20000050   Data           4  tasks.o(.data)
    xPendedTicks                             0x20000054   Data           4  tasks.o(.data)
    xYieldPending                            0x20000058   Data           4  tasks.o(.data)
    xNumOfOverflows                          0x2000005c   Data           4  tasks.o(.data)
    uxTaskNumber                             0x20000060   Data           4  tasks.o(.data)
    xNextTaskUnblockTime                     0x20000064   Data           4  tasks.o(.data)
    xIdleTaskHandle                          0x20000068   Data           4  tasks.o(.data)
    uxSchedulerSuspended                     0x2000006c   Data           4  tasks.o(.data)
    pxDelayedTaskList                        0x20000070   Data           4  tasks.o(.data)
    pxOverflowDelayedTaskList                0x20000074   Data           4  tasks.o(.data)
    .data                                    0x20000078   Section       32  heap_4.o(.data)
    pxEnd                                    0x20000078   Data           4  heap_4.o(.data)
    xFreeBytesRemaining                      0x2000007c   Data           4  heap_4.o(.data)
    xMinimumEverFreeBytesRemaining           0x20000080   Data           4  heap_4.o(.data)
    xNumberOfSuccessfulAllocations           0x20000084   Data           4  heap_4.o(.data)
    xNumberOfSuccessfulFrees                 0x20000088   Data           4  heap_4.o(.data)
    xBlockAllocatedBit                       0x2000008c   Data           4  heap_4.o(.data)
    xStart                                   0x20000090   Data           8  heap_4.o(.data)
    .data                                    0x20000098   Section       12  port.o(.data)
    ucMaxSysCallPriority                     0x20000098   Data           1  port.o(.data)
    uxCriticalNesting                        0x2000009c   Data           4  port.o(.data)
    ulMaxPRIGROUPValue                       0x200000a0   Data           4  port.o(.data)
    .data                                    0x200000a4   Section       10  bsp_can.o(.data)
    .data                                    0x200000b0   Section       80  remote.o(.data)
    .data                                    0x20000100   Section        4  bsp_sensor.o(.data)
    .data                                    0x20000104   Section        4  bsp_sensor.o(.data)
    .data                                    0x20000108   Section        2  crc8_crc16.o(.data)
    .data                                    0x2000010a   Section       44  rc.o(.data)
    seq                                      0x2000010a   Data           1  rc.o(.data)
    seq                                      0x2000010b   Data           1  rc.o(.data)
    .bss                                     0x20000138   Section       28  main.o(.bss)
    .bss                                     0x20000154   Section       28  main.o(.bss)
    .bss                                     0x20000170   Section     1884  main.o(.bss)
    .bss                                     0x200008cc   Section      596  freertos.o(.bss)
    xIdleTaskTCBBuffer                       0x200008cc   Data          84  freertos.o(.bss)
    xIdleStack                               0x20000920   Data         512  freertos.o(.bss)
    .bss                                     0x20000b20   Section       80  can.o(.bss)
    .bss                                     0x20000b70   Section      144  tim.o(.bss)
    .bss                                     0x20000c00   Section      100  usart.o(.bss)
    .bss                                     0x20000c64   Section      820  usart.o(.bss)
    .bss                                     0x20000f98   Section      240  tasks.o(.bss)
    pxReadyTasksLists                        0x20000f98   Data         140  tasks.o(.bss)
    xDelayedTaskList1                        0x20001024   Data          20  tasks.o(.bss)
    xDelayedTaskList2                        0x20001038   Data          20  tasks.o(.bss)
    xPendingReadyList                        0x2000104c   Data          20  tasks.o(.bss)
    xTasksWaitingTermination                 0x20001060   Data          20  tasks.o(.bss)
    xSuspendedTaskList                       0x20001074   Data          20  tasks.o(.bss)
    .bss                                     0x20001088   Section    15360  heap_4.o(.bss)
    ucHeap                                   0x20001088   Data       15360  heap_4.o(.bss)
    .bss                                     0x20004c88   Section      144  bsp_can.o(.bss)
    .bss                                     0x20004d18   Section       74  remote.o(.bss)
    .bss                                     0x20004d62   Section     1024  rc.o(.bss)
    .bss                                     0x20005164   Section      293  rc.o(.bss)
    .bss                                     0x20005289   Section     1024  rc.o(.bss)
    .bss                                     0x2000568c   Section       96  libspace.o(.bss)
    HEAP                                     0x200056f0   Section      512  startup_stm32f427xx.o(HEAP)
    Heap_Mem                                 0x200056f0   Data         512  startup_stm32f427xx.o(HEAP)
    STACK                                    0x200058f0   Section     1024  startup_stm32f427xx.o(STACK)
    Stack_Mem                                0x200058f0   Data        1024  startup_stm32f427xx.o(STACK)
    __initial_sp                             0x20005cf0   Data           0  startup_stm32f427xx.o(STACK)

    Global Symbols

    Symbol Name                              Value     Ov Type        Size  Object(Section)

    BuildAttributes$$THM_ISAv4$E$P$D$K$B$S$7EM$VFPi3$EXTD16$VFPS$VFMA$PE$A:L22UL41UL21$X:L11$S22US41US21$IEEE1$IW$USESV6$~STKCKD$USESV7$~SHL$OTIME$ROPI$EBA8$UX$STANDARDLIB$REQ8$PRES8$EABIv2 0x00000000   Number         0  anon$$obj.o ABSOLUTE
    __ARM_use_no_argv                        0x00000000   Number         0  main.o ABSOLUTE
    __ARM_exceptions_init                     - Undefined Weak Reference
    __alloca_initialize                       - Undefined Weak Reference
    __arm_preinit_                            - Undefined Weak Reference
    __cpp_initialize__aeabi_                  - Undefined Weak Reference
    __cxa_finalize                            - Undefined Weak Reference
    __rt_locale                               - Undefined Weak Reference
    __sigvec_lookup                           - Undefined Weak Reference
    __user_heap_extent                        - Undefined Weak Reference
    _atexit_init                              - Undefined Weak Reference
    _call_atexit_fns                          - Undefined Weak Reference
    _clock_init                               - Undefined Weak Reference
    _fp_trap_init                             - Undefined Weak Reference
    _fp_trap_shutdown                         - Undefined Weak Reference
    _get_lc_collate                           - Undefined Weak Reference
    _get_lc_ctype                             - Undefined Weak Reference
    _get_lc_monetary                          - Undefined Weak Reference
    _get_lc_numeric                           - Undefined Weak Reference
    _get_lc_time                              - Undefined Weak Reference
    _getenv_init                              - Undefined Weak Reference
    _handle_redirection                       - Undefined Weak Reference
    _initio                                   - Undefined Weak Reference
    _mutex_acquire                            - Undefined Weak Reference
    _mutex_free                               - Undefined Weak Reference
    _mutex_release                            - Undefined Weak Reference
    _rand_init                                - Undefined Weak Reference
    _signal_finish                            - Undefined Weak Reference
    _signal_init                              - Undefined Weak Reference
    _terminateio                              - Undefined Weak Reference
    __Vectors_Size                           0x000001ac   Number         0  startup_stm32f427xx.o ABSOLUTE
    __Vectors                                0x08000000   Data           4  startup_stm32f427xx.o(RESET)
    __Vectors_End                            0x080001ac   Data           0  startup_stm32f427xx.o(RESET)
    __main                                   0x080001ad   Thumb Code     8  __main.o(!!!main)
    __scatterload                            0x080001b5   Thumb Code     0  __scatter.o(!!!scatter)
    __scatterload_rt2                        0x080001b5   Thumb Code    44  __scatter.o(!!!scatter)
    __scatterload_rt2_thumb_only             0x080001b5   Thumb Code     0  __scatter.o(!!!scatter)
    __scatterload_null                       0x080001c3   Thumb Code     0  __scatter.o(!!!scatter)
    __decompress                             0x080001e9   Thumb Code    90  __dczerorl2.o(!!dczerorl2)
    __decompress1                            0x080001e9   Thumb Code     0  __dczerorl2.o(!!dczerorl2)
    __scatterload_zeroinit                   0x08000245   Thumb Code    28  __scatter_zi.o(!!handler_zi)
    __rt_lib_init                            0x08000261   Thumb Code     0  libinit.o(.ARM.Collect$$libinit$$00000000)
    __rt_lib_init_fp_1                       0x08000263   Thumb Code     0  libinit2.o(.ARM.Collect$$libinit$$00000001)
    __rt_lib_init_alloca_1                   0x08000267   Thumb Code     0  libinit2.o(.ARM.Collect$$libinit$$0000002E)
    __rt_lib_init_argv_1                     0x08000267   Thumb Code     0  libinit2.o(.ARM.Collect$$libinit$$0000002C)
    __rt_lib_init_atexit_1                   0x08000267   Thumb Code     0  libinit2.o(.ARM.Collect$$libinit$$0000001B)
    __rt_lib_init_clock_1                    0x08000267   Thumb Code     0  libinit2.o(.ARM.Collect$$libinit$$00000021)
    __rt_lib_init_cpp_1                      0x08000267   Thumb Code     0  libinit2.o(.ARM.Collect$$libinit$$00000032)
    __rt_lib_init_exceptions_1               0x08000267   Thumb Code     0  libinit2.o(.ARM.Collect$$libinit$$00000030)
    __rt_lib_init_fp_trap_1                  0x08000267   Thumb Code     0  libinit2.o(.ARM.Collect$$libinit$$0000001F)
    __rt_lib_init_getenv_1                   0x08000267   Thumb Code     0  libinit2.o(.ARM.Collect$$libinit$$00000023)
    __rt_lib_init_heap_1                     0x08000267   Thumb Code     0  libinit2.o(.ARM.Collect$$libinit$$0000000A)
    __rt_lib_init_lc_collate_1               0x08000267   Thumb Code     0  libinit2.o(.ARM.Collect$$libinit$$00000011)
    __rt_lib_init_lc_ctype_1                 0x08000267   Thumb Code     0  libinit2.o(.ARM.Collect$$libinit$$00000013)
    __rt_lib_init_lc_monetary_1              0x08000267   Thumb Code     0  libinit2.o(.ARM.Collect$$libinit$$00000015)
    __rt_lib_init_lc_numeric_1               0x08000267   Thumb Code     0  libinit2.o(.ARM.Collect$$libinit$$00000017)
    __rt_lib_init_lc_time_1                  0x08000267   Thumb Code     0  libinit2.o(.ARM.Collect$$libinit$$00000019)
    __rt_lib_init_preinit_1                  0x08000267   Thumb Code     0  libinit2.o(.ARM.Collect$$libinit$$00000004)
    __rt_lib_init_rand_1                     0x08000267   Thumb Code     0  libinit2.o(.ARM.Collect$$libinit$$0000000E)
    __rt_lib_init_return                     0x08000267   Thumb Code     0  libinit2.o(.ARM.Collect$$libinit$$00000033)
    __rt_lib_init_signal_1                   0x08000267   Thumb Code     0  libinit2.o(.ARM.Collect$$libinit$$0000001D)
    __rt_lib_init_stdio_1                    0x08000267   Thumb Code     0  libinit2.o(.ARM.Collect$$libinit$$00000025)
    __rt_lib_init_user_alloc_1               0x08000267   Thumb Code     0  libinit2.o(.ARM.Collect$$libinit$$0000000C)
    __rt_lib_shutdown                        0x08000269   Thumb Code     0  libshutdown.o(.ARM.Collect$$libshutdown$$00000000)
    __rt_lib_shutdown_cpp_1                  0x0800026b   Thumb Code     0  libshutdown2.o(.ARM.Collect$$libshutdown$$00000002)
    __rt_lib_shutdown_fp_trap_1              0x0800026b   Thumb Code     0  libshutdown2.o(.ARM.Collect$$libshutdown$$00000007)
    __rt_lib_shutdown_heap_1                 0x0800026b   Thumb Code     0  libshutdown2.o(.ARM.Collect$$libshutdown$$0000000F)
    __rt_lib_shutdown_return                 0x0800026b   Thumb Code     0  libshutdown2.o(.ARM.Collect$$libshutdown$$00000010)
    __rt_lib_shutdown_signal_1               0x0800026b   Thumb Code     0  libshutdown2.o(.ARM.Collect$$libshutdown$$0000000A)
    __rt_lib_shutdown_stdio_1                0x0800026b   Thumb Code     0  libshutdown2.o(.ARM.Collect$$libshutdown$$00000004)
    __rt_lib_shutdown_user_alloc_1           0x0800026b   Thumb Code     0  libshutdown2.o(.ARM.Collect$$libshutdown$$0000000C)
    __rt_entry                               0x0800026d   Thumb Code     0  __rtentry.o(.ARM.Collect$$rtentry$$00000000)
    __rt_entry_presh_1                       0x0800026d   Thumb Code     0  __rtentry2.o(.ARM.Collect$$rtentry$$00000002)
    __rt_entry_sh                            0x0800026d   Thumb Code     0  __rtentry4.o(.ARM.Collect$$rtentry$$00000004)
    __rt_entry_li                            0x08000273   Thumb Code     0  __rtentry2.o(.ARM.Collect$$rtentry$$0000000A)
    __rt_entry_postsh_1                      0x08000273   Thumb Code     0  __rtentry2.o(.ARM.Collect$$rtentry$$00000009)
    __rt_entry_main                          0x08000277   Thumb Code     0  __rtentry2.o(.ARM.Collect$$rtentry$$0000000D)
    __rt_entry_postli_1                      0x08000277   Thumb Code     0  __rtentry2.o(.ARM.Collect$$rtentry$$0000000C)
    __rt_exit                                0x0800027f   Thumb Code     0  rtexit.o(.ARM.Collect$$rtexit$$00000000)
    __rt_exit_ls                             0x08000281   Thumb Code     0  rtexit2.o(.ARM.Collect$$rtexit$$00000003)
    __rt_exit_prels_1                        0x08000281   Thumb Code     0  rtexit2.o(.ARM.Collect$$rtexit$$00000002)
    __rt_exit_exit                           0x08000285   Thumb Code     0  rtexit2.o(.ARM.Collect$$rtexit$$00000004)
    SVC_Handler                              0x0800028d   Thumb Code    28  port.o(.emb_text)
    __asm___6_port_c_39a90d8d__prvStartFirstTask 0x080002ad   Thumb Code    36  port.o(.emb_text)
    __asm___6_port_c_39a90d8d__prvEnableVFP  0x080002d5   Thumb Code    16  port.o(.emb_text)
    PendSV_Handler                           0x080002e9   Thumb Code    88  port.o(.emb_text)
    vPortGetIPSR                             0x08000345   Thumb Code     6  port.o(.emb_text)
    Reset_Handler                            0x0800034d   Thumb Code     8  startup_stm32f427xx.o(.text)
    ADC_IRQHandler                           0x08000367   Thumb Code     0  startup_stm32f427xx.o(.text)
    CAN1_RX1_IRQHandler                      0x08000367   Thumb Code     0  startup_stm32f427xx.o(.text)
    CAN1_SCE_IRQHandler                      0x08000367   Thumb Code     0  startup_stm32f427xx.o(.text)
    CAN2_RX1_IRQHandler                      0x08000367   Thumb Code     0  startup_stm32f427xx.o(.text)
    CAN2_SCE_IRQHandler                      0x08000367   Thumb Code     0  startup_stm32f427xx.o(.text)
    DCMI_IRQHandler                          0x08000367   Thumb Code     0  startup_stm32f427xx.o(.text)
    DMA1_Stream0_IRQHandler                  0x08000367   Thumb Code     0  startup_stm32f427xx.o(.text)
    DMA1_Stream2_IRQHandler                  0x08000367   Thumb Code     0  startup_stm32f427xx.o(.text)
    DMA1_Stream3_IRQHandler                  0x08000367   Thumb Code     0  startup_stm32f427xx.o(.text)
    DMA1_Stream5_IRQHandler                  0x08000367   Thumb Code     0  startup_stm32f427xx.o(.text)
    DMA1_Stream7_IRQHandler                  0x08000367   Thumb Code     0  startup_stm32f427xx.o(.text)
    DMA2D_IRQHandler                         0x08000367   Thumb Code     0  startup_stm32f427xx.o(.text)
    DMA2_Stream0_IRQHandler                  0x08000367   Thumb Code     0  startup_stm32f427xx.o(.text)
    DMA2_Stream3_IRQHandler                  0x08000367   Thumb Code     0  startup_stm32f427xx.o(.text)
    DMA2_Stream4_IRQHandler                  0x08000367   Thumb Code     0  startup_stm32f427xx.o(.text)
    DMA2_Stream5_IRQHandler                  0x08000367   Thumb Code     0  startup_stm32f427xx.o(.text)
    DMA2_Stream6_IRQHandler                  0x08000367   Thumb Code     0  startup_stm32f427xx.o(.text)
    DMA2_Stream7_IRQHandler                  0x08000367   Thumb Code     0  startup_stm32f427xx.o(.text)
    ETH_IRQHandler                           0x08000367   Thumb Code     0  startup_stm32f427xx.o(.text)
    ETH_WKUP_IRQHandler                      0x08000367   Thumb Code     0  startup_stm32f427xx.o(.text)
    EXTI1_IRQHandler                         0x08000367   Thumb Code     0  startup_stm32f427xx.o(.text)
    EXTI4_IRQHandler                         0x08000367   Thumb Code     0  startup_stm32f427xx.o(.text)
    EXTI9_5_IRQHandler                       0x08000367   Thumb Code     0  startup_stm32f427xx.o(.text)
    FLASH_IRQHandler                         0x08000367   Thumb Code     0  startup_stm32f427xx.o(.text)
    FMC_IRQHandler                           0x08000367   Thumb Code     0  startup_stm32f427xx.o(.text)
    FPU_IRQHandler                           0x08000367   Thumb Code     0  startup_stm32f427xx.o(.text)
    HASH_RNG_IRQHandler                      0x08000367   Thumb Code     0  startup_stm32f427xx.o(.text)
    I2C1_ER_IRQHandler                       0x08000367   Thumb Code     0  startup_stm32f427xx.o(.text)
    I2C1_EV_IRQHandler                       0x08000367   Thumb Code     0  startup_stm32f427xx.o(.text)
    I2C2_ER_IRQHandler                       0x08000367   Thumb Code     0  startup_stm32f427xx.o(.text)
    I2C2_EV_IRQHandler                       0x08000367   Thumb Code     0  startup_stm32f427xx.o(.text)
    I2C3_ER_IRQHandler                       0x08000367   Thumb Code     0  startup_stm32f427xx.o(.text)
    I2C3_EV_IRQHandler                       0x08000367   Thumb Code     0  startup_stm32f427xx.o(.text)
    OTG_FS_IRQHandler                        0x08000367   Thumb Code     0  startup_stm32f427xx.o(.text)
    OTG_FS_WKUP_IRQHandler                   0x08000367   Thumb Code     0  startup_stm32f427xx.o(.text)
    OTG_HS_EP1_IN_IRQHandler                 0x08000367   Thumb Code     0  startup_stm32f427xx.o(.text)
    OTG_HS_EP1_OUT_IRQHandler                0x08000367   Thumb Code     0  startup_stm32f427xx.o(.text)
    OTG_HS_IRQHandler                        0x08000367   Thumb Code     0  startup_stm32f427xx.o(.text)
    OTG_HS_WKUP_IRQHandler                   0x08000367   Thumb Code     0  startup_stm32f427xx.o(.text)
    PVD_IRQHandler                           0x08000367   Thumb Code     0  startup_stm32f427xx.o(.text)
    RCC_IRQHandler                           0x08000367   Thumb Code     0  startup_stm32f427xx.o(.text)
    RTC_Alarm_IRQHandler                     0x08000367   Thumb Code     0  startup_stm32f427xx.o(.text)
    RTC_WKUP_IRQHandler                      0x08000367   Thumb Code     0  startup_stm32f427xx.o(.text)
    SAI1_IRQHandler                          0x08000367   Thumb Code     0  startup_stm32f427xx.o(.text)
    SDIO_IRQHandler                          0x08000367   Thumb Code     0  startup_stm32f427xx.o(.text)
    SPI1_IRQHandler                          0x08000367   Thumb Code     0  startup_stm32f427xx.o(.text)
    SPI2_IRQHandler                          0x08000367   Thumb Code     0  startup_stm32f427xx.o(.text)
    SPI3_IRQHandler                          0x08000367   Thumb Code     0  startup_stm32f427xx.o(.text)
    SPI4_IRQHandler                          0x08000367   Thumb Code     0  startup_stm32f427xx.o(.text)
    SPI5_IRQHandler                          0x08000367   Thumb Code     0  startup_stm32f427xx.o(.text)
    SPI6_IRQHandler                          0x08000367   Thumb Code     0  startup_stm32f427xx.o(.text)
    TAMP_STAMP_IRQHandler                    0x08000367   Thumb Code     0  startup_stm32f427xx.o(.text)
    TIM1_BRK_TIM9_IRQHandler                 0x08000367   Thumb Code     0  startup_stm32f427xx.o(.text)
    TIM1_CC_IRQHandler                       0x08000367   Thumb Code     0  startup_stm32f427xx.o(.text)
    TIM1_TRG_COM_TIM11_IRQHandler            0x08000367   Thumb Code     0  startup_stm32f427xx.o(.text)
    TIM1_UP_TIM10_IRQHandler                 0x08000367   Thumb Code     0  startup_stm32f427xx.o(.text)
    TIM2_IRQHandler                          0x08000367   Thumb Code     0  startup_stm32f427xx.o(.text)
    TIM3_IRQHandler                          0x08000367   Thumb Code     0  startup_stm32f427xx.o(.text)
    TIM4_IRQHandler                          0x08000367   Thumb Code     0  startup_stm32f427xx.o(.text)
    TIM5_IRQHandler                          0x08000367   Thumb Code     0  startup_stm32f427xx.o(.text)
    TIM6_DAC_IRQHandler                      0x08000367   Thumb Code     0  startup_stm32f427xx.o(.text)
    TIM8_BRK_TIM12_IRQHandler                0x08000367   Thumb Code     0  startup_stm32f427xx.o(.text)
    TIM8_CC_IRQHandler                       0x08000367   Thumb Code     0  startup_stm32f427xx.o(.text)
    TIM8_TRG_COM_TIM14_IRQHandler            0x08000367   Thumb Code     0  startup_stm32f427xx.o(.text)
    TIM8_UP_TIM13_IRQHandler                 0x08000367   Thumb Code     0  startup_stm32f427xx.o(.text)
    UART4_IRQHandler                         0x08000367   Thumb Code     0  startup_stm32f427xx.o(.text)
    UART5_IRQHandler                         0x08000367   Thumb Code     0  startup_stm32f427xx.o(.text)
    UART7_IRQHandler                         0x08000367   Thumb Code     0  startup_stm32f427xx.o(.text)
    USART2_IRQHandler                        0x08000367   Thumb Code     0  startup_stm32f427xx.o(.text)
    WWDG_IRQHandler                          0x08000367   Thumb Code     0  startup_stm32f427xx.o(.text)
    __user_initial_stackheap                 0x08000369   Thumb Code     0  startup_stm32f427xx.o(.text)
    __aeabi_uldivmod                         0x0800038d   Thumb Code     0  lludivv7m.o(.text)
    _ll_udiv                                 0x0800038d   Thumb Code   238  lludivv7m.o(.text)
    __aeabi_memcpy                           0x0800047b   Thumb Code     0  rt_memcpy_v6.o(.text)
    __rt_memcpy                              0x0800047b   Thumb Code   138  rt_memcpy_v6.o(.text)
    _memcpy_lastbytes                        0x080004e1   Thumb Code     0  rt_memcpy_v6.o(.text)
    __aeabi_memcpy4                          0x08000505   Thumb Code     0  rt_memcpy_w.o(.text)
    __aeabi_memcpy8                          0x08000505   Thumb Code     0  rt_memcpy_w.o(.text)
    __rt_memcpy_w                            0x08000505   Thumb Code   100  rt_memcpy_w.o(.text)
    _memcpy_lastbytes_aligned                0x0800054d   Thumb Code     0  rt_memcpy_w.o(.text)
    __aeabi_memclr4                          0x08000569   Thumb Code     0  rt_memclr_w.o(.text)
    __aeabi_memclr8                          0x08000569   Thumb Code     0  rt_memclr_w.o(.text)
    __rt_memclr_w                            0x08000569   Thumb Code    78  rt_memclr_w.o(.text)
    _memset_w                                0x0800056d   Thumb Code     0  rt_memclr_w.o(.text)
    __use_two_region_memory                  0x080005b7   Thumb Code     2  heapauxi.o(.text)
    __rt_heap_escrow                         0x080005b9   Thumb Code     2  heapauxi.o(.text)
    __rt_heap_expand                         0x080005bb   Thumb Code     2  heapauxi.o(.text)
    __user_libspace                          0x080005bd   Thumb Code     8  libspace.o(.text)
    __user_perproc_libspace                  0x080005bd   Thumb Code     0  libspace.o(.text)
    __user_perthread_libspace                0x080005bd   Thumb Code     0  libspace.o(.text)
    __I$use$semihosting                      0x080005c5   Thumb Code     0  use_no_semi.o(.text)
    __use_no_semihosting_swi                 0x080005c5   Thumb Code     2  use_no_semi.o(.text)
    __semihosting_library_function           0x080005c7   Thumb Code     0  indicate_semi.o(.text)
    __user_setup_stackheap                   0x080005c7   Thumb Code    74  sys_stackheap_outer.o(.text)
    exit                                     0x08000611   Thumb Code    18  exit.o(.text)
    _sys_exit                                0x08000625   Thumb Code     8  sys_exit.o(.text)
    BusFault_Handler                         0x08000631   Thumb Code     2  stm32f4xx_it.o(i.BusFault_Handler)
    CAN1_RX0_IRQHandler                      0x08000635   Thumb Code     6  stm32f4xx_it.o(i.CAN1_RX0_IRQHandler)
    CAN1_TX_IRQHandler                       0x08000641   Thumb Code     6  stm32f4xx_it.o(i.CAN1_TX_IRQHandler)
    CAN2_RX0_IRQHandler                      0x0800064d   Thumb Code     6  stm32f4xx_it.o(i.CAN2_RX0_IRQHandler)
    CAN2_TX_IRQHandler                       0x08000659   Thumb Code     6  stm32f4xx_it.o(i.CAN2_TX_IRQHandler)
    Callback_RC_Handle                       0x08000665   Thumb Code   164  remote.o(i.Callback_RC_Handle)
    DMA1_Stream1_IRQHandler                  0x08000711   Thumb Code     6  stm32f4xx_it.o(i.DMA1_Stream1_IRQHandler)
    DMA1_Stream4_IRQHandler                  0x0800071d   Thumb Code     6  stm32f4xx_it.o(i.DMA1_Stream4_IRQHandler)
    DMA1_Stream6_IRQHandler                  0x08000729   Thumb Code     6  stm32f4xx_it.o(i.DMA1_Stream6_IRQHandler)
    DMA2_Stream1_IRQHandler                  0x08000735   Thumb Code     6  stm32f4xx_it.o(i.DMA2_Stream1_IRQHandler)
    DMA2_Stream2_IRQHandler                  0x08000741   Thumb Code     6  stm32f4xx_it.o(i.DMA2_Stream2_IRQHandler)
    DebugMon_Handler                         0x080007f1   Thumb Code     2  stm32f4xx_it.o(i.DebugMon_Handler)
    EXTI0_IRQHandler                         0x080007f3   Thumb Code     6  stm32f4xx_it.o(i.EXTI0_IRQHandler)
    EXTI15_10_IRQHandler                     0x080007f9   Thumb Code    22  stm32f4xx_it.o(i.EXTI15_10_IRQHandler)
    EXTI2_IRQHandler                         0x0800080f   Thumb Code     6  stm32f4xx_it.o(i.EXTI2_IRQHandler)
    EXTI3_IRQHandler                         0x08000815   Thumb Code     6  stm32f4xx_it.o(i.EXTI3_IRQHandler)
    Error_Handler                            0x0800081b   Thumb Code     2  main.o(i.Error_Handler)
    GetModbusCRC16_Tab                       0x0800081d   Thumb Code    38  bsp_sensor.o(i.GetModbusCRC16_Tab)
    HAL_CAN_ActivateNotification             0x08000849   Thumb Code    36  stm32f4xx_hal_can.o(i.HAL_CAN_ActivateNotification)
    HAL_CAN_AddTxMessage                     0x0800086d   Thumb Code   200  stm32f4xx_hal_can.o(i.HAL_CAN_AddTxMessage)
    HAL_CAN_ConfigFilter                     0x08000935   Thumb Code   262  stm32f4xx_hal_can.o(i.HAL_CAN_ConfigFilter)
    HAL_CAN_ErrorCallback                    0x08000a41   Thumb Code     2  stm32f4xx_hal_can.o(i.HAL_CAN_ErrorCallback)
    HAL_CAN_GetRxMessage                     0x08000a43   Thumb Code   232  stm32f4xx_hal_can.o(i.HAL_CAN_GetRxMessage)
    HAL_CAN_IRQHandler                       0x08000b2b   Thumb Code   508  stm32f4xx_hal_can.o(i.HAL_CAN_IRQHandler)
    HAL_CAN_Init                             0x08000d27   Thumb Code   282  stm32f4xx_hal_can.o(i.HAL_CAN_Init)
    HAL_CAN_MspInit                          0x08000e41   Thumb Code   260  can.o(i.HAL_CAN_MspInit)
    HAL_CAN_RxFifo0FullCallback              0x08000f5d   Thumb Code     2  stm32f4xx_hal_can.o(i.HAL_CAN_RxFifo0FullCallback)
    HAL_CAN_RxFifo0MsgPendingCallback        0x08000f61   Thumb Code   236  bsp_can.o(i.HAL_CAN_RxFifo0MsgPendingCallback)
    HAL_CAN_RxFifo1FullCallback              0x08001061   Thumb Code     2  stm32f4xx_hal_can.o(i.HAL_CAN_RxFifo1FullCallback)
    HAL_CAN_RxFifo1MsgPendingCallback        0x08001063   Thumb Code     2  stm32f4xx_hal_can.o(i.HAL_CAN_RxFifo1MsgPendingCallback)
    HAL_CAN_SleepCallback                    0x08001065   Thumb Code     2  stm32f4xx_hal_can.o(i.HAL_CAN_SleepCallback)
    HAL_CAN_Start                            0x08001069   Thumb Code    88  stm32f4xx_hal_can.o(i.HAL_CAN_Start)
    HAL_CAN_TxMailbox0AbortCallback          0x080010c1   Thumb Code     2  stm32f4xx_hal_can.o(i.HAL_CAN_TxMailbox0AbortCallback)
    HAL_CAN_TxMailbox0CompleteCallback       0x080010c3   Thumb Code     2  stm32f4xx_hal_can.o(i.HAL_CAN_TxMailbox0CompleteCallback)
    HAL_CAN_TxMailbox1AbortCallback          0x080010c5   Thumb Code     2  stm32f4xx_hal_can.o(i.HAL_CAN_TxMailbox1AbortCallback)
    HAL_CAN_TxMailbox1CompleteCallback       0x080010c7   Thumb Code     2  stm32f4xx_hal_can.o(i.HAL_CAN_TxMailbox1CompleteCallback)
    HAL_CAN_TxMailbox2AbortCallback          0x080010c9   Thumb Code     2  stm32f4xx_hal_can.o(i.HAL_CAN_TxMailbox2AbortCallback)
    HAL_CAN_TxMailbox2CompleteCallback       0x080010cb   Thumb Code     2  stm32f4xx_hal_can.o(i.HAL_CAN_TxMailbox2CompleteCallback)
    HAL_CAN_WakeUpFromRxMsgCallback          0x080010cd   Thumb Code     2  stm32f4xx_hal_can.o(i.HAL_CAN_WakeUpFromRxMsgCallback)
    HAL_DMA_Abort                            0x080010cf   Thumb Code   142  stm32f4xx_hal_dma.o(i.HAL_DMA_Abort)
    HAL_DMA_Abort_IT                         0x0800115d   Thumb Code    36  stm32f4xx_hal_dma.o(i.HAL_DMA_Abort_IT)
    HAL_DMA_IRQHandler                       0x08001181   Thumb Code   412  stm32f4xx_hal_dma.o(i.HAL_DMA_IRQHandler)
    HAL_DMA_Init                             0x08001321   Thumb Code   206  stm32f4xx_hal_dma.o(i.HAL_DMA_Init)
    HAL_DMA_Start                            0x080013f5   Thumb Code    70  stm32f4xx_hal_dma.o(i.HAL_DMA_Start)
    HAL_DMA_Start_IT                         0x0800143b   Thumb Code   110  stm32f4xx_hal_dma.o(i.HAL_DMA_Start_IT)
    HAL_Delay                                0x080014a9   Thumb Code    32  stm32f4xx_hal.o(i.HAL_Delay)
    HAL_GPIO_EXTI_Callback                   0x080014cd   Thumb Code   404  bsp_sensor.o(i.HAL_GPIO_EXTI_Callback)
    HAL_GPIO_EXTI_IRQHandler                 0x08001679   Thumb Code    18  stm32f4xx_hal_gpio.o(i.HAL_GPIO_EXTI_IRQHandler)
    HAL_GPIO_Init                            0x08001691   Thumb Code   508  stm32f4xx_hal_gpio.o(i.HAL_GPIO_Init)
    HAL_GPIO_ReadPin                         0x080018c1   Thumb Code    10  stm32f4xx_hal_gpio.o(i.HAL_GPIO_ReadPin)
    HAL_GPIO_TogglePin                       0x080018cb   Thumb Code    16  stm32f4xx_hal_gpio.o(i.HAL_GPIO_TogglePin)
    HAL_GPIO_WritePin                        0x080018db   Thumb Code    10  stm32f4xx_hal_gpio.o(i.HAL_GPIO_WritePin)
    HAL_GetTick                              0x080018e5   Thumb Code     6  stm32f4xx_hal.o(i.HAL_GetTick)
    HAL_IncTick                              0x080018f1   Thumb Code    12  stm32f4xx_hal.o(i.HAL_IncTick)
    HAL_Init                                 0x08001901   Thumb Code    48  stm32f4xx_hal.o(i.HAL_Init)
    HAL_InitTick                             0x08001935   Thumb Code    54  stm32f4xx_hal.o(i.HAL_InitTick)
    HAL_MspInit                              0x08001975   Thumb Code    52  stm32f4xx_hal_msp.o(i.HAL_MspInit)
    HAL_NVIC_EnableIRQ                       0x080019ad   Thumb Code    26  stm32f4xx_hal_cortex.o(i.HAL_NVIC_EnableIRQ)
    HAL_NVIC_SetPriority                     0x080019c9   Thumb Code    60  stm32f4xx_hal_cortex.o(i.HAL_NVIC_SetPriority)
    HAL_NVIC_SetPriorityGrouping             0x08001a09   Thumb Code    26  stm32f4xx_hal_cortex.o(i.HAL_NVIC_SetPriorityGrouping)
    HAL_RCC_ClockConfig                      0x08001a2d   Thumb Code   288  stm32f4xx_hal_rcc.o(i.HAL_RCC_ClockConfig)
    HAL_RCC_GetPCLK1Freq                     0x08001b61   Thumb Code    20  stm32f4xx_hal_rcc.o(i.HAL_RCC_GetPCLK1Freq)
    HAL_RCC_GetPCLK2Freq                     0x08001b81   Thumb Code    20  stm32f4xx_hal_rcc.o(i.HAL_RCC_GetPCLK2Freq)
    HAL_RCC_GetSysClockFreq                  0x08001ba1   Thumb Code    88  stm32f4xx_hal_rcc.o(i.HAL_RCC_GetSysClockFreq)
    HAL_RCC_OscConfig                        0x08001c05   Thumb Code   856  stm32f4xx_hal_rcc.o(i.HAL_RCC_OscConfig)
    HAL_SYSTICK_Config                       0x08001f71   Thumb Code    40  stm32f4xx_hal_cortex.o(i.HAL_SYSTICK_Config)
    HAL_TIMEx_BreakCallback                  0x08001f99   Thumb Code     2  stm32f4xx_hal_tim_ex.o(i.HAL_TIMEx_BreakCallback)
    HAL_TIMEx_CommutCallback                 0x08001f9b   Thumb Code     2  stm32f4xx_hal_tim_ex.o(i.HAL_TIMEx_CommutCallback)
    HAL_TIMEx_MasterConfigSynchronization    0x08001f9d   Thumb Code   116  stm32f4xx_hal_tim_ex.o(i.HAL_TIMEx_MasterConfigSynchronization)
    HAL_TIM_Base_Init                        0x0800202d   Thumb Code    90  stm32f4xx_hal_tim.o(i.HAL_TIM_Base_Init)
    HAL_TIM_Base_MspInit                     0x08002089   Thumb Code    72  tim.o(i.HAL_TIM_Base_MspInit)
    HAL_TIM_Base_Start_IT                    0x080020dd   Thumb Code   100  stm32f4xx_hal_tim.o(i.HAL_TIM_Base_Start_IT)
    HAL_TIM_ConfigClockSource                0x0800215d   Thumb Code   214  stm32f4xx_hal_tim.o(i.HAL_TIM_ConfigClockSource)
    HAL_TIM_IC_CaptureCallback               0x08002233   Thumb Code     2  stm32f4xx_hal_tim.o(i.HAL_TIM_IC_CaptureCallback)
    HAL_TIM_IRQHandler                       0x08002235   Thumb Code   358  stm32f4xx_hal_tim.o(i.HAL_TIM_IRQHandler)
    HAL_TIM_MspPostInit                      0x0800239d   Thumb Code    70  tim.o(i.HAL_TIM_MspPostInit)
    HAL_TIM_OC_DelayElapsedCallback          0x080023f1   Thumb Code     2  stm32f4xx_hal_tim.o(i.HAL_TIM_OC_DelayElapsedCallback)
    HAL_TIM_PWM_ConfigChannel                0x080023f3   Thumb Code   198  stm32f4xx_hal_tim.o(i.HAL_TIM_PWM_ConfigChannel)
    HAL_TIM_PWM_Init                         0x080024b9   Thumb Code    90  stm32f4xx_hal_tim.o(i.HAL_TIM_PWM_Init)
    HAL_TIM_PWM_MspInit                      0x08002513   Thumb Code     2  stm32f4xx_hal_tim.o(i.HAL_TIM_PWM_MspInit)
    HAL_TIM_PWM_PulseFinishedCallback        0x08002515   Thumb Code     2  stm32f4xx_hal_tim.o(i.HAL_TIM_PWM_PulseFinishedCallback)
    HAL_TIM_PWM_Start                        0x08002519   Thumb Code   172  stm32f4xx_hal_tim.o(i.HAL_TIM_PWM_Start)
    HAL_TIM_PeriodElapsedCallback            0x080025e1   Thumb Code     2  stm32f4xx_hal_tim.o(i.HAL_TIM_PeriodElapsedCallback)
    HAL_TIM_TriggerCallback                  0x080025e3   Thumb Code     2  stm32f4xx_hal_tim.o(i.HAL_TIM_TriggerCallback)
    HAL_UARTEx_RxEventCallback               0x080025e5   Thumb Code     2  stm32f4xx_hal_uart.o(i.HAL_UARTEx_RxEventCallback)
    HAL_UART_DMAStop                         0x080025e7   Thumb Code    88  stm32f4xx_hal_uart.o(i.HAL_UART_DMAStop)
    HAL_UART_ErrorCallback                   0x0800263f   Thumb Code     2  stm32f4xx_hal_uart.o(i.HAL_UART_ErrorCallback)
    HAL_UART_IDLE_IRQHandler                 0x08002641   Thumb Code   210  usart.o(i.HAL_UART_IDLE_IRQHandler)
    HAL_UART_IRQHandler                      0x08002721   Thumb Code   522  stm32f4xx_hal_uart.o(i.HAL_UART_IRQHandler)
    HAL_UART_Init                            0x08002931   Thumb Code    98  stm32f4xx_hal_uart.o(i.HAL_UART_Init)
    HAL_UART_MspInit                         0x08002995   Thumb Code   672  usart.o(i.HAL_UART_MspInit)
    HAL_UART_Receive_DMA                     0x08002c6d   Thumb Code    42  stm32f4xx_hal_uart.o(i.HAL_UART_Receive_DMA)
    HAL_UART_Receive_IT_IDLE                 0x08002c97   Thumb Code    18  usart.o(i.HAL_UART_Receive_IT_IDLE)
    HAL_UART_RxCpltCallback                  0x08002ca9   Thumb Code     2  stm32f4xx_hal_uart.o(i.HAL_UART_RxCpltCallback)
    HAL_UART_RxHalfCpltCallback              0x08002cab   Thumb Code     2  stm32f4xx_hal_uart.o(i.HAL_UART_RxHalfCpltCallback)
    HAL_UART_Transmit                        0x08002cad   Thumb Code   178  stm32f4xx_hal_uart.o(i.HAL_UART_Transmit)
    HAL_UART_Transmit_DMA                    0x08002d61   Thumb Code   114  stm32f4xx_hal_uart.o(i.HAL_UART_Transmit_DMA)
    HAL_UART_TxCpltCallback                  0x08002de1   Thumb Code     2  stm32f4xx_hal_uart.o(i.HAL_UART_TxCpltCallback)
    HAL_UART_TxHalfCpltCallback              0x08002de3   Thumb Code     2  stm32f4xx_hal_uart.o(i.HAL_UART_TxHalfCpltCallback)
    HardFault_Handler                        0x08002de5   Thumb Code     2  stm32f4xx_it.o(i.HardFault_Handler)
    Keymos_control                           0x08002de9   Thumb Code  2082  remote.o(i.Keymos_control)
    MX_CAN1_Init                             0x08003629   Thumb Code    60  can.o(i.MX_CAN1_Init)
    MX_CAN2_Init                             0x0800366d   Thumb Code    60  can.o(i.MX_CAN2_Init)
    MX_DMA_Init                              0x080036b1   Thumb Code   120  dma.o(i.MX_DMA_Init)
    MX_FREERTOS_Init                         0x0800372d   Thumb Code   140  freertos.o(i.MX_FREERTOS_Init)
    MX_GPIO_Init                             0x080037c1   Thumb Code   414  gpio.o(i.MX_GPIO_Init)
    MX_TIM4_Init                             0x08003989   Thumb Code   148  tim.o(i.MX_TIM4_Init)
    MX_TIM7_Init                             0x08003a25   Thumb Code    60  tim.o(i.MX_TIM7_Init)
    MX_UART7_Init                            0x08003a69   Thumb Code    48  usart.o(i.MX_UART7_Init)
    MX_UART8_Init                            0x08003aa1   Thumb Code    48  usart.o(i.MX_UART8_Init)
    MX_USART1_UART_Init                      0x08003ad9   Thumb Code    50  usart.o(i.MX_USART1_UART_Init)
    MX_USART3_UART_Init                      0x08003b19   Thumb Code    48  usart.o(i.MX_USART3_UART_Init)
    MX_USART6_UART_Init                      0x08003b51   Thumb Code    48  usart.o(i.MX_USART6_UART_Init)
    MemManage_Handler                        0x08003b89   Thumb Code     2  stm32f4xx_it.o(i.MemManage_Handler)
    NMI_Handler                              0x08003b8b   Thumb Code     2  stm32f4xx_it.o(i.NMI_Handler)
    StartDefaultTask                         0x08003b8d   Thumb Code   106  freertos.o(i.StartDefaultTask)
    StartTask02                              0x08003c09   Thumb Code   648  freertos.o(i.StartTask02)
    StartTask03                              0x08003ec9   Thumb Code   582  freertos.o(i.StartTask03)
    StartTask04                              0x08004145   Thumb Code   204  freertos.o(i.StartTask04)
    StartTask05                              0x08004219   Thumb Code    40  freertos.o(i.StartTask05)
    StartTask06                              0x0800424d   Thumb Code    40  freertos.o(i.StartTask06)
    SysTick_Handler                          0x08004281   Thumb Code    24  stm32f4xx_it.o(i.SysTick_Handler)
    SystemClock_Config                       0x08004299   Thumb Code   124  main.o(i.SystemClock_Config)
    SystemInit                               0x0800431d   Thumb Code    22  system_stm32f4xx.o(i.SystemInit)
    TIM7_IRQHandler                          0x08004339   Thumb Code   412  stm32f4xx_it.o(i.TIM7_IRQHandler)
    TIM_Base_SetConfig                       0x080044f9   Thumb Code   156  stm32f4xx_hal_tim.o(i.TIM_Base_SetConfig)
    TIM_CCxChannelCmd                        0x080045c1   Thumb Code    26  stm32f4xx_hal_tim.o(i.TIM_CCxChannelCmd)
    TIM_ETR_SetConfig                        0x080045db   Thumb Code    20  stm32f4xx_hal_tim.o(i.TIM_ETR_SetConfig)
    TIM_OC2_SetConfig                        0x08004661   Thumb Code    98  stm32f4xx_hal_tim.o(i.TIM_OC2_SetConfig)
    UART8_IRQHandler                         0x080047cd   Thumb Code   130  stm32f4xx_it.o(i.UART8_IRQHandler)
    UART_Receive_DMA_NoIT                    0x080049b1   Thumb Code   120  usart.o(i.UART_Receive_DMA_NoIT)
    UART_Start_Receive_DMA                   0x08004be5   Thumb Code    98  stm32f4xx_hal_uart.o(i.UART_Start_Receive_DMA)
    USART1_IRQHandler                        0x08004cb9   Thumb Code     6  stm32f4xx_it.o(i.USART1_IRQHandler)
    USART3_IRQHandler                        0x08004cc5   Thumb Code   126  stm32f4xx_it.o(i.USART3_IRQHandler)
    USART6_IRQHandler                        0x08004d5d   Thumb Code   130  stm32f4xx_it.o(i.USART6_IRQHandler)
    UsageFault_Handler                       0x08004df9   Thumb Code     2  stm32f4xx_it.o(i.UsageFault_Handler)
    append_CRC16_check_sum                   0x08004e1d   Thumb Code    36  crc8_crc16.o(i.append_CRC16_check_sum)
    append_CRC8_check_sum                    0x08004e45   Thumb Code    28  crc8_crc16.o(i.append_CRC8_check_sum)
    can_filter_init                          0x08004e61   Thumb Code    80  bsp_can.o(i.can_filter_init)
    climode_check                            0x08004eb9   Thumb Code   110  remote.o(i.climode_check)
    fifo_s_get                               0x08004f2d   Thumb Code    44  fifo.o(i.fifo_s_get)
    fifo_s_init                              0x08004f59   Thumb Code    22  fifo.o(i.fifo_s_init)
    fifo_s_puts                              0x08004f6f   Thumb Code   124  fifo.o(i.fifo_s_puts)
    fifo_s_used                              0x08004feb   Thumb Code     4  fifo.o(i.fifo_s_used)
    get_CRC16_check_sum                      0x08004ff1   Thumb Code    38  crc8_crc16.o(i.get_CRC16_check_sum)
    get_CRC8_check_sum                       0x0800501d   Thumb Code    24  crc8_crc16.o(i.get_CRC8_check_sum)
    main                                     0x08005039   Thumb Code   488  main.o(i.main)
    osDelay                                  0x08005275   Thumb Code    14  cmsis_os.o(i.osDelay)
    osKernelStart                            0x08005283   Thumb Code    10  cmsis_os.o(i.osKernelStart)
    osThreadCreate                           0x0800528d   Thumb Code    84  cmsis_os.o(i.osThreadCreate)
    pid_calc                                 0x080052e1   Thumb Code   242  pid.o(i.pid_calc)
    pid_init                                 0x080053dd   Thumb Code    10  pid.o(i.pid_init)
    pvPortMalloc                             0x08005735   Thumb Code   216  heap_4.o(i.pvPortMalloc)
    pxPortInitialiseStack                    0x08005811   Thumb Code    40  port.o(i.pxPortInitialiseStack)
    referee_data_solve                       0x0800583d   Thumb Code   296  rc.o(i.referee_data_solve)
    referee_unpack_fifo_data                 0x0800596d   Thumb Code   254  rc.o(i.referee_unpack_fifo_data)
    set_motor_voltage_CAN1                   0x08005a71   Thumb Code    86  bsp_can.o(i.set_motor_voltage_CAN1)
    set_motor_voltage_CAN2                   0x08005acd   Thumb Code    86  bsp_can.o(i.set_motor_voltage_CAN2)
    state_check                              0x08005b29   Thumb Code   108  remote.o(i.state_check)
    ui_draw                                  0x08005ba1   Thumb Code   252  rc.o(i.ui_draw)
    usart3_init                              0x08005ca9   Thumb Code   160  bsp_usart.o(i.usart3_init)
    usart3_tx_dma_enable                     0x08005d61   Thumb Code    88  bsp_usart.o(i.usart3_tx_dma_enable)
    uxListRemove                             0x08005dc5   Thumb Code    38  list.o(i.uxListRemove)
    vApplicationGetIdleTaskMemory            0x08005ded   Thumb Code    16  freertos.o(i.vApplicationGetIdleTaskMemory)
    vListInitialise                          0x08005e01   Thumb Code    22  list.o(i.vListInitialise)
    vListInitialiseItem                      0x08005e17   Thumb Code     6  list.o(i.vListInitialiseItem)
    vListInsert                              0x08005e1d   Thumb Code    48  list.o(i.vListInsert)
    vListInsertEnd                           0x08005e4d   Thumb Code    24  list.o(i.vListInsertEnd)
    vPortEnterCritical                       0x08005e65   Thumb Code    54  port.o(i.vPortEnterCritical)
    vPortExitCritical                        0x08005ea5   Thumb Code    34  port.o(i.vPortExitCritical)
    vPortFree                                0x08005ecd   Thumb Code    94  heap_4.o(i.vPortFree)
    vPortSetupTimerInterrupt                 0x08005f31   Thumb Code    32  port.o(i.vPortSetupTimerInterrupt)
    vTaskDelay                               0x08005f55   Thumb Code    66  tasks.o(i.vTaskDelay)
    vTaskStartScheduler                      0x08005fa1   Thumb Code    90  tasks.o(i.vTaskStartScheduler)
    vTaskSuspendAll                          0x0800600d   Thumb Code    10  tasks.o(i.vTaskSuspendAll)
    vTaskSwitchContext                       0x0800601d   Thumb Code    82  tasks.o(i.vTaskSwitchContext)
    verify_CRC16_check_sum                   0x08006079   Thumb Code    54  crc8_crc16.o(i.verify_CRC16_check_sum)
    verify_CRC8_check_sum                    0x080060b5   Thumb Code    38  crc8_crc16.o(i.verify_CRC8_check_sum)
    xPortStartScheduler                      0x080060dd   Thumb Code   222  port.o(i.xPortStartScheduler)
    xPortSysTickHandler                      0x080061d1   Thumb Code    38  port.o(i.xPortSysTickHandler)
    xTaskCreate                              0x080061fd   Thumb Code    90  tasks.o(i.xTaskCreate)
    xTaskCreateStatic                        0x08006257   Thumb Code    86  tasks.o(i.xTaskCreateStatic)
    xTaskGetSchedulerState                   0x080062ad   Thumb Code    22  tasks.o(i.xTaskGetSchedulerState)
    xTaskIncrementTick                       0x080062c9   Thumb Code   194  tasks.o(i.xTaskIncrementTick)
    xTaskResumeAll                           0x08006395   Thumb Code   182  tasks.o(i.xTaskResumeAll)
    _fp_init                                 0x08006459   Thumb Code    10  fpinit.o(x$fpl$fpinit)
    __fplib_config_fpu_vfp                   0x08006461   Thumb Code     0  fpinit.o(x$fpl$fpinit)
    __fplib_config_pureend_doubles           0x08006461   Thumb Code     0  fpinit.o(x$fpl$fpinit)
    AHBPrescTable                            0x08006514   Data          16  system_stm32f4xx.o(.constdata)
    APBPrescTable                            0x08006524   Data           8  system_stm32f4xx.o(.constdata)
    TabH                                     0x0800652c   Data         256  bsp_sensor.o(.constdata)
    TabL                                     0x0800662c   Data         256  bsp_sensor.o(.constdata)
    CRC8_table                               0x0800672c   Data         256  crc8_crc16.o(.constdata)
    wCRC_table                               0x0800682c   Data         512  crc8_crc16.o(.constdata)
    Region$$Table$$Base                      0x08006a74   Number         0  anon$$obj.o(Region$$Table)
    Region$$Table$$Limit                     0x08006a94   Number         0  anon$$obj.o(Region$$Table)
    ctrl_mode                                0x20000000   Data           1  main.o(.data)
    Eye_pwmval                               0x20000002   Data           2  main.o(.data)
    remled_cnt                               0x20000004   Data           2  main.o(.data)
    color_ID                                 0x20000008   Data           2  freertos.o(.data)
    robot_ID                                 0x2000000a   Data           2  freertos.o(.data)
    defaultTaskHandle                        0x2000000c   Data           4  freertos.o(.data)
    myTask02Handle                           0x20000010   Data           4  freertos.o(.data)
    myTask03Handle                           0x20000014   Data           4  freertos.o(.data)
    myTask04Handle                           0x20000018   Data           4  freertos.o(.data)
    myTask05Handle                           0x2000001c   Data           4  freertos.o(.data)
    myTask06Handle                           0x20000020   Data           4  freertos.o(.data)
    uwTickFreq                               0x2000002c   Data           1  stm32f4xx_hal.o(.data)
    uwTickPrio                               0x20000030   Data           4  stm32f4xx_hal.o(.data)
    uwTick                                   0x20000034   Data           4  stm32f4xx_hal.o(.data)
    SystemCoreClock                          0x20000038   Data           4  system_stm32f4xx.o(.data)
    pxCurrentTCB                             0x2000003c   Data           4  tasks.o(.data)
    ring                                     0x200000a4   Data           2  bsp_can.o(.data)
    ring_flag                                0x200000a6   Data           2  bsp_can.o(.data)
    ring1                                    0x200000a8   Data           2  bsp_can.o(.data)
    ring_flag1                               0x200000aa   Data           2  bsp_can.o(.data)
    can_cnt                                  0x200000ac   Data           2  bsp_can.o(.data)
    flag_1                                   0x200000b0   Data           1  remote.o(.data)
    have_goal                                0x200000b1   Data           1  remote.o(.data)
    Goal_State                               0x200000b2   Data           1  remote.o(.data)
    SPEED_                                   0x200000b3   Data           1  remote.o(.data)
    biao_S                                   0x200000b4   Data           1  remote.o(.data)
    biao_C                                   0x200000b5   Data           1  remote.o(.data)
    biao_L                                   0x200000b6   Data           1  remote.o(.data)
    biao_L1                                  0x200000b7   Data           1  remote.o(.data)
    biao_x1                                  0x200000b8   Data           1  remote.o(.data)
    biao_R                                   0x200000b9   Data           1  remote.o(.data)
    biao_R1                                  0x200000ba   Data           1  remote.o(.data)
    visual                                   0x200000bb   Data           1  remote.o(.data)
    eye_cnt                                  0x200000bc   Data           1  remote.o(.data)
    key_SHIFT                                0x200000bd   Data           1  remote.o(.data)
    key_CTRL                                 0x200000be   Data           1  remote.o(.data)
    Q_speed                                  0x200000c0   Data           2  remote.o(.data)
    E_speed                                  0x200000c2   Data           2  remote.o(.data)
    Help_speed_R                             0x200000c4   Data           2  remote.o(.data)
    Help_speed_F                             0x200000c6   Data           2  remote.o(.data)
    PICH_err                                 0x200000c8   Data           2  remote.o(.data)
    YAW_err                                  0x200000ca   Data           2  remote.o(.data)
    PICH                                     0x200000cc   Data           2  remote.o(.data)
    YAW                                      0x200000ce   Data           2  remote.o(.data)
    HELP                                     0x200000d0   Data           2  remote.o(.data)
    W_speed                                  0x200000d2   Data           2  remote.o(.data)
    A_speed                                  0x200000d4   Data           2  remote.o(.data)
    S_speed                                  0x200000d6   Data           2  remote.o(.data)
    D_speed                                  0x200000d8   Data           2  remote.o(.data)
    Maxspd                                   0x200000da   Data           2  remote.o(.data)
    MODE                                     0x200000dc   Data           4  remote.o(.data)
    _3508_Speedmax                           0x200000e0   Data           4  remote.o(.data)
    Card                                     0x200000e4   Data           4  remote.o(.data)
    Maganize                                 0x200000e8   Data           4  remote.o(.data)
    Latest_Remote_Control_Pack_Time          0x200000ec   Data           4  remote.o(.data)
    speed_time                               0x200000f0   Data           4  remote.o(.data)
    mouse_time                               0x200000f4   Data           4  remote.o(.data)
    Bug_state                                0x200000f8   Data           8  remote.o(.data)
    CLAW_ANGLE                               0x20000100   Data           4  bsp_sensor.o(.data)
    PITCH_ANGLE                              0x20000104   Data           4  bsp_sensor.o(.data)
    CRC16_INIT                               0x20000108   Data           2  crc8_crc16.o(.data)
    game_result                              0x2000010c   Data           1  rc.o(.data)
    buff_musk_t                              0x2000010d   Data           1  rc.o(.data)
    robot_hurt_t                             0x2000010e   Data           1  rc.o(.data)
    referee_warning_t                        0x2000010f   Data           2  rc.o(.data)
    robot_energy_t                           0x20000111   Data           2  rc.o(.data)
    supply_projectile_booking_t              0x20000113   Data           3  rc.o(.data)
    field_event                              0x20000116   Data           4  rc.o(.data)
    supply_projectile_action_t               0x2000011a   Data           4  rc.o(.data)
    referee_receive_header                   0x2000011e   Data           5  rc.o(.data)
    bullet_remaining_t                       0x20000123   Data           6  rc.o(.data)
    student_interactive_data_t               0x20000129   Data           6  rc.o(.data)
    shoot_data_t                             0x2000012f   Data           7  rc.o(.data)
    ch_CAN1                                  0x20000138   Data          28  main.o(.bss)
    ch_CAN2                                  0x20000154   Data          28  main.o(.bss)
    motor_pid_CAN1                           0x20000170   Data         420  main.o(.bss)
    motor_pid_CAN2                           0x20000314   Data         420  main.o(.bss)
    RX6_BUFFER                               0x200004b8   Data          10  main.o(.bss)
    RX8_BUFFER                               0x200004c2   Data          10  main.o(.bss)
    buffer                                   0x200004cc   Data        1024  main.o(.bss)
    hcan1                                    0x20000b20   Data          40  can.o(.bss)
    hcan2                                    0x20000b48   Data          40  can.o(.bss)
    htim4                                    0x20000b70   Data          72  tim.o(.bss)
    htim7                                    0x20000bb8   Data          72  tim.o(.bss)
    UART_Buffer                              0x20000c00   Data         100  usart.o(.bss)
    huart7                                   0x20000c64   Data          68  usart.o(.bss)
    huart8                                   0x20000ca8   Data          68  usart.o(.bss)
    huart1                                   0x20000cec   Data          68  usart.o(.bss)
    huart3                                   0x20000d30   Data          68  usart.o(.bss)
    huart6                                   0x20000d74   Data          68  usart.o(.bss)
    hdma_uart8_rx                            0x20000db8   Data          96  usart.o(.bss)
    hdma_usart1_rx                           0x20000e18   Data          96  usart.o(.bss)
    hdma_usart3_rx                           0x20000e78   Data          96  usart.o(.bss)
    hdma_usart3_tx                           0x20000ed8   Data          96  usart.o(.bss)
    hdma_usart6_rx                           0x20000f38   Data          96  usart.o(.bss)
    motor_info                               0x20004c88   Data          72  bsp_can.o(.bss)
    motor_info1                              0x20004cd0   Data          72  bsp_can.o(.bss)
    Bug_ctrl                                 0x20004d18   Data          28  remote.o(.bss)
    Bug_client                               0x20004d34   Data          23  remote.o(.bss)
    remote_control                           0x20004d4c   Data          22  remote.o(.bss)
    usart3_buf                               0x20004d62   Data        1024  rc.o(.bss)
    referee_fifo                             0x20005164   Data          24  rc.o(.bss)
    referee_unpack_obj                       0x2000517c   Data         137  rc.o(.bss)
    game_state                               0x20005205   Data          11  rc.o(.bss)
    game_robot_HP_t                          0x20005210   Data          32  rc.o(.bss)
    robot_state                              0x20005230   Data          27  rc.o(.bss)
    power_heat_data_t                        0x2000524b   Data          16  rc.o(.bss)
    game_robot_pos_t                         0x2000525b   Data          16  rc.o(.bss)
    ui_data                                  0x2000526b   Data          30  rc.o(.bss)
    referee_fifo_buf                         0x20005289   Data        1024  rc.o(.bss)
    __libspace_start                         0x2000568c   Data          96  libspace.o(.bss)
    __temporary_stack_top$libspace           0x200056ec   Data           0  libspace.o(.bss)



==============================================================================

Memory Map of the image

  Image Entry point : 0x080001ad

  Load Region LR_IROM1 (Base: 0x08000000, Size: 0x00006bcc, Max: 0x00200000, ABSOLUTE, COMPRESSED[0x00006abc])

    Execution Region ER_IROM1 (Exec base: 0x08000000, Load base: 0x08000000, Size: 0x00006a94, Max: 0x00200000, ABSOLUTE)

    Exec Addr    Load Addr    Size         Type   Attr      Idx    E Section Name        Object

    0x08000000   0x08000000   0x000001ac   Data   RO            3    RESET               startup_stm32f427xx.o
    0x080001ac   0x080001ac   0x00000008   Code   RO         5575  * !!!main             c_w.l(__main.o)
    0x080001b4   0x080001b4   0x00000034   Code   RO         5790    !!!scatter          c_w.l(__scatter.o)
    0x080001e8   0x080001e8   0x0000005a   Code   RO         5788    !!dczerorl2         c_w.l(__dczerorl2.o)
    0x08000242   0x08000242   0x00000002   PAD
    0x08000244   0x08000244   0x0000001c   Code   RO         5792    !!handler_zi        c_w.l(__scatter_zi.o)
    0x08000260   0x08000260   0x00000002   Code   RO         5727    .ARM.Collect$$libinit$$00000000  c_w.l(libinit.o)
    0x08000262   0x08000262   0x00000004   Code   RO         5613    .ARM.Collect$$libinit$$00000001  c_w.l(libinit2.o)
    0x08000266   0x08000266   0x00000000   Code   RO         5616    .ARM.Collect$$libinit$$00000004  c_w.l(libinit2.o)
    0x08000266   0x08000266   0x00000000   Code   RO         5619    .ARM.Collect$$libinit$$0000000A  c_w.l(libinit2.o)
    0x08000266   0x08000266   0x00000000   Code   RO         5621    .ARM.Collect$$libinit$$0000000C  c_w.l(libinit2.o)
    0x08000266   0x08000266   0x00000000   Code   RO         5623    .ARM.Collect$$libinit$$0000000E  c_w.l(libinit2.o)
    0x08000266   0x08000266   0x00000000   Code   RO         5626    .ARM.Collect$$libinit$$00000011  c_w.l(libinit2.o)
    0x08000266   0x08000266   0x00000000   Code   RO         5628    .ARM.Collect$$libinit$$00000013  c_w.l(libinit2.o)
    0x08000266   0x08000266   0x00000000   Code   RO         5630    .ARM.Collect$$libinit$$00000015  c_w.l(libinit2.o)
    0x08000266   0x08000266   0x00000000   Code   RO         5632    .ARM.Collect$$libinit$$00000017  c_w.l(libinit2.o)
    0x08000266   0x08000266   0x00000000   Code   RO         5634    .ARM.Collect$$libinit$$00000019  c_w.l(libinit2.o)
    0x08000266   0x08000266   0x00000000   Code   RO         5636    .ARM.Collect$$libinit$$0000001B  c_w.l(libinit2.o)
    0x08000266   0x08000266   0x00000000   Code   RO         5638    .ARM.Collect$$libinit$$0000001D  c_w.l(libinit2.o)
    0x08000266   0x08000266   0x00000000   Code   RO         5640    .ARM.Collect$$libinit$$0000001F  c_w.l(libinit2.o)
    0x08000266   0x08000266   0x00000000   Code   RO         5642    .ARM.Collect$$libinit$$00000021  c_w.l(libinit2.o)
    0x08000266   0x08000266   0x00000000   Code   RO         5644    .ARM.Collect$$libinit$$00000023  c_w.l(libinit2.o)
    0x08000266   0x08000266   0x00000000   Code   RO         5646    .ARM.Collect$$libinit$$00000025  c_w.l(libinit2.o)
    0x08000266   0x08000266   0x00000000   Code   RO         5650    .ARM.Collect$$libinit$$0000002C  c_w.l(libinit2.o)
    0x08000266   0x08000266   0x00000000   Code   RO         5652    .ARM.Collect$$libinit$$0000002E  c_w.l(libinit2.o)
    0x08000266   0x08000266   0x00000000   Code   RO         5654    .ARM.Collect$$libinit$$00000030  c_w.l(libinit2.o)
    0x08000266   0x08000266   0x00000000   Code   RO         5656    .ARM.Collect$$libinit$$00000032  c_w.l(libinit2.o)
    0x08000266   0x08000266   0x00000002   Code   RO         5657    .ARM.Collect$$libinit$$00000033  c_w.l(libinit2.o)
    0x08000268   0x08000268   0x00000002   Code   RO         5785    .ARM.Collect$$libshutdown$$00000000  c_w.l(libshutdown.o)
    0x0800026a   0x0800026a   0x00000000   Code   RO         5743    .ARM.Collect$$libshutdown$$00000002  c_w.l(libshutdown2.o)
    0x0800026a   0x0800026a   0x00000000   Code   RO         5745    .ARM.Collect$$libshutdown$$00000004  c_w.l(libshutdown2.o)
    0x0800026a   0x0800026a   0x00000000   Code   RO         5748    .ARM.Collect$$libshutdown$$00000007  c_w.l(libshutdown2.o)
    0x0800026a   0x0800026a   0x00000000   Code   RO         5751    .ARM.Collect$$libshutdown$$0000000A  c_w.l(libshutdown2.o)
    0x0800026a   0x0800026a   0x00000000   Code   RO         5753    .ARM.Collect$$libshutdown$$0000000C  c_w.l(libshutdown2.o)
    0x0800026a   0x0800026a   0x00000000   Code   RO         5756    .ARM.Collect$$libshutdown$$0000000F  c_w.l(libshutdown2.o)
    0x0800026a   0x0800026a   0x00000002   Code   RO         5757    .ARM.Collect$$libshutdown$$00000010  c_w.l(libshutdown2.o)
    0x0800026c   0x0800026c   0x00000000   Code   RO         5579    .ARM.Collect$$rtentry$$00000000  c_w.l(__rtentry.o)
    0x0800026c   0x0800026c   0x00000000   Code   RO         5664    .ARM.Collect$$rtentry$$00000002  c_w.l(__rtentry2.o)
    0x0800026c   0x0800026c   0x00000006   Code   RO         5676    .ARM.Collect$$rtentry$$00000004  c_w.l(__rtentry4.o)
    0x08000272   0x08000272   0x00000000   Code   RO         5666    .ARM.Collect$$rtentry$$00000009  c_w.l(__rtentry2.o)
    0x08000272   0x08000272   0x00000004   Code   RO         5667    .ARM.Collect$$rtentry$$0000000A  c_w.l(__rtentry2.o)
    0x08000276   0x08000276   0x00000000   Code   RO         5669    .ARM.Collect$$rtentry$$0000000C  c_w.l(__rtentry2.o)
    0x08000276   0x08000276   0x00000008   Code   RO         5670    .ARM.Collect$$rtentry$$0000000D  c_w.l(__rtentry2.o)
    0x0800027e   0x0800027e   0x00000002   Code   RO         5730    .ARM.Collect$$rtexit$$00000000  c_w.l(rtexit.o)
    0x08000280   0x08000280   0x00000000   Code   RO         5761    .ARM.Collect$$rtexit$$00000002  c_w.l(rtexit2.o)
    0x08000280   0x08000280   0x00000004   Code   RO         5762    .ARM.Collect$$rtexit$$00000003  c_w.l(rtexit2.o)
    0x08000284   0x08000284   0x00000006   Code   RO         5763    .ARM.Collect$$rtexit$$00000004  c_w.l(rtexit2.o)
    0x0800028a   0x0800028a   0x00000002   PAD
    0x0800028c   0x0800028c   0x000000be   Code   RO         4814    .emb_text           port.o
    0x0800034a   0x0800034a   0x00000002   PAD
    0x0800034c   0x0800034c   0x00000040   Code   RO            4    .text               startup_stm32f427xx.o
    0x0800038c   0x0800038c   0x000000ee   Code   RO         5563    .text               c_w.l(lludivv7m.o)
    0x0800047a   0x0800047a   0x0000008a   Code   RO         5565    .text               c_w.l(rt_memcpy_v6.o)
    0x08000504   0x08000504   0x00000064   Code   RO         5567    .text               c_w.l(rt_memcpy_w.o)
    0x08000568   0x08000568   0x0000004e   Code   RO         5571    .text               c_w.l(rt_memclr_w.o)
    0x080005b6   0x080005b6   0x00000006   Code   RO         5573    .text               c_w.l(heapauxi.o)
    0x080005bc   0x080005bc   0x00000008   Code   RO         5660    .text               c_w.l(libspace.o)
    0x080005c4   0x080005c4   0x00000002   Code   RO         5699    .text               c_w.l(use_no_semi.o)
    0x080005c6   0x080005c6   0x00000000   Code   RO         5701    .text               c_w.l(indicate_semi.o)
    0x080005c6   0x080005c6   0x0000004a   Code   RO         5702    .text               c_w.l(sys_stackheap_outer.o)
    0x08000610   0x08000610   0x00000012   Code   RO         5708    .text               c_w.l(exit.o)
    0x08000622   0x08000622   0x00000002   PAD
    0x08000624   0x08000624   0x0000000c   Code   RO         5728    .text               c_w.l(sys_exit.o)
    0x08000630   0x08000630   0x00000002   Code   RO          581    i.BusFault_Handler  stm32f4xx_it.o
    0x08000632   0x08000632   0x00000002   PAD
    0x08000634   0x08000634   0x0000000c   Code   RO          582    i.CAN1_RX0_IRQHandler  stm32f4xx_it.o
    0x08000640   0x08000640   0x0000000c   Code   RO          583    i.CAN1_TX_IRQHandler  stm32f4xx_it.o
    0x0800064c   0x0800064c   0x0000000c   Code   RO          584    i.CAN2_RX0_IRQHandler  stm32f4xx_it.o
    0x08000658   0x08000658   0x0000000c   Code   RO          585    i.CAN2_TX_IRQHandler  stm32f4xx_it.o
    0x08000664   0x08000664   0x000000ac   Code   RO         5017    i.Callback_RC_Handle  remote.o
    0x08000710   0x08000710   0x0000000c   Code   RO          586    i.DMA1_Stream1_IRQHandler  stm32f4xx_it.o
    0x0800071c   0x0800071c   0x0000000c   Code   RO          587    i.DMA1_Stream4_IRQHandler  stm32f4xx_it.o
    0x08000728   0x08000728   0x0000000c   Code   RO          588    i.DMA1_Stream6_IRQHandler  stm32f4xx_it.o
    0x08000734   0x08000734   0x0000000c   Code   RO          589    i.DMA2_Stream1_IRQHandler  stm32f4xx_it.o
    0x08000740   0x08000740   0x0000000c   Code   RO          590    i.DMA2_Stream2_IRQHandler  stm32f4xx_it.o
    0x0800074c   0x0800074c   0x00000028   Code   RO         1526    i.DMA_CalcBaseAndBitshift  stm32f4xx_hal_dma.o
    0x08000774   0x08000774   0x00000054   Code   RO         1527    i.DMA_CheckFifoParam  stm32f4xx_hal_dma.o
    0x080007c8   0x080007c8   0x00000028   Code   RO         1528    i.DMA_SetConfig     stm32f4xx_hal_dma.o
    0x080007f0   0x080007f0   0x00000002   Code   RO          591    i.DebugMon_Handler  stm32f4xx_it.o
    0x080007f2   0x080007f2   0x00000006   Code   RO          592    i.EXTI0_IRQHandler  stm32f4xx_it.o
    0x080007f8   0x080007f8   0x00000016   Code   RO          593    i.EXTI15_10_IRQHandler  stm32f4xx_it.o
    0x0800080e   0x0800080e   0x00000006   Code   RO          594    i.EXTI2_IRQHandler  stm32f4xx_it.o
    0x08000814   0x08000814   0x00000006   Code   RO          595    i.EXTI3_IRQHandler  stm32f4xx_it.o
    0x0800081a   0x0800081a   0x00000002   Code   RO           13    i.Error_Handler     main.o
    0x0800081c   0x0800081c   0x0000002c   Code   RO         5108    i.GetModbusCRC16_Tab  bsp_sensor.o
    0x08000848   0x08000848   0x00000024   Code   RO          782    i.HAL_CAN_ActivateNotification  stm32f4xx_hal_can.o
    0x0800086c   0x0800086c   0x000000c8   Code   RO          783    i.HAL_CAN_AddTxMessage  stm32f4xx_hal_can.o
    0x08000934   0x08000934   0x0000010c   Code   RO          784    i.HAL_CAN_ConfigFilter  stm32f4xx_hal_can.o
    0x08000a40   0x08000a40   0x00000002   Code   RO          787    i.HAL_CAN_ErrorCallback  stm32f4xx_hal_can.o
    0x08000a42   0x08000a42   0x000000e8   Code   RO          790    i.HAL_CAN_GetRxMessage  stm32f4xx_hal_can.o
    0x08000b2a   0x08000b2a   0x000001fc   Code   RO          794    i.HAL_CAN_IRQHandler  stm32f4xx_hal_can.o
    0x08000d26   0x08000d26   0x0000011a   Code   RO          795    i.HAL_CAN_Init      stm32f4xx_hal_can.o
    0x08000e40   0x08000e40   0x0000011c   Code   RO          363    i.HAL_CAN_MspInit   can.o
    0x08000f5c   0x08000f5c   0x00000002   Code   RO          802    i.HAL_CAN_RxFifo0FullCallback  stm32f4xx_hal_can.o
    0x08000f5e   0x08000f5e   0x00000002   PAD
    0x08000f60   0x08000f60   0x00000100   Code   RO         4894    i.HAL_CAN_RxFifo0MsgPendingCallback  bsp_can.o
    0x08001060   0x08001060   0x00000002   Code   RO          804    i.HAL_CAN_RxFifo1FullCallback  stm32f4xx_hal_can.o
    0x08001062   0x08001062   0x00000002   Code   RO          805    i.HAL_CAN_RxFifo1MsgPendingCallback  stm32f4xx_hal_can.o
    0x08001064   0x08001064   0x00000002   Code   RO          806    i.HAL_CAN_SleepCallback  stm32f4xx_hal_can.o
    0x08001066   0x08001066   0x00000002   PAD
    0x08001068   0x08001068   0x00000058   Code   RO          807    i.HAL_CAN_Start     stm32f4xx_hal_can.o
    0x080010c0   0x080010c0   0x00000002   Code   RO          809    i.HAL_CAN_TxMailbox0AbortCallback  stm32f4xx_hal_can.o
    0x080010c2   0x080010c2   0x00000002   Code   RO          810    i.HAL_CAN_TxMailbox0CompleteCallback  stm32f4xx_hal_can.o
    0x080010c4   0x080010c4   0x00000002   Code   RO          811    i.HAL_CAN_TxMailbox1AbortCallback  stm32f4xx_hal_can.o
    0x080010c6   0x080010c6   0x00000002   Code   RO          812    i.HAL_CAN_TxMailbox1CompleteCallback  stm32f4xx_hal_can.o
    0x080010c8   0x080010c8   0x00000002   Code   RO          813    i.HAL_CAN_TxMailbox2AbortCallback  stm32f4xx_hal_can.o
    0x080010ca   0x080010ca   0x00000002   Code   RO          814    i.HAL_CAN_TxMailbox2CompleteCallback  stm32f4xx_hal_can.o
    0x080010cc   0x080010cc   0x00000002   Code   RO          816    i.HAL_CAN_WakeUpFromRxMsgCallback  stm32f4xx_hal_can.o
    0x080010ce   0x080010ce   0x0000008e   Code   RO         1529    i.HAL_DMA_Abort     stm32f4xx_hal_dma.o
    0x0800115c   0x0800115c   0x00000024   Code   RO         1530    i.HAL_DMA_Abort_IT  stm32f4xx_hal_dma.o
    0x08001180   0x08001180   0x000001a0   Code   RO         1534    i.HAL_DMA_IRQHandler  stm32f4xx_hal_dma.o
    0x08001320   0x08001320   0x000000d4   Code   RO         1535    i.HAL_DMA_Init      stm32f4xx_hal_dma.o
    0x080013f4   0x080013f4   0x00000046   Code   RO         1538    i.HAL_DMA_Start     stm32f4xx_hal_dma.o
    0x0800143a   0x0800143a   0x0000006e   Code   RO         1539    i.HAL_DMA_Start_IT  stm32f4xx_hal_dma.o
    0x080014a8   0x080014a8   0x00000024   Code   RO         1966    i.HAL_Delay         stm32f4xx_hal.o
    0x080014cc   0x080014cc   0x000001ac   Code   RO         5109    i.HAL_GPIO_EXTI_Callback  bsp_sensor.o
    0x08001678   0x08001678   0x00000018   Code   RO         1421    i.HAL_GPIO_EXTI_IRQHandler  stm32f4xx_hal_gpio.o
    0x08001690   0x08001690   0x00000230   Code   RO         1422    i.HAL_GPIO_Init     stm32f4xx_hal_gpio.o
    0x080018c0   0x080018c0   0x0000000a   Code   RO         1424    i.HAL_GPIO_ReadPin  stm32f4xx_hal_gpio.o
    0x080018ca   0x080018ca   0x00000010   Code   RO         1425    i.HAL_GPIO_TogglePin  stm32f4xx_hal_gpio.o
    0x080018da   0x080018da   0x0000000a   Code   RO         1426    i.HAL_GPIO_WritePin  stm32f4xx_hal_gpio.o
    0x080018e4   0x080018e4   0x0000000c   Code   RO         1974    i.HAL_GetTick       stm32f4xx_hal.o
    0x080018f0   0x080018f0   0x00000010   Code   RO         1980    i.HAL_IncTick       stm32f4xx_hal.o
    0x08001900   0x08001900   0x00000034   Code   RO         1981    i.HAL_Init          stm32f4xx_hal.o
    0x08001934   0x08001934   0x00000040   Code   RO         1982    i.HAL_InitTick      stm32f4xx_hal.o
    0x08001974   0x08001974   0x00000038   Code   RO          757    i.HAL_MspInit       stm32f4xx_hal_msp.o
    0x080019ac   0x080019ac   0x0000001a   Code   RO         1829    i.HAL_NVIC_EnableIRQ  stm32f4xx_hal_cortex.o
    0x080019c6   0x080019c6   0x00000002   PAD
    0x080019c8   0x080019c8   0x00000040   Code   RO         1835    i.HAL_NVIC_SetPriority  stm32f4xx_hal_cortex.o
    0x08001a08   0x08001a08   0x00000024   Code   RO         1836    i.HAL_NVIC_SetPriorityGrouping  stm32f4xx_hal_cortex.o
    0x08001a2c   0x08001a2c   0x00000134   Code   RO         1016    i.HAL_RCC_ClockConfig  stm32f4xx_hal_rcc.o
    0x08001b60   0x08001b60   0x00000020   Code   RO         1023    i.HAL_RCC_GetPCLK1Freq  stm32f4xx_hal_rcc.o
    0x08001b80   0x08001b80   0x00000020   Code   RO         1024    i.HAL_RCC_GetPCLK2Freq  stm32f4xx_hal_rcc.o
    0x08001ba0   0x08001ba0   0x00000064   Code   RO         1025    i.HAL_RCC_GetSysClockFreq  stm32f4xx_hal_rcc.o
    0x08001c04   0x08001c04   0x0000036c   Code   RO         1028    i.HAL_RCC_OscConfig  stm32f4xx_hal_rcc.o
    0x08001f70   0x08001f70   0x00000028   Code   RO         1840    i.HAL_SYSTICK_Config  stm32f4xx_hal_cortex.o
    0x08001f98   0x08001f98   0x00000002   Code   RO         2935    i.HAL_TIMEx_BreakCallback  stm32f4xx_hal_tim_ex.o
    0x08001f9a   0x08001f9a   0x00000002   Code   RO         2936    i.HAL_TIMEx_CommutCallback  stm32f4xx_hal_tim_ex.o
    0x08001f9c   0x08001f9c   0x00000090   Code   RO         2954    i.HAL_TIMEx_MasterConfigSynchronization  stm32f4xx_hal_tim_ex.o
    0x0800202c   0x0800202c   0x0000005a   Code   RO         2231    i.HAL_TIM_Base_Init  stm32f4xx_hal_tim.o
    0x08002086   0x08002086   0x00000002   PAD
    0x08002088   0x08002088   0x00000054   Code   RO          436    i.HAL_TIM_Base_MspInit  tim.o
    0x080020dc   0x080020dc   0x00000080   Code   RO         2236    i.HAL_TIM_Base_Start_IT  stm32f4xx_hal_tim.o
    0x0800215c   0x0800215c   0x000000d6   Code   RO         2240    i.HAL_TIM_ConfigClockSource  stm32f4xx_hal_tim.o
    0x08002232   0x08002232   0x00000002   Code   RO         2265    i.HAL_TIM_IC_CaptureCallback  stm32f4xx_hal_tim.o
    0x08002234   0x08002234   0x00000166   Code   RO         2279    i.HAL_TIM_IRQHandler  stm32f4xx_hal_tim.o
    0x0800239a   0x0800239a   0x00000002   PAD
    0x0800239c   0x0800239c   0x00000054   Code   RO          437    i.HAL_TIM_MspPostInit  tim.o
    0x080023f0   0x080023f0   0x00000002   Code   RO         2282    i.HAL_TIM_OC_DelayElapsedCallback  stm32f4xx_hal_tim.o
    0x080023f2   0x080023f2   0x000000c6   Code   RO         2303    i.HAL_TIM_PWM_ConfigChannel  stm32f4xx_hal_tim.o
    0x080024b8   0x080024b8   0x0000005a   Code   RO         2306    i.HAL_TIM_PWM_Init  stm32f4xx_hal_tim.o
    0x08002512   0x08002512   0x00000002   Code   RO         2308    i.HAL_TIM_PWM_MspInit  stm32f4xx_hal_tim.o
    0x08002514   0x08002514   0x00000002   Code   RO         2309    i.HAL_TIM_PWM_PulseFinishedCallback  stm32f4xx_hal_tim.o
    0x08002516   0x08002516   0x00000002   PAD
    0x08002518   0x08002518   0x000000c8   Code   RO         2311    i.HAL_TIM_PWM_Start  stm32f4xx_hal_tim.o
    0x080025e0   0x080025e0   0x00000002   Code   RO         2317    i.HAL_TIM_PeriodElapsedCallback  stm32f4xx_hal_tim.o
    0x080025e2   0x080025e2   0x00000002   Code   RO         2322    i.HAL_TIM_TriggerCallback  stm32f4xx_hal_tim.o
    0x080025e4   0x080025e4   0x00000002   Code   RO         3213    i.HAL_UARTEx_RxEventCallback  stm32f4xx_hal_uart.o
    0x080025e6   0x080025e6   0x00000058   Code   RO         3225    i.HAL_UART_DMAStop  stm32f4xx_hal_uart.o
    0x0800263e   0x0800263e   0x00000002   Code   RO         3227    i.HAL_UART_ErrorCallback  stm32f4xx_hal_uart.o
    0x08002640   0x08002640   0x000000e0   Code   RO          489    i.HAL_UART_IDLE_IRQHandler  usart.o
    0x08002720   0x08002720   0x00000210   Code   RO         3230    i.HAL_UART_IRQHandler  stm32f4xx_hal_uart.o
    0x08002930   0x08002930   0x00000062   Code   RO         3231    i.HAL_UART_Init     stm32f4xx_hal_uart.o
    0x08002992   0x08002992   0x00000002   PAD
    0x08002994   0x08002994   0x000002d8   Code   RO          491    i.HAL_UART_MspInit  usart.o
    0x08002c6c   0x08002c6c   0x0000002a   Code   RO         3235    i.HAL_UART_Receive_DMA  stm32f4xx_hal_uart.o
    0x08002c96   0x08002c96   0x00000012   Code   RO          492    i.HAL_UART_Receive_IT_IDLE  usart.o
    0x08002ca8   0x08002ca8   0x00000002   Code   RO         3237    i.HAL_UART_RxCpltCallback  stm32f4xx_hal_uart.o
    0x08002caa   0x08002caa   0x00000002   Code   RO         3238    i.HAL_UART_RxHalfCpltCallback  stm32f4xx_hal_uart.o
    0x08002cac   0x08002cac   0x000000b2   Code   RO         3239    i.HAL_UART_Transmit  stm32f4xx_hal_uart.o
    0x08002d5e   0x08002d5e   0x00000002   PAD
    0x08002d60   0x08002d60   0x00000080   Code   RO         3240    i.HAL_UART_Transmit_DMA  stm32f4xx_hal_uart.o
    0x08002de0   0x08002de0   0x00000002   Code   RO         3242    i.HAL_UART_TxCpltCallback  stm32f4xx_hal_uart.o
    0x08002de2   0x08002de2   0x00000002   Code   RO         3243    i.HAL_UART_TxHalfCpltCallback  stm32f4xx_hal_uart.o
    0x08002de4   0x08002de4   0x00000002   Code   RO          596    i.HardFault_Handler  stm32f4xx_it.o
    0x08002de6   0x08002de6   0x00000002   PAD
    0x08002de8   0x08002de8   0x00000840   Code   RO         5018    i.Keymos_control    remote.o
    0x08003628   0x08003628   0x00000044   Code   RO          364    i.MX_CAN1_Init      can.o
    0x0800366c   0x0800366c   0x00000044   Code   RO          365    i.MX_CAN2_Init      can.o
    0x080036b0   0x080036b0   0x0000007c   Code   RO          411    i.MX_DMA_Init       dma.o
    0x0800372c   0x0800372c   0x00000094   Code   RO          258    i.MX_FREERTOS_Init  freertos.o
    0x080037c0   0x080037c0   0x000001c8   Code   RO          230    i.MX_GPIO_Init      gpio.o
    0x08003988   0x08003988   0x0000009c   Code   RO          438    i.MX_TIM4_Init      tim.o
    0x08003a24   0x08003a24   0x00000044   Code   RO          439    i.MX_TIM7_Init      tim.o
    0x08003a68   0x08003a68   0x00000038   Code   RO          493    i.MX_UART7_Init     usart.o
    0x08003aa0   0x08003aa0   0x00000038   Code   RO          494    i.MX_UART8_Init     usart.o
    0x08003ad8   0x08003ad8   0x00000040   Code   RO          495    i.MX_USART1_UART_Init  usart.o
    0x08003b18   0x08003b18   0x00000038   Code   RO          496    i.MX_USART3_UART_Init  usart.o
    0x08003b50   0x08003b50   0x00000038   Code   RO          497    i.MX_USART6_UART_Init  usart.o
    0x08003b88   0x08003b88   0x00000002   Code   RO          597    i.MemManage_Handler  stm32f4xx_it.o
    0x08003b8a   0x08003b8a   0x00000002   Code   RO          598    i.NMI_Handler       stm32f4xx_it.o
    0x08003b8c   0x08003b8c   0x0000007c   Code   RO          259    i.StartDefaultTask  freertos.o
    0x08003c08   0x08003c08   0x000002c0   Code   RO          260    i.StartTask02       freertos.o
    0x08003ec8   0x08003ec8   0x0000027c   Code   RO          261    i.StartTask03       freertos.o
    0x08004144   0x08004144   0x000000d4   Code   RO          262    i.StartTask04       freertos.o
    0x08004218   0x08004218   0x00000034   Code   RO          263    i.StartTask05       freertos.o
    0x0800424c   0x0800424c   0x00000034   Code   RO          264    i.StartTask06       freertos.o
    0x08004280   0x08004280   0x00000018   Code   RO          599    i.SysTick_Handler   stm32f4xx_it.o
    0x08004298   0x08004298   0x00000084   Code   RO           14    i.SystemClock_Config  main.o
    0x0800431c   0x0800431c   0x0000001c   Code   RO         3560    i.SystemInit        system_stm32f4xx.o
    0x08004338   0x08004338   0x000001c0   Code   RO          600    i.TIM7_IRQHandler   stm32f4xx_it.o
    0x080044f8   0x080044f8   0x000000c8   Code   RO         2324    i.TIM_Base_SetConfig  stm32f4xx_hal_tim.o
    0x080045c0   0x080045c0   0x0000001a   Code   RO         2325    i.TIM_CCxChannelCmd  stm32f4xx_hal_tim.o
    0x080045da   0x080045da   0x00000014   Code   RO         2335    i.TIM_ETR_SetConfig  stm32f4xx_hal_tim.o
    0x080045ee   0x080045ee   0x00000010   Code   RO         2336    i.TIM_ITRx_SetConfig  stm32f4xx_hal_tim.o
    0x080045fe   0x080045fe   0x00000002   PAD
    0x08004600   0x08004600   0x00000060   Code   RO         2337    i.TIM_OC1_SetConfig  stm32f4xx_hal_tim.o
    0x08004660   0x08004660   0x0000006c   Code   RO         2338    i.TIM_OC2_SetConfig  stm32f4xx_hal_tim.o
    0x080046cc   0x080046cc   0x00000068   Code   RO         2339    i.TIM_OC3_SetConfig  stm32f4xx_hal_tim.o
    0x08004734   0x08004734   0x00000050   Code   RO         2340    i.TIM_OC4_SetConfig  stm32f4xx_hal_tim.o
    0x08004784   0x08004784   0x00000022   Code   RO         2342    i.TIM_TI1_ConfigInputStage  stm32f4xx_hal_tim.o
    0x080047a6   0x080047a6   0x00000024   Code   RO         2344    i.TIM_TI2_ConfigInputStage  stm32f4xx_hal_tim.o
    0x080047ca   0x080047ca   0x00000002   PAD
    0x080047cc   0x080047cc   0x0000009c   Code   RO          601    i.UART8_IRQHandler  stm32f4xx_it.o
    0x08004868   0x08004868   0x00000010   Code   RO         3244    i.UART_DMAAbortOnError  stm32f4xx_hal_uart.o
    0x08004878   0x08004878   0x0000004a   Code   RO         3245    i.UART_DMAError     stm32f4xx_hal_uart.o
    0x080048c2   0x080048c2   0x0000005a   Code   RO         3246    i.UART_DMAReceiveCplt  stm32f4xx_hal_uart.o
    0x0800491c   0x0800491c   0x0000001a   Code   RO         3248    i.UART_DMARxHalfCplt  stm32f4xx_hal_uart.o
    0x08004936   0x08004936   0x0000002e   Code   RO         3250    i.UART_DMATransmitCplt  stm32f4xx_hal_uart.o
    0x08004964   0x08004964   0x0000000a   Code   RO         3252    i.UART_DMATxHalfCplt  stm32f4xx_hal_uart.o
    0x0800496e   0x0800496e   0x00000030   Code   RO         3254    i.UART_EndRxTransfer  stm32f4xx_hal_uart.o
    0x0800499e   0x0800499e   0x00000012   Code   RO         3255    i.UART_EndTxTransfer  stm32f4xx_hal_uart.o
    0x080049b0   0x080049b0   0x00000078   Code   RO          498    i.UART_Receive_DMA_NoIT  usart.o
    0x08004a28   0x08004a28   0x000000ae   Code   RO         3256    i.UART_Receive_IT   stm32f4xx_hal_uart.o
    0x08004ad6   0x08004ad6   0x00000002   PAD
    0x08004ad8   0x08004ad8   0x0000010c   Code   RO         3257    i.UART_SetConfig    stm32f4xx_hal_uart.o
    0x08004be4   0x08004be4   0x00000070   Code   RO         3258    i.UART_Start_Receive_DMA  stm32f4xx_hal_uart.o
    0x08004c54   0x08004c54   0x00000064   Code   RO         3260    i.UART_WaitOnFlagUntilTimeout  stm32f4xx_hal_uart.o
    0x08004cb8   0x08004cb8   0x0000000c   Code   RO          602    i.USART1_IRQHandler  stm32f4xx_it.o
    0x08004cc4   0x08004cc4   0x00000098   Code   RO          603    i.USART3_IRQHandler  stm32f4xx_it.o
    0x08004d5c   0x08004d5c   0x0000009c   Code   RO          604    i.USART6_IRQHandler  stm32f4xx_it.o
    0x08004df8   0x08004df8   0x00000002   Code   RO          605    i.UsageFault_Handler  stm32f4xx_it.o
    0x08004dfa   0x08004dfa   0x00000020   Code   RO         1842    i.__NVIC_SetPriority  stm32f4xx_hal_cortex.o
    0x08004e1a   0x08004e1a   0x00000002   PAD
    0x08004e1c   0x08004e1c   0x00000028   Code   RO         5175    i.append_CRC16_check_sum  crc8_crc16.o
    0x08004e44   0x08004e44   0x0000001c   Code   RO         5176    i.append_CRC8_check_sum  crc8_crc16.o
    0x08004e60   0x08004e60   0x00000058   Code   RO         4895    i.can_filter_init   bsp_can.o
    0x08004eb8   0x08004eb8   0x00000074   Code   RO         5020    i.climode_check     remote.o
    0x08004f2c   0x08004f2c   0x0000002c   Code   RO         5250    i.fifo_s_get        fifo.o
    0x08004f58   0x08004f58   0x00000016   Code   RO         5253    i.fifo_s_init       fifo.o
    0x08004f6e   0x08004f6e   0x0000007c   Code   RO         5259    i.fifo_s_puts       fifo.o
    0x08004fea   0x08004fea   0x00000004   Code   RO         5261    i.fifo_s_used       fifo.o
    0x08004fee   0x08004fee   0x00000002   PAD
    0x08004ff0   0x08004ff0   0x0000002c   Code   RO         5177    i.get_CRC16_check_sum  crc8_crc16.o
    0x0800501c   0x0800501c   0x0000001c   Code   RO         5178    i.get_CRC8_check_sum  crc8_crc16.o
    0x08005038   0x08005038   0x00000230   Code   RO           15    i.main              main.o
    0x08005268   0x08005268   0x0000000c   Code   RO         4380    i.makeFreeRtosPriority  cmsis_os.o
    0x08005274   0x08005274   0x0000000e   Code   RO         4382    i.osDelay           cmsis_os.o
    0x08005282   0x08005282   0x0000000a   Code   RO         4385    i.osKernelStart     cmsis_os.o
    0x0800528c   0x0800528c   0x00000054   Code   RO         4419    i.osThreadCreate    cmsis_os.o
    0x080052e0   0x080052e0   0x000000fc   Code   RO         4974    i.pid_calc          pid.o
    0x080053dc   0x080053dc   0x0000000a   Code   RO         4976    i.pid_init          pid.o
    0x080053e6   0x080053e6   0x00000002   PAD
    0x080053e8   0x080053e8   0x00000070   Code   RO         4062    i.prvAddCurrentTaskToDelayedList  tasks.o
    0x08005458   0x08005458   0x000000d0   Code   RO         4063    i.prvAddNewTaskToReadyList  tasks.o
    0x08005528   0x08005528   0x00000034   Code   RO         4064    i.prvDeleteTCB      tasks.o
    0x0800555c   0x0800555c   0x0000004c   Code   RO         4747    i.prvHeapInit       heap_4.o
    0x080055a8   0x080055a8   0x00000060   Code   RO         4065    i.prvIdleTask       tasks.o
    0x08005608   0x08005608   0x00000098   Code   RO         4066    i.prvInitialiseNewTask  tasks.o
    0x080056a0   0x080056a0   0x0000004c   Code   RO         4748    i.prvInsertBlockIntoFreeList  heap_4.o
    0x080056ec   0x080056ec   0x00000020   Code   RO         4067    i.prvResetNextTaskUnblockTime  tasks.o
    0x0800570c   0x0800570c   0x00000028   Code   RO         4815    i.prvTaskExitError  port.o
    0x08005734   0x08005734   0x000000dc   Code   RO         4749    i.pvPortMalloc      heap_4.o
    0x08005810   0x08005810   0x0000002c   Code   RO         4816    i.pxPortInitialiseStack  port.o
    0x0800583c   0x0800583c   0x00000130   Code   RO         5447    i.referee_data_solve  rc.o
    0x0800596c   0x0800596c   0x00000104   Code   RO         5448    i.referee_unpack_fifo_data  rc.o
    0x08005a70   0x08005a70   0x0000005c   Code   RO         4897    i.set_motor_voltage_CAN1  bsp_can.o
    0x08005acc   0x08005acc   0x0000005c   Code   RO         4898    i.set_motor_voltage_CAN2  bsp_can.o
    0x08005b28   0x08005b28   0x00000078   Code   RO         5021    i.state_check       remote.o
    0x08005ba0   0x08005ba0   0x00000108   Code   RO         5449    i.ui_draw           rc.o
    0x08005ca8   0x08005ca8   0x000000b8   Code   RO         5144    i.usart3_init       bsp_usart.o
    0x08005d60   0x08005d60   0x00000064   Code   RO         5145    i.usart3_tx_dma_enable  bsp_usart.o
    0x08005dc4   0x08005dc4   0x00000026   Code   RO         3698    i.uxListRemove      list.o
    0x08005dea   0x08005dea   0x00000002   PAD
    0x08005dec   0x08005dec   0x00000014   Code   RO          265    i.vApplicationGetIdleTaskMemory  freertos.o
    0x08005e00   0x08005e00   0x00000016   Code   RO         3699    i.vListInitialise   list.o
    0x08005e16   0x08005e16   0x00000006   Code   RO         3700    i.vListInitialiseItem  list.o
    0x08005e1c   0x08005e1c   0x00000030   Code   RO         3701    i.vListInsert       list.o
    0x08005e4c   0x08005e4c   0x00000018   Code   RO         3702    i.vListInsertEnd    list.o
    0x08005e64   0x08005e64   0x00000040   Code   RO         4818    i.vPortEnterCritical  port.o
    0x08005ea4   0x08005ea4   0x00000028   Code   RO         4819    i.vPortExitCritical  port.o
    0x08005ecc   0x08005ecc   0x00000064   Code   RO         4750    i.vPortFree         heap_4.o
    0x08005f30   0x08005f30   0x00000024   Code   RO         4820    i.vPortSetupTimerInterrupt  port.o
    0x08005f54   0x08005f54   0x0000004c   Code   RO         4076    i.vTaskDelay        tasks.o
    0x08005fa0   0x08005fa0   0x0000006c   Code   RO         4089    i.vTaskStartScheduler  tasks.o
    0x0800600c   0x0800600c   0x00000010   Code   RO         4091    i.vTaskSuspendAll   tasks.o
    0x0800601c   0x0800601c   0x0000005c   Code   RO         4092    i.vTaskSwitchContext  tasks.o
    0x08006078   0x08006078   0x0000003c   Code   RO         5179    i.verify_CRC16_check_sum  crc8_crc16.o
    0x080060b4   0x080060b4   0x00000026   Code   RO         5180    i.verify_CRC8_check_sum  crc8_crc16.o
    0x080060da   0x080060da   0x00000002   PAD
    0x080060dc   0x080060dc   0x000000f4   Code   RO         4822    i.xPortStartScheduler  port.o
    0x080061d0   0x080061d0   0x0000002c   Code   RO         4823    i.xPortSysTickHandler  port.o
    0x080061fc   0x080061fc   0x0000005a   Code   RO         4095    i.xTaskCreate       tasks.o
    0x08006256   0x08006256   0x00000056   Code   RO         4096    i.xTaskCreateStatic  tasks.o
    0x080062ac   0x080062ac   0x0000001c   Code   RO         4100    i.xTaskGetSchedulerState  tasks.o
    0x080062c8   0x080062c8   0x000000cc   Code   RO         4103    i.xTaskIncrementTick  tasks.o
    0x08006394   0x08006394   0x000000c4   Code   RO         4109    i.xTaskResumeAll    tasks.o
    0x08006458   0x08006458   0x0000000a   Code   RO         5697    x$fpl$fpinit        fz_wm.l(fpinit.o)
    0x08006462   0x08006462   0x00000002   PAD
    0x08006464   0x08006464   0x000000a8   Data   RO          267    .constdata          freertos.o
    0x0800650c   0x0800650c   0x00000008   Data   RO         1541    .constdata          stm32f4xx_hal_dma.o
    0x08006514   0x08006514   0x00000010   Data   RO         3561    .constdata          system_stm32f4xx.o
    0x08006524   0x08006524   0x00000008   Data   RO         3562    .constdata          system_stm32f4xx.o
    0x0800652c   0x0800652c   0x00000200   Data   RO         5110    .constdata          bsp_sensor.o
    0x0800672c   0x0800672c   0x00000300   Data   RO         5182    .constdata          crc8_crc16.o
    0x08006a2c   0x08006a2c   0x00000048   Data   RO          268    .conststring        freertos.o
    0x08006a74   0x08006a74   0x00000020   Data   RO         5786    Region$$Table       anon$$obj.o


    Execution Region RW_IRAM2 (Exec base: 0x10000000, Load base: 0x08006abc, Size: 0x00000000, Max: 0x00010000, ABSOLUTE)

    **** No section assigned to this execution region ****


    Execution Region RW_IRAM1 (Exec base: 0x20000000, Load base: 0x08006a94, Size: 0x00005cf0, Max: 0x00030000, ABSOLUTE, COMPRESSED[0x00000028])

    Exec Addr    Load Addr    Size         Type   Attr      Idx    E Section Name        Object

    0x20000000   COMPRESSED   0x00000001   Data   RW           19    .data               main.o
    0x20000001   COMPRESSED   0x00000001   PAD
    0x20000002   COMPRESSED   0x00000002   Data   RW           20    .data               main.o
    0x20000004   COMPRESSED   0x00000002   Data   RW           21    .data               main.o
    0x20000006   COMPRESSED   0x00000002   PAD
    0x20000008   COMPRESSED   0x0000001c   Data   RW          269    .data               freertos.o
    0x20000024   COMPRESSED   0x00000004   Data   RW          367    .data               can.o
    0x20000028   COMPRESSED   0x00000002   Data   RW          606    .data               stm32f4xx_it.o
    0x2000002a   COMPRESSED   0x00000002   PAD
    0x2000002c   COMPRESSED   0x0000000c   Data   RW         1988    .data               stm32f4xx_hal.o
    0x20000038   COMPRESSED   0x00000004   Data   RW         3563    .data               system_stm32f4xx.o
    0x2000003c   COMPRESSED   0x0000003c   Data   RW         4112    .data               tasks.o
    0x20000078   COMPRESSED   0x00000020   Data   RW         4756    .data               heap_4.o
    0x20000098   COMPRESSED   0x0000000c   Data   RW         4824    .data               port.o
    0x200000a4   COMPRESSED   0x0000000a   Data   RW         4900    .data               bsp_can.o
    0x200000ae   COMPRESSED   0x00000002   PAD
    0x200000b0   COMPRESSED   0x00000050   Data   RW         5026    .data               remote.o
    0x20000100   COMPRESSED   0x00000004   Data   RW         5111    .data               bsp_sensor.o
    0x20000104   COMPRESSED   0x00000004   Data   RW         5112    .data               bsp_sensor.o
    0x20000108   COMPRESSED   0x00000002   Data   RW         5183    .data               crc8_crc16.o
    0x2000010a   COMPRESSED   0x0000002c   Data   RW         5453    .data               rc.o
    0x20000136   COMPRESSED   0x00000002   PAD
    0x20000138        -       0x0000001c   Zero   RW           16    .bss                main.o
    0x20000154        -       0x0000001c   Zero   RW           17    .bss                main.o
    0x20000170        -       0x0000075c   Zero   RW           18    .bss                main.o
    0x200008cc        -       0x00000254   Zero   RW          266    .bss                freertos.o
    0x20000b20        -       0x00000050   Zero   RW          366    .bss                can.o
    0x20000b70        -       0x00000090   Zero   RW          440    .bss                tim.o
    0x20000c00        -       0x00000064   Zero   RW          499    .bss                usart.o
    0x20000c64        -       0x00000334   Zero   RW          500    .bss                usart.o
    0x20000f98        -       0x000000f0   Zero   RW         4111    .bss                tasks.o
    0x20001088        -       0x00003c00   Zero   RW         4755    .bss                heap_4.o
    0x20004c88        -       0x00000090   Zero   RW         4899    .bss                bsp_can.o
    0x20004d18        -       0x0000004a   Zero   RW         5022    .bss                remote.o
    0x20004d62        -       0x00000400   Zero   RW         5450    .bss                rc.o
    0x20005162   COMPRESSED   0x00000002   PAD
    0x20005164        -       0x00000125   Zero   RW         5451    .bss                rc.o
    0x20005289        -       0x00000400   Zero   RW         5452    .bss                rc.o
    0x20005689   COMPRESSED   0x00000003   PAD
    0x2000568c        -       0x00000060   Zero   RW         5661    .bss                c_w.l(libspace.o)
    0x200056ec   COMPRESSED   0x00000004   PAD
    0x200056f0        -       0x00000200   Zero   RW            2    HEAP                startup_stm32f427xx.o
    0x200058f0        -       0x00000400   Zero   RW            1    STACK               startup_stm32f427xx.o


==============================================================================

Image component sizes


      Code (inc. data)   RO Data    RW Data    ZI Data      Debug   Object Name

       528         40          0         10        144       3973   bsp_can.o
       472         30        512          8          0       2450   bsp_sensor.o
       284         36          0          0          0       1697   bsp_usart.o
       420         40          0          4         80       2498   can.o
       120          0          0          0          0      23373   cmsis_os.o
       238         20        768          2          0       4924   crc8_crc16.o
       124          4          0          0          0        838   dma.o
         0          0          0          0          0      16924   event_groups.o
       194          0          0          0          0       8433   fifo.o
      1948        178        240         28        596      13691   freertos.o
       456         42          0          0          0       1211   gpio.o
       472         24          0         32      15360       7479   heap_4.o
       138          0          0          0          0       3598   list.o
       694         80          0          5       1940     786945   main.o
       262         10          0          0          0       1786   pid.o
       702         72          0         12          0      11092   port.o
       828         32          0         44       2341      10355   rc.o
      2520        112          0         80         74       7785   remote.o
        64         26        428          0       1536        852   startup_stm32f427xx.o
       180         28          0         12          0       9625   stm32f4xx_hal.o
      1638          6          0          0          0      14447   stm32f4xx_hal_can.o
       198         14          0          0          0      34003   stm32f4xx_hal_cortex.o
      1150         16          8          0          0       8302   stm32f4xx_hal_dma.o
       620         58          0          0          0       4183   stm32f4xx_hal_gpio.o
        56          4          0          0          0        854   stm32f4xx_hal_msp.o
      1348         76          0          0          0       5288   stm32f4xx_hal_rcc.o
      2010        136          0          0          0      17566   stm32f4xx_hal_tim.o
       148         28          0          0          0       2489   stm32f4xx_hal_tim_ex.o
      2056         44          0          0          0      18183   stm32f4xx_hal_uart.o
      1108        174          0          2          0      14163   stm32f4xx_it.o
         0          0          0          0          0        392   stream_buffer.o
        28          6         24          4          0       1155   system_stm32f4xx.o
      1548        118          0         60        240      20299   tasks.o
       392         42          0          0        144       3013   tim.o
      1378        116          0          0        920       7393   usart.o

    ----------------------------------------------------------------------
     24360       1612       2012        312      23380    1071259   Object Totals
         0          0         32          0          0          0   (incl. Generated)
        38          0          0          9          5          0   (incl. Padding)

    ----------------------------------------------------------------------

      Code (inc. data)   RO Data    RW Data    ZI Data      Debug   Library Member Name

        90          0          0          0          0          0   __dczerorl2.o
         8          0          0          0          0         68   __main.o
         0          0          0          0          0          0   __rtentry.o
        12          0          0          0          0          0   __rtentry2.o
         6          0          0          0          0          0   __rtentry4.o
        52          8          0          0          0          0   __scatter.o
        28          0          0          0          0          0   __scatter_zi.o
        18          0          0          0          0         80   exit.o
         6          0          0          0          0        152   heapauxi.o
         0          0          0          0          0          0   indicate_semi.o
         2          0          0          0          0          0   libinit.o
         6          0          0          0          0          0   libinit2.o
         2          0          0          0          0          0   libshutdown.o
         2          0          0          0          0          0   libshutdown2.o
         8          4          0          0         96         68   libspace.o
       238          0          0          0          0        100   lludivv7m.o
        78          0          0          0          0         80   rt_memclr_w.o
       138          0          0          0          0         68   rt_memcpy_v6.o
       100          0          0          0          0         80   rt_memcpy_w.o
         2          0          0          0          0          0   rtexit.o
        10          0          0          0          0          0   rtexit2.o
        12          4          0          0          0         68   sys_exit.o
        74          0          0          0          0         80   sys_stackheap_outer.o
         2          0          0          0          0         68   use_no_semi.o
        10          0          0          0          0        116   fpinit.o

    ----------------------------------------------------------------------
       912         16          0          0        100       1028   Library Totals
         8          0          0          0          4          0   (incl. Padding)

    ----------------------------------------------------------------------

      Code (inc. data)   RO Data    RW Data    ZI Data      Debug   Library Name

       894         16          0          0         96        912   c_w.l
        10          0          0          0          0        116   fz_wm.l

    ----------------------------------------------------------------------
       912         16          0          0        100       1028   Library Totals

    ----------------------------------------------------------------------

==============================================================================


      Code (inc. data)   RO Data    RW Data    ZI Data      Debug   

     25272       1628       2012        312      23480    1051123   Grand Totals
     25272       1628       2012         40      23480    1051123   ELF Image Totals (compressed)
     25272       1628       2012         40          0          0   ROM Totals

==============================================================================

    Total RO  Size (Code + RO Data)                27284 (  26.64kB)
    Total RW  Size (RW Data + ZI Data)             23792 (  23.23kB)
    Total ROM Size (Code + RO Data + RW Data)      27324 (  26.68kB)

==============================================================================

