:020000040800F2
:10000000B0090020C1010008AF2600084D230008F8
:10001000AD260008CD02000869300008000000008D
:10002000000000000000000000000000C1270008E0
:100030004D04000800000000B1260008C327000896
:10004000DB010008DB010008DB010008DB01000820
:10005000DB010008DB010008DB010008DB01000810
:10006000DB010008DB010008DB010008DB01000800
:10007000DB010008DB010008DB010008DB010008F0
:10008000DB010008DB010008DB010008DD020008DD
:10009000D1020008DB010008DB010008DB010008D9
:1000A000DB010008DB010008DB010008DB010008C0
:1000B000DB010008DB010008DB010008DB010008B0
:1000C000DB010008DB010008DB010008DB010008A0
:1000D000DB010008AD2F0008DB010008DB01000890
:1000E000DB010008DB010008DB010008DB01000880
:1000F000DB010008DB010008DB010008DB01000870
:10010000DB010008DB010008DB010008DB0100085F
:10011000DB010008DB010008DB010008692800089A
:10012000DB010008910300089D030008DB010008C3
:10013000DB010008DB010008DB010008F502000814
:10014000E9020008DB010008DB010008DB01000810
:10015000DB010008DB010008DB010008C52F0008F7
:10016000DB010008DB010008DB010008DB010008FF
:10017000DB010008DB010008DB01000800000000D3
:10018000DB010008DB010008DB010008DB010008DF
:10019000DB010008DB010008DB010008DB010008CF
:1001A0000000000000000000DB010008DFF80CD0B8
:1001B00000F07AF80048004701310008B00900203B
:1001C0000648804706480047FEE7FEE7FEE7FEE7F1
:1001D000FEE7FEE7FEE7FEE7FEE7FEE74D28000844
:1001E000AD0100082DE9F05F0546002092469B46D0
:1001F00088460646814640241BE02846414647463D
:10020000224600F041F853465A46C01A914110D395
:1002100011461846224600F028F82D1A67EB01080F
:100220004F4622460120002100F01FF817EB00097D
:100230004E41201EA4F10104DFDC484631462A4627
:100240004346BDE8F09FD2B201E000F8012B491E01
:10025000FBD270470022F6E710B513460A46044663
:100260001946FFF7F0FF204610BD202A04DB203A94
:1002700000FA02F1002070479140C2F1200320FAF9
:1002800003F3194390407047202A04DB203A21FAF7
:1002900002F00021704721FA02F3D040C2F120029F
:1002A0009140084319467047064C074D06E0E06848
:1002B00040F0010394E8070098471034AC42F6D3AD
:1002C000FFF778FFE833000808340008FEE7000075
:1002D000014800F042BA000080020020014800F00E
:1002E0003CBA000080020020014800F036BA00004D
:1002F000A8020020014800F030BA0000A802002047
:1003000010B50A88C2F30A02A2F5806202804A7818
:100310008B78D20842EA4312C2F30A02A2F5806245
:1003200042808A78CB78920942EA83020B7942EACA
:100330008322C2F30A02A2F5806282800A794B7995
:10034000520842EAC312C2F30A02A2F58062C280D6
:100350004A79920902724A79C2F301124272CA883A
:1003600042810A8982814A89C2810A7B02744A7B5E
:100370004274C989418200F07BFF044948618A695F
:10038000821AB2F5FA7F00D9886110BD20000020E2
:10039000014800F0D3BC000094040020014800F0A4
:1003A000CDBC00003404002001681823CAB2103A02
:1003B000B2FBF3F2054B6FF30901032A9B5CC365A3
:1003C00000D9091D8165084670470000C833000840
:1003D00010B5014600208B698A6A4FF0C07453B192
:1003E000B3F5005F15D072B1012A0CD0022A0AD0F1
:1003F000032A09D104E01AB1012A06D0022A03D146
:10040000C96AC90100D5012010BDC96AA142FAD04C
:1004100010BD002AF7D0012AF2D0022AF3D0032A15
:10042000F3D010BD30B50468256825F4802525601B
:10043000046863608368402B036803D09960006898
:10044000C26030BD9A600068C16030BD70477047BF
:1004500070B5084964200A685063096888630024FD
:100460004FF47A75284600F0FDFD641C052CF9DB7D
:1004700070BD0000D002002090F82020012A07D093
:10048000022A05D0416A41F480214162012070476F
:10049000006842690A43426100207047F0B590F855
:1004A00020500468A468012D05D0022D03D0416AB4
:1004B00041F4802153E014F0406F01D1E5004BD5A9
:1004C000C4F30164022C03D9416A41F4000146E0FF
:1004D0000125A5401D608D684FF4C0739DB1CE68A5
:1004E00035434E6845EAC605066803EB0417F55127
:1004F0004FF4C275076805EB04150E697E51097D3E
:10050000012905D009E00E88CD6845EA4655EBE79C
:1005100001684E5946F480764E511179D2F8055053
:100520004FF4C67641EA0525016806EB04168D51A5
:100530001178D2F801204FF4C47541EA0221026813
:1005400005EB04155151006803EB0411425842F0C9
:10055000010242500020F0BD416A41F400114162A5
:100560000120F0BD10B590F82020012A07D0022A02
:1005700005D0416A41F480214162012010BD3B4811
:10058000D0F8002242F00102C0F80022D0F8002288
:1005900022F47C52C0F80022D0F800224B6A42EAD2
:1005A0000322C0F800220A7D02F01F0301229A40B4
:1005B000D0F81C329343C0F81C32CB69B3B9D0F8E1
:1005C0000C329343C0F80C328C894B6864F31F43A0
:1005D0004C6900EBC404C4F840320C890B6864F326
:1005E0001F434C6900EBC404C4F84432CB69012BAF
:1005F00016D1D0F80C321343C0F80C320C884B687B
:1006000064F31F434C6900EBC404C4F840320C8906
:10061000CB6864F31F434C6900EBC404C4F8443254
:100620008B69002BD0F804320ED01343C0F804328B
:100630000B69002BD0F8143208D01343C0F81432E1
:10064000096A012904D008E09343EFE79343F5E7F3
:10065000D0F81C121143C0F81C12D0F8001221F07F
:100660000101C0F80012002010BD0000006400402D
:10067000704730B590F82040012C05D0022C03D0F3
:10068000416A41F480215DE00468002955D0246965
:10069000A40754D04FF4D874056804EB01142D5905
:1006A00015F00405956005682D594ED0ED0855608C
:1006B00005682C5904F00204D4604FF4DA7405681C
:1006C00004EB01142D5905F00F05156105682D592E
:1006D000C5F30725956105682C59240C54614FF426
:1006E000DC72046802EB0112A4581C700468A45860
:1006F000240A5C700468A458240C9C700468A258F6
:10070000120EDA704FF4DE72046802EB0112A45884
:100710001C710468A458240A5C710468A458240C51
:100720009C710468A258120EDA71006881B10169E7
:1007300041F020010161002030BDE468A8E7416A72
:1007400041F400114162012030BD6D0D1560AFE72D
:10075000C16841F02001C160EDE72DE9F05F054679
:10076000006800244669D0F804908768D0F80CB07F
:10077000D0F810A0D0F81880F10748D0F90714D0AD
:1007800001218160B80703D5284600F078FA0CE013
:10079000780702D54FF4006407E0380702D54FF41C
:1007A000805402E0284600F069FAF80516D5296859
:1007B0004FF480708860B80503D5284600F061FAD0
:1007C0000CE0780502D544F4005407E0380502D562
:1007D00044F4804402E0284600F052FAF80316D5AB
:1007E00029684FF480308860B80303D5284600F0AC
:1007F0004AFA0CE0780302D544F4004407E03803D9
:1008000002D544F4803402E0284600F03BFA300779
:1008100007D55FEACB6004D52968102044F4007442
:10082000C86070074FF0080707D55FEA0B7004D562
:100830002868C760284600F0A9F9B00706D52868DF
:10084000C068800702D0284600F0A2F9700607D5DC
:100850005FEACA6004D52968102044F48064086106
:10086000B00607D55FEA0A7004D5286807612846F4
:1008700000F0D4F9F00606D528680069800702D098
:10088000284600F0CCF9B00308D55FEAC96005D569
:10089000296810204860284600F0C2F9F00307D507
:1008A0005FEA097004D528684760284600F0ECF933
:1008B000300446D55FEA497040D5F00504D55FEABB
:1008C000C87001D044F00104B00504D55FEA887017
:1008D00001D544F00204700504D55FEA487001D5E3
:1008E00044F00404300529D518F0700F26D008F024
:1008F0007000402815D006DC102809D020280AD026
:10090000302816D10AE050280ED0602811D10EE010
:1009100044F008040DE044F010040AE044F0200420
:1009200007E044F0400404E044F0800401E044F4B3
:1009300080742868816921F0700181612968042030
:100940004860002C05D0686A204368622846FFF79B
:100950008FFEBDE8F09F70B5040003D094F820002E
:1009600010B104E0012070BD204600F081F820683D
:10097000016821F00201016000F07AFC05460526BD
:1009800004E000F075FC401B0A2811D8206840687C
:100990008007F6D42068016841F00101016000F091
:1009A00067FC05460BE000F063FC401B0A2806D9F3
:1009B000606A40F40030606284F82060D2E720680A
:1009C0004068C007EFD0207E0128206801683DD034
:1009D00021F080010160607E01282068016838D024
:1009E00021F040010160A07E01282068016833D019
:1009F00021F020010160E07E0128206801682ED0EE
:100A000041F010010160207F01282068016829D091
:100A100021F008010160607F01282068016824D06E
:100A200021F004010160D4E902010843D4E9041271
:100A3000114308436168491E08432168C8610020CA
:100A40006062012084F82000002070BD41F0800128
:100A5000C0E741F04001C5E741F02001CAE721F0BD
:100A60001001CFE741F00801D4E741F00401D9E7D4
:100A7000F0B587B0044614216846FFF7EBFB3E4B08
:100A80003E48DFF8F0E01968D4F800C03B4A03257F
:100A90000226092710300024491CF4452AD1196088
:100AA000012907D1016841F000710160006800F080
:100AB00000700590106840F0080010601068CDE9E3
:100AC000005600F00800CDE9047069462C48CDE9D5
:100AD000024500F0D9FA00221146132000F036FC3E
:100AE000132000F025FC00221146142000F02EFCFB
:100AF00014203BE0DFF88CE0F44539D1D0F800C099
:100B00004CF0806CC0F800C0D0F800C001290CF097
:100B1000806CCDF814C0196007D1016841F00071F4
:100B20000160006800F000700590106840F002005D
:100B30001060106802AB00F0020005904FF44050C6
:100B4000CDE9000683E8B00069460F4800F09CFA42
:100B5000002211463F2000F0F9FB3F2000F0E8FBA7
:100B600000221146402000F0F1FB402000F0E0FBA5
:100B700007B0F0BD0064004008000020303802409B
:100B8000000C024000680040000402407047000072
:100B900000B51D4A01688BB0914201D107AB03E05B
:100BA0001A4A914204D109AB6A460021FFF761FD60
:100BB00000991748A1F20121072917D20288C9B26A
:100BC000521C01EB410302801249BDF81C2001EBCD
:100BD000830152BA8A80BDF81E2052BACA80BDF87D
:100BE000202052BA0A819DF822208A720188B1F52C
:100BF000FA7F06D1002101800748016881F4804115
:100C000001600BB000BD00000064004000680040BF
:100C10001C000020F40400201414024070477047A8
:100C20007047000070B5044690F82000012804D0F9
:100C3000606A40F40020606218E0022084F820001E
:100C40002068016821F00101016000F011FB0546F8
:100C50000EE000BF00F00CFB401B0A2808D9606AB8
:100C600040F400306062052084F82000012070BD4F
:100C700020684068C007EDD1606270BD7047704762
:100C8000704770477047704770472DE9F041044640
:100C9000876D00F0EDFA064694F83500002502282D
:100CA00006D08020606584F834500120BDE8F081D2
:100CB0002068016821F0160101602068416921F077
:100CC00080014161206C08B9A06C20B120680168E6
:100CD00021F0080101602068016821F00101016034
:100CE0000BE000F0C5FA801B052806D920206065BE
:100CF00004F8345F03206070D8E720680068C007FC
:100D0000EFD194F85C103F208840B86004F8345F5D
:100D1000012060700020C9E790F83510022903D047
:100D20008021416501207047052180F83510006859
:100D3000016821F001010160002070472DE9F843AE
:100D400004464FF00009CDF8009063484FF4165167
:100D5000A56D0068B0FBF1F72E6894F85C100820D0
:100D600000FA01F131420FD021680A6852070BD511
:100D70000A6822F004020A6094F85C108840A860B7
:100D8000606D40F00100606594F85C104FF0010860
:100D900008FA01F0304208D021684969090604D5F3
:100DA000A860606D40F00200606594F85C1004205B
:100DB0008840304208D021680968890704D5A860B6
:100DC000606D40F00400606594F85C10102088406D
:100DD000304218D021680968090714D5A860206836
:100DE0000168490304D50068000308D5A16C07E039
:100DF0000168C90503D4016821F008010160216C74
:100E000009B12046884794F85C1020208840304281
:100E100031D021680968C9062DD5A86094F835003D
:100E200005282068016806D0490347D500680003FB
:100E30001DD4616C1CE021F016010160206841693D
:100E400021F080014161206C08B9A06C20B12068BC
:100E5000016821F00801016094F85C103F2088408F
:100E6000A86084F8349084F83580216D1FE0E16B30
:100E700009B120468847606D00282BD0606DC007FF
:100E800014D0052084F835002068016821F00101A4
:100E900001600098401C0090B84203D820680068A8
:100EA000C007F6D184F8349084F83580E16C0029CD
:100EB00010D001B02046BDE8F04308470168C905DD
:100EC000D5D4016821F01001016084F8349084F8D1
:100ED0003580CCE7BDE8F883180000202DE9F0410B
:100EE000044600F0C5F906465CB1002584F834508C
:100EF000022084F835002068016821F001010160BA
:100F00000DE00120BDE8F08100F0B2F9801B05285A
:100F100005D920206065032084F83500F2E72068B9
:100F20000068C007F0D12268116820480140D4E968
:100F300001031843D4E90336334318436369184364
:100F4000A3691843E3691843236A18430843616A95
:100F5000042903D1D4E90B13194308431060206816
:100F60004069666A20F0070130460E4301270428D5
:100F70000CD1A06A0643E06A40B12046FFF728FA88
:100F800020B14020606584F83570BAE7206846617A
:100F90002046FFF709FA94F85C203F2191408160D8
:100FA000656584F835700020ACE700003F8010F0E4
:100FB00070B5044690F83400002501280CD00120BB
:100FC00084F8340094F835600020012E06D084F8AF
:100FD00034000225284670BD022070BD022684F828
:100FE000356060652046FFF71DFA2068016841F012
:100FF00001010160EEE72DE9F0410446866D90F8AD
:101000003400002501280DD0012084F8340094F824
:1010100035700020012F07D084F8340002252846BF
:10102000BDE8F0810220FBE7022784F83570606597
:101030002046FFF7F7F994F85C103F208840B06035
:101040002068016841F016010160206C20B1206821
:10105000016841F0080101602068016841F0010168
:101060000160DCE770B5044600F002F90546601C3B
:1010700002D004480078044400F0FAF8401BA04273
:10108000FAD370BD0C0000202DE9F84F00224FF07C
:10109000010803254FF00F0E0B6808FA02F42340F5
:1010A000A3426ED14E68012E05D0022E03D0112E20
:1010B00001D0122E12D186684FEA420C05FA0CF7C5
:1010C000BE43CF6807FA0CF7374387604668A643EC
:1010D0000C79C4F30014944034434460C66857004C
:1010E00005FA07FC8C6826EA0C06BC403443C46051
:1010F0004C68022C01D0122C13D1D40800EB8404CC
:10110000A346D4F8209054074FEAD46A0EFA0AF6A0
:1011100029EA06090E6906FA0AF646EA0906CBF834
:10112000206004680E7924EA0C0406F00306BE4031
:10113000264306604C68E4006FD53B4C266846F4B5
:1011400080462660246822F0030604F4804400945C
:10115000364C3444A446D4F808489607360F0EFAA5
:1011600006F7BC43324FB84201D100272EE0314F81
:10117000B84201D1012729E02F4FB84202D10227FE
:1011800024E04AE02D4FB84201D103271EE02C4F46
:10119000B84201D1042719E02A4FB84201D10527EE
:1011A00014E0294FB84201D106270FE0274FB8427B
:1011B00001D107270AE0264FB84201D1082705E0F0
:1011C000244FB84201D1092700E00A27B74027433E
:1011D000CCF80878204E34684F689C43FF0300D554
:1011E0001C4334601C4E361D34684F689C43BF035B
:1011F00000D51C433460184E083634684F689C4351
:10120000FF0200D51C433460134E0C3634684F681F
:101210009C43BF0200D51C433460521C102AFFF4CB
:101220003BAFBDE8F88F0000443802400030014079
:10123000000002400004024000080240000C02408E
:10124000001002400014024000180240001C02403E
:101250000020024000240240003C01400069084098
:1012600000D0012070470AB1816170470904FBE793
:1012700001488068704700000C0000200248816827
:1012800002781144816070470C0000200B4810B5B3
:10129000016841F400710160016841F480610160FE
:1012A000016841F480710160032000F06FF80020B4
:1012B00000F006F800F024F8002010BD003C0240C9
:1012C00070B50D4D04464FF47A712878B1FBF0F0FB
:1012D0000A490968B1FBF0F000F004FB48B9102C92
:1012E00007D200222146501E00F030F800206C602A
:1012F00070BD012070BD00000C000020180000200F
:101300000A4808B5016841F480410160006800F4B2
:10131000804000900548001F016841F08051016045
:10132000006800F08050009008BD00004438024082
:10133000002809DB00F01F020121914040098000D4
:1013400000F1E020C0F8001170470000F0B40E4B2F
:101350001B680C46C3F30223C3F10705042D00D913
:101360000425191D072901D2002300E0DB1E0126F8
:1013700006FA05F1491E214099409E40761E16400E
:101380003143F0BC01F071BE0CED00E0064900F005
:10139000070208684FF6FF03184040EA0220034A9C
:1013A00010430860704700000CED00E00000FA05F3
:1013B0002DE9F0470E46050065D0DFF81481D8F816
:1013C0000000F7B200F00F00B04207D288F80070BA
:1013D000D8F8000000F00F00B04254D128683D4C0E
:1013E000810712D5400703D5206840F4E050206003
:1013F0002878000703D5206840F46040206020680A
:10140000A96820F0F000084320602878C0072DD09C
:10141000304968680839012812D0022813D00328FF
:1014200011D00968890700292DDA216821F003010C
:1014300001432160FFF71CFF814641F2883A0EE02C
:1014400009688903EFE709688901ECE7FFF710FFF6
:10145000A0EB0901514502D90320BDE8F0872068BF
:10146000696800F00C00B0EB810FEFD1D8F80010E4
:10147000404601F00F01B14207D90770006800F043
:101480000F00B04201D00120E7E72878400705D5DA
:101490002068E96820F4E0500843206028780007BD
:1014A00006D52068296920F4604040EAC100206028
:1014B00000F038F82168084AC1F30311515CC840B4
:1014C0000649086006480068FFF7FAFE0020C4E7F6
:1014D000003C024008380240D033000818000020C9
:1014E000100000200448054900680968044AC1F357
:1014F0008221515CC8407047180000200838024023
:10150000E03300080448054900680968044AC1F34B
:101510004231515CC8407047180000200838024032
:10152000E0330008154810B5006810F00C021448AC
:1015300013D01449042A0FD0082A0ED10F4C241FAF
:101540002268236802F03F025B0207D52068C0F3DF
:101550008810A0FB010106E0084610BD2168C1F318
:101560008811A1FB00010023FEF73CFE2168C1F3B6
:101570000141491C4900B0FBF1F010BD08380240A0
:101580000024F400001BB7002DE9F84F04006ED0D2
:101590002078DFF83C93C007A9F104054AD009F18F
:1015A00004000168C1F38101012908D00068C0F37B
:1015B000810002280AD1D9F80000400206D5286827
:1015C000800337D560680028E1D033E06068B0F56B
:1015D000803F10D0B0F5A02F286810D020F48030C4
:1015E0002860286820F4802028606068A8B1FFF790
:1015F0003FFE06460DE0286840F48030F4E740F4F2
:1016000080202860F7E700BFFFF732FE801B6428C8
:1016100073D828688003F7D50CE0FFF729FE06464B
:1016200005E000BFFFF724FE801B6428F0D828687F
:101630008003F7D42078DFF89C8280074FF0000AFF
:101640003ED5A348001D016811F00C0F08D00068BA
:10165000C0F3810002280BD1D9F80000400207D462
:101660002868800716D5E068012800D112E02BE138
:10167000E068B8B10120C8F80000FFF7F9FD0646A0
:1016800005E000BFFFF7F4FD801B0228C0D82868E2
:101690008007F7D52868216920F0F80040EAC100EA
:1016A00028600DE0C8F800A0FFF7E2FD064604E060
:1016B000FFF7DEFD801B02281FD828688007F7D4BB
:1016C0002078000722D5824E83486169703671B157
:1016D00001210160FFF7CCFD074604E0FFF7C8FDDC
:1016E000C01B022809D830688007F7D50EE0C0F883
:1016F00000A0FFF7BDFD074605E082E0FFF7B8FD5B
:10170000C01B02287DD830688007F7D420784007B6
:1017100068D5DFF8BCB100270BF13C0BDBF800000B
:10172000C0000BD4DBF8001041F08051CBF8001062
:10173000DBF80000012700F080500090674E306811
:10174000C00510D4306840F480703060FFF790FD21
:10175000009005E0FFF78CFD0099401A022850D850
:101760003068C005F6D55A4EA0686C3601280FD0F7
:101770000528306810D020F001003060306820F07B
:1017800004003060A068B8B1FFF772FD00900FE070
:10179000306840F00100F4E740F004003060F7E703
:1017A000FFF766FD0099411A41F28830814266D800
:1017B00030688007F4D50EE0FFF75AFD009007E08F
:1017C000FFF756FD0099411A41F28830814256D800
:1017D00030688007F4D42FB1DBF8001021F080517D
:1017E000CBF80010A069C8B33949091D0968C1F3D5
:1017F000810102294AD00228504607D0C8F860006B
:1018000000E03CE0FFF734FD04463BE04746C8F803
:101810006000FFF72DFD064605E000BFFFF728FD3D
:10182000801B02282BD828688001F7D4D4E907014F
:101830000843A16A2A4A490802EB0141626A41EA67
:101840008211084394F82C1040EA0161C9F8001095
:1018500001203866FFF70CFD044606E036E000BFC5
:10186000FFF706FD001B022809D828688001F7D57C
:101870002CE000BFFFF7FCFC001B022802D903206C
:10188000BDE8F88F28688001F4D41FE00128F7D064
:10189000D9F80000E26900F48001914214D1226A73
:1018A00000F03F0191420FD147F6C071626A0140DA
:1018B000914209D1A26A00F44031914204D1E16A17
:1018C00000F07060884201D00120D9E70020D7E7FE
:1018D0000438024000004742800E4742007000403A
:1018E0000000FFFF10B5401EB0F1807F01D3012042
:1018F00010BD4FF0E02460610F21601701F0B5FBCF
:101900000020A06107202061002010BD70477047B3
:1019100070B590F83C20012A32D0012480F83C4078
:10192000022280F83D2003685A689D6822F0700604
:101930000A6832435A60134B02689A4214D0B2F1DB
:10194000804F11D0104B9A420ED0104B9A420BD0C0
:101950000F4B9A4208D00F4B9A4205D00E4B9A4239
:1019600002D00E4B9A4204D1496825F080031943F6
:10197000916080F83D40002180F83C10084670BD21
:10198000022070BD0000014000040040000800403B
:10199000000C0040000401400040014000180040DD
:1019A00010B5040003D094F83D0010B107E0012009
:1019B00010BD002084F83C00204600F00DF8022005
:1019C00084F83D00211D206800F0B6FF012084F856
:1019D0003D00002010BD000008B5114A0168114803
:1019E000914208D1016841F004010160006800F0F3
:1019F0000400009008BD0C4A9142FBD1016841F0FF
:101A0000200101600068002200F0200000901146D3
:101A10003720FFF79BFCBDE808403720FFF788BC64
:101A20000008004040380240001400400168CA68C5
:101A300042F00102CA600068816801F007010629CE
:101A400003D0016841F0010101600020704770B5CA
:101A5000044690F83C00012817D0012584F83C503A
:101A6000022084F83D002068826822F0770222F488
:101A70007F4282600868502830D00DDC20284DD08D
:101A800005DC98B310283BD148E0022070BD302817
:101A900044D0402834D139E0602828D0702806D0BE
:101AA000B0F5805F2CD0B0F5005F29D10AE0CB689B
:101AB000D1E90121206800F0B0FF2068816841F081
:101AC000770109E0CB68D1E90121206800F0A5FF8A
:101AD0002068816841F48041816011E0CA684968EA
:101AE000206801F06FF85021206807E016E0CA680E
:101AF0004968206801F077F86021206800F097FFBE
:101B000084F83D50002084F83C0070BDCA684968E4
:101B1000206801F057F840212068EFE7226801466D
:101B20001046EBE7704770B50446006801694FF056
:101B30000005C943890715D4C168C943890711D471
:101B4000E91E016101202077206880698007204616
:101B500002D0FFF7E7FF04E000F0C2F8204600F0F3
:101B600044F9257720680169C943490717D4C1683A
:101B7000C943490713D46FF00401016102202077A3
:101B80002068806910F4407F204602D0FFF7CAFF2A
:101B900004E000F0A5F8204600F027F9257720683A
:101BA0000169C943090716D4C168C943090712D49A
:101BB0006FF008010161042020772068C069800768
:101BC000204602D0FFF7AEFF04E000F089F820467F
:101BD00000F00BF9257720680169C943C90617D4BD
:101BE000C168C943C90613D46FF010010161082010
:101BF00020772068C06910F4407F204602D0FFF7AC
:101C000091FF04E000F06CF8204600F0EEF8257734
:101C100020680169C943C90708D1C168C943C90718
:101C200004D1891E0161204600F002F92068016993
:101C3000C943090609D4C168C943090605D46FF030
:101C4000800101612046FFF761FE20680169C943F8
:101C5000490609D4C168C943490605D46FF040015B
:101C60000161204600F0E5F820680169C943890652
:101C70000BD4C168C943890607D46FF02001016104
:101C80002046BDE87040FFF742BE70BD10B586B07B
:101C9000044614216846FEF7DDFA0E4920688842A2
:101CA00015D10D480021026842F008020260006868
:101CB00000F0080005904FF4704000900220CDE93C
:101CC0000101CDE9031069460448FFF7DDF906B0CC
:101CD00010BD00000008004030380240000C0240F7
:101CE000704770B5044690F83C000D4601280DD0B1
:101CF000012684F83C60022084F83D0042B1042AA9
:101D000018D0082A2AD00C2A4DD139E0022070BD03
:101D1000206800F095FE2068816941F0080181612A
:101D20002068816921F004018161206881692A6944
:101D3000114311E0206800F0B3FE2068816941F48E
:101D4000006181612068816921F48061816120687E
:101D500081692A6941EA0221816124E0206800F05A
:101D6000D5FE2068C16941F00801C1612068C169E0
:101D700021F00401C1612068C1692A69114311E0A1
:101D8000206800F0F7FE2068C16941F40061C1617C
:101D90002068C16921F48061C1612068C1692A6934
:101DA00041EA0221C16184F83D60002084F83C00D2
:101DB00070BD10B5040003D094F83D0010B107E0E9
:101DC000012010BD002084F83C00204600F00CF8F3
:101DD000022084F83D00211D206800F0ADFD0120A7
:101DE00084F83D00002010BD7047704710B50446D0
:101DF0000068012200F004FE0B492068884202D0EE
:101E00000A49884203D1416C41F400414164206891
:101E1000816801F00701062903D0016841F0010142
:101E20000160002010BD00000000014000040140DE
:101E30007047704710B504460068416994F839202E
:101E4000C1F3C011212A0BD151B1416921F08001A8
:101E50004161206B08B1FEF718FF204600F04FFFEC
:101E60002068416994F83A20C1F38011222A0BD1ED
:101E700051B1416921F040014161606B08B1FEF749
:101E800004FF204600F02DFF002010BD7047000029
:101E900030B401680A68D2065ED50A684968416BA9
:101EA000304A096891420AD02F4A914207D02D4A00
:101EB0006032914203D02C4A6032914201D12022FB
:101EC00022E0284B1833DA1499421DD0264B1833E0
:101ED000994219D0234B7833994215D0224B78334D
:101EE000994211D01F4B9202303399420CD01E4BB5
:101EF0003033994208D01B4B9033994204D01A4B8F
:101F00009033994200D092010B6823F001030B60DB
:101F1000416B154B09684833994202D91249091F90
:101F200005E0104BA833994203D90F4908390A60DC
:101F300008E00C4C0B4B4834103BA14201D9DA604D
:101F400000E09A60426B818D12685160416B0968B4
:101F50000A6842F001020A60816A30BC0348FEF759
:101F6000CFB9000010600240106402409C050020C0
:101F700070B5026804461068D168536910F00F0FFD
:101F800052D003F0010501F490762E435FD0C207D2
:101F900005D0CA0503D5E26B42F00102E2634207B5
:101FA00005D5DA0703D0E26B42F00202E263820752
:101FB00005D5DA0703D0E26B42F00402E2630207C0
:101FC00007D501F020022A4303D0E26B42F0080259
:101FD000E263E26B002A33D0800604D5880602D57E
:101FE000204600F0D1FE20684069E16BC0F380100C
:101FF000090700D428B3204600F073FE2068416929
:1020000049061AD5416921F040014161606BA0B1D8
:102010001B490165606BFEF77FFE002810D0606BE6
:10202000016DBDE870400847830610D58B060ED5BC
:102030002046BDE8704000F0A7BE2046FFF726FF0F
:1020400070BD2046FFF722FF0020E06370BD03064D
:1020500006D50B0604D52046BDE8704000F074BFDD
:102060004006F3D54806F1D5D168204621F040015D
:10207000D160202184F8391000F066F970BD0000AD
:102080000B2C000870B5040004D094F8390000252A
:1020900010B106E0012070BD84F83850204600F0F1
:1020A00023F8242084F839002068C16821F4005105
:1020B000C160204600F0B4FE2068016921F490411F
:1020C00001612068416921F02A0141612068C168ED
:1020D00041F40051C160E563202084F8390084F8A0
:1020E0003A00002070BD0000F0B587B0064614210C
:1020F0006846FEF7AFF842484149DFF800C135684D
:1021000000241439022203230715654535D10568DB
:1021100045F010050560006800F0100005900868A3
:1021200040F0020008600868694600F0020005906F
:10213000C0208DE815000720CDE903303148FEF7B7
:10214000A3FF324D304828607804C5E90104C5E991
:1021500003476C61AC61EC612C6228466C62FEF74F
:10216000BDFE08B1FEF773F9756300221146252004
:10217000AE63FFF7EBF825203BE0DFF894C0654540
:1021800039D1056845F020050560006800F02000A1
:102190000590086840F0400008600868694600F053
:1021A000400005904FF484408DE815000820CDE9EB
:1021B00003301848FEF768FF144D1348603518388F
:1021C00028608005C5E90104C5E903476C61AC617D
:1021D000EC612C6228466C62FEF780FE08B1FEF7C7
:1021E00036F97563002211464720AE63FFF7AEF85B
:1021F0004720FFF79DF807B0F0BD00000010014038
:10220000443802400004024040640240340400208C
:102210000014014000180240F8B5044690F83A0056
:1022200020283CD1C1B3BAB394F83800012836D085
:10223000012084F83800A162A2850025E5632220F0
:1022400084F83A00636B1748D863636B16481864C8
:10225000636B1648D864606B134605650846666B69
:10226000216802463046091DFEF7C5FE2068016858
:102270004168009184F83850C16841F48071C160B0
:102280002068416941F0010141612068416941F0E4
:10229000400141610020F8BDFFE70120FBE702207B
:1022A000F9E70000652C0008A12C00081B2C000891
:1022B00030B40368DC6844F01004DC6030BC00F02B
:1022C00027BD70477047000070B5044690F839008C
:1022D000202830D169B362B394F8380001282AD09D
:1022E000012084F838002162A284E2840025E5639D
:1022F000212084F83900236B1048D863236B1048E1
:102300001864236B0F48D864206B13460565266854
:10231000206B321DFEF76FFE21686FF040000860F1
:1023200084F838502068416941F080014161002003
:1023300070BD012070BD022070BD0000AB2C0008F4
:10234000D92C00081B2C000870477047FEE70000DE
:102350000F4810B50D4901600321416000214FF481
:1023600000228160C0E903124FF4401242610176FD
:1023700041768176C17601774177FEF7ECFA002845
:1023800003D0BDE81040FEF762B810BD0064004005
:10239000800200200F4810B50D4901600321416003
:1023A00000214FF400228160C0E903124FF4401273
:1023B0004261017641768176C17601774177FEF7F9
:1023C000CAFA002803D0BDE81040FEF740B810BD9F
:1023D00000680040A80200200D4808B5016841F4DB
:1023E000800101600068002200F480000090114626
:1023F0003920FEF7ABFF3920FEF79AFF0022114685
:102400003A20FEF7A3FFBDE808403A20FEF790BF50
:10241000303802402DE9F04786B014216846FDF7B8
:1024200019FF3B480024016841F040010160016848
:1024300001F040010591016841F00101016001686E
:1024400001F001010591016841F00201016001689C
:1024500001F002010591016841F008010160016885
:1024600001F008010591016841F0800101600168F7
:1024700001F080010591016841F0100101600168DF
:1024800001F010010591016841F020010160006830
:10249000DFF8808000F02000059000223C214046BB
:1024A000FEF7E1FEDFF870904FF40066002231463F
:1024B0004846FEF7D8FEDFF864A0F7000022394650
:1024C0005046FEF7D0FE3C2000900125CDE9015496
:1024D000694640460394FEF7D7FD0420CDE9000489
:1024E00069460F480294FEF7CFFD0096CDE90154EE
:1024F000694648460394FEF7C7FD0097CDE90154AD
:10250000694650460394FEF7BFFD06B0BDE8F0876C
:1025100030380240001C024000100240001402400B
:102520000004024010B58EB000240794089409946A
:102530000A940B941C2168460C94FDF78BFE2B48E3
:102540002949016040F2CF21C0E9011440F2CF7166
:10255000C0E903148461FFF723FA08B1FDF777FFA0
:102560004FF48050079007A92048FFF770FA08B190
:10257000FDF76DFF1D48FFF71CFC08B1FDF767FF75
:102580000B940BA919480C94FFF7C2F908B1FDF799
:102590005EFF6020CDE900040294002269461348E2
:1025A0000494FFF79EFB08B1FDF751FF0422694632
:1025B0000E48FFF796FB08B1FDF749FF0822694670
:1025C0000A48FFF78EFB08B1FDF741FF0C22694670
:1025D0000648FFF786FB08B1FDF739FF0348FFF710
:1025E00055FB0EB010BD000000080040D0020020D6
:1025F0001CB500240E4800940C490194016053213D
:10260000C0E9011440F2CF718461C160FFF7C8F9DD
:1026100008B1FDF71CFF0094694605480194FFF7D7
:1026200077F9002801D0FDF712FF1CBD001400400F
:10263000100300200D4810B50B4901600C494160A2
:1026400000214FF480628160C0E903120C22C0E9CE
:102650000521C161FFF716FD002803D0BDE8104039
:10266000FDF7F5BE10BD000000100140B4030020CE
:10267000A08601000C4810B50A4901604FF4E13111
:102680004160002181600C22C160C0E904128161B7
:10269000C161FFF7F7FC002803D0BDE81040FDF74B
:1026A000D6BE10BD00140140F4030020FEE77047C1
:1026B0007047000070B53D4C4FF4FA60228812FB61
:1026C00000F14FF4257091FBF0F100EE101A38493B
:1026D0004FF63003B8EEC00A81ED000A12FB03F298
:1026E00092FBF0F200EE102A4FF4FA63B8EEC00A43
:1026F00081ED010AA28812FB03F393FBF0F300EED5
:10270000103A4FF63003B8EEC00A81ED020A12FB10
:1027100003F292FBF0F000EE100A264DB8EEC00A6C
:1027200081ED030A607A022809D10122042128469A
:10273000FEF799FD002208212846FEF794FD607AF5
:10274000032809D1012208212846FEF78CFD00222A
:1027500004212846FEF787FD207A032809D10122AB
:1027600010212846FEF77FFD002220212846FEF793
:102770007AFD207A022809D1012220212846FEF77D
:1027800072FD002210212846FEF76DFD0A4D4FF420
:1027900080412846FEF762FD084C4FF40041E0609E
:1027A0002846FEF75BFD206170BD00009C050020FF
:1027B0003C000020001C0240000C024020000020D1
:1027C0007047FEF75BBD000030B593B0302168461E
:1027D000FDF740FD14210CA8FDF73CFD194800252C
:1027E000016841F080510160006800F08050119054
:1027F0001548016841F4404101600068022400F47A
:102800004040119001200090000401908001CDE92A
:10281000064006200890A820CDE9090404200B906A
:102820006846FEF7B1FE0CA90F2081E831004FF495
:10283000A0500F90E002109005210CA8FEF7B8FD03
:1028400013B030BD403802400070004005480168B8
:1028500041F47001016003494FF000608039086065
:102860007047000088ED00E02DE9F843DFF8B880FC
:102870002E4E2F4D002400BF04EB440108EB8107CE
:10288000B7F9060000EE100A06EB8400F8EEC00A65
:1028900090ED000AC4EB041005EB800000F0CCFCC6
:1028A000BDEEC00A641CE4B210EE100A042C78805D
:1028B000E2D3B8F9260000904746B8F91A30B8F9C3
:1028C0000E20B8F90210002000F050FD0424B0469C
:1028D00004EB440007EB8006B08800EE100A08EB1A
:1028E0008400F8EE400A90ED000AC4EB041005EBFA
:1028F000800000F0A1FCBDEEC00A641CE4B210EE42
:10290000100A072C7080E3D3002000900346B7F92B
:102910003E20B7F93210012000F028FDBDE8F84351
:102920000448FFF700B90000F40400203C00002038
:102930005800002010030020F0B50268254C264DF9
:10294000264E274F274B4FF0804CA04209D06045C0
:1029500007D0A84205D0B04203D0B84201D0984277
:1029600004D122F0700E4A6842EA0E02A0421BD047
:10297000604519D0A84217D0B04215D0B84213D044
:10298000984211D0184DA8420ED0184DA8420BD035
:10299000174DA84208D0174DA84205D0164DA842A1
:1029A00002D0164DA84203D122F44075CA682A43CA
:1029B0004D6922F080022A4302608A68C2620A6876
:1029C0008262A04201D0984201D1096901630121CC
:1029D0004161F0BD000001400004004000080040DB
:1029E000000C004000040140004001400044014050
:1029F0000048014000180040001C0040002000403A
:102A000010B501F01F030121046A99408C43046250
:102A1000016A9A401143016210BD10B5846842EA10
:102A2000032224F47F440A432243826010BD82685B
:102A300022F070020A4342F00701816070470000F3
:102A4000F0B5026A22F001020262036A42688469F8
:102A5000124E24F073050C682C4323F002058B689A
:102A60002B430D4DA84201D0B04205D123F00807F9
:102A7000CB683B4323F00403A84201D0B04205D108
:102A80004D6922F4407215438A692A434260846189
:102A9000496841630362F0BD000001400004014049
:102AA000F0B5026A22F010020262026A4368846989
:102AB0000D6824F4E64444EA05248D6822F02002DF
:102AC00042EA05120F4D104EA84201D0B04206D185
:102AD000CF6822F0800242EA071222F04002A842A8
:102AE00001D0B04207D14D6923F4406343EA850326
:102AF0008D6943EA850343608461496881630262AA
:102B0000F0BD00000000014000040140F0B5026A81
:102B100022F480720262026A4368C46922F400727D
:102B200024F073050C68124E2C438D6842EA05228E
:102B30000E4DA84201D0B04206D1CF6822F4006207
:102B400042EA072222F48062A84201D0B04207D1B3
:102B50004D6923F4405343EA05138D6943EA051395
:102B60004360C4614968C1630262F0BD0000014076
:102B70000004014030B5026A22F480520262046A05
:102B80004268C3690D6823F4E64343EA05238D6870
:102B900024F4005444EA0534084DA84202D0084DFC
:102BA000A84204D14D6922F4804242EA8512426073
:102BB000C36149680164046230BD00000000014047
:102BC0000004014010B5036A046A24F001040462A1
:102BD000846924F0F00444EA021423F00A020A4350
:102BE0008461026210BD10B5036A23F01003036212
:102BF0008369046A23F4704343EA023224F0A00399
:102C000043EA01118261016210BD10B5806B0021A1
:102C1000C185C184FFF73AF910BD70B5846B206897
:102C2000406994F83910C0F3C0100025212904D15F
:102C300018B1E584204600F062F82068406994F8F5
:102C40003A10C0F38010222904D118B1E58520463E
:102C500000F047F8E06B40F01000E0632046FFF71B
:102C600015F970BD10B50146806B09680968C90582
:102C700013D40021C1850168CA6822F48072CA6039
:102C800001684A6922F001024A6101684A6922F03A
:102C900040024A61202180F83A10FFF712FB10BD74
:102CA00010B5806BFFF70EFB10BD10B50146806BB1
:102CB00009680968C9050CD40021C18401684A6902
:102CC00022F080024A610068C16841F04001C160A1
:102CD00010BDFFF739FB10BD10B5806BFFF735FB5A
:102CE00010BD0168CA6822F49072CA6001684A691E
:102CF00022F001024A61202180F83A1070470168F1
:102D0000CA6822F0C002CA60202180F839107047DA
:102D1000F8B5044690F83A00202833D179B372B35D
:102D200094F8380001282DD0012084F83800A162E1
:102D3000A2850025E563222084F83A00606B1346E3
:102D400005650846666B216802463046091DFEF798
:102D50002FF9206801684168009184F83850C168F3
:102D600041F48071C1602068416941F00101416115
:102D70002068416941F0400141610020F8BDFFE752
:102D80000120FBE70220F9E710B590F83A1022295C
:102D900001D0022010BD8168B1F5805F11D00169BA
:102DA000002901681FD0496801F07F03816A4A1C2D
:102DB00082620B70C18D491E0904090CC18518D0AF
:102DC0002BE00269816A002A0268526805D0D2B2FB
:102DD0000A80816A491C8162ECE7C2F308020A801A
:102DE000816A891CF7E74A68816A4B1C83620A7012
:102DF000E0E70168CA6822F02002CA600168CA6878
:102E000022F48072CA6001684A6922F001024A61B4
:102E1000202180F83A10FFF754FA002010BD00007E
:102E20002DE9F041044600680169E26821F440514F
:102E3000114301612169A068E26908436169114396
:102E400008432168CA6849F20C639A430243CA6086
:102E500020684169A26921F4407111434161E06930
:102E6000192764253226B0F5004F354A35492068C8
:102E70004FF0000806D0884201D0904236D1FEF7CC
:102E800041FB35E0884201D0904202D1FEF73AFB87
:102E900001E0FEF727FB61684A18A0FB070148EB39
:102EA0000803FDF79FF90146B0FBF5F00201B1FB05
:102EB000F5F06FF01803584301EB800006EBC000FB
:102EC000B0FBF5F000F0F80002EB4002B1FBF5F0CA
:102ED000584301EB800006EBC000B0FBF5F000F0BA
:102EE0000700216810448860BDE8F081FEF7FAFA17
:102EF00061688B0F8A00A0FB0701FDF773F901469B
:102F0000B0FBF5F06FF01802504301EB800006EBC8
:102F10000010B0FBF5F000F0F002B1FBF5F002EBB1
:102F20000012B1FBF5F06FF01803584301EB80007D
:102F300006EB0010B0FBF5F000F00F00D1E7000049
:102F4000001401400010014090F83910212901D0EF
:102F5000022070478168B1F5805F016A0BD04A1C7E
:102F60000262026809785160C18C491E0904090C8B
:102F7000C1840ED017E009880268C1F308015160CE
:102F800001690029016A02D0491C0162ECE7891C31
:102F9000FBE70168CA6822F08002CA600068C16865
:102FA00041F04001C16000207047000010B50448A6
:102FB000FEF76EFFBDE810400148FEF7D9BF0000E4
:102FC000B403002038B5224800680168C943C90627
:102FD00038D40168406800901D48FEF72BFF1D485B
:102FE000006840681C49C0F1800082B21848FFF7B1
:102FF0006BF90A2218491648FFF70EF916480178AE
:103000008278303901EBC10303EB011102EB81023D
:10301000417801EB8103114901EB43031A44104B42
:103020001A60C27843790079303A00EB800002EBF5
:10303000C20401EB400004EB02120A4903EB8202D6
:1030400010440860BDE838400148FEF791BF000019
:10305000F40300209404002074020020F0FDFFFF20
:103060000000002004000020FEE70907090E0028E8
:1030700004DB00F1E02080F80014704700F00F003E
:1030800000F1E02080F8141D704702E008C8121F0C
:1030900008C1002AFAD170477047002001E001C141
:1030A000121F002AFBD1704700B58BB00020012110
:1030B000CDE90601089100900190029003900590DF
:1030C000049069460C48FDF74DFA0B48FDF7AAFD40
:1030D00002210948FDF7D0F90E20099005906946B4
:1030E0000648FDF73FFA0548FDF79CFD022103481D
:1030F000FDF7C2F90BB000BD80020020A80200203D
:103100002DED048BFEF7C2F8FFF75EFBFFF782F9A7
:10311000FFF762F9FFF71CF9FFF704FAFFF78AFAE5
:10312000FFF7A8FAFFF764FAFFF734F9FFF7BCFFDF
:1031300000F006F935489FED340A80ED040A344862
:10314000FEF774FC642233493348FFF7B1F8334883
:103150000068C16841F01001C1600A2230492F485F
:10316000FFF75AF8294D00249FED2E9ADFED2E8AA5
:103170009FED2E8A1C3500BFC4EB0410F0EE491AF7
:1031800005EB8001F0EE482AB0EE612AB3EE041A96
:10319000F0EE680AB2EE040A012000F0CBF8641CDD
:1031A000E4B2042CE8D30424DFED218AB0EE481AFF
:1031B000C4EB041005EB8001F0EE412AB0EE682A62
:1031C000F0EE411AF8EE000AB9EE000A002000F015
:1031D000B1F8641CE4B2072CE8D3F0EE480A1049B9
:1031E000F0EE602A9FED132AF0EE601AB0EE601A3E
:1031F000B0EE000A7839012000F09CF8FDF728F9BC
:10320000FFF758FAFCE7000000C0A8453C0000208A
:103210001003002050030020B4030020F40300201A
:103220007402002000606A46CDCC4C3D00000000D6
:103230000020CB450080BB4480ED070AC0ED080AA2
:1032400090ED091A30EE600A80ED0A1A80ED090A45
:10325000D0ED061AF0EEC00AF4EEE10AF1EE10FA33
:1032600004DCF5EEC01AF1EE10FA5BD1017891B9E9
:1032700010EE901AB1F18B4F0DDDB5EEC00ADFED07
:103280002B0AF1EE10FA02DD30EE600A01E030EEBA
:10329000200A80ED090A90ED010AD0ED091A60EECE
:1032A000210AC0ED0B0A90ED0C0A90ED022A02EE05
:1032B000210A80ED0C0A90ED032A12EE211A80ED0E
:1032C0000D1AD0ED041AB1EE612AB4EEC20AF1EE85
:1032D00010FA02D8B0EE420A06E0B4EEE10AF1EECE
:1032E00010FA01DBB0EE610A80ED0C0A30EE800AC4
:1032F00030EE010A80ED0E0AD0ED050AB1EE601A3B
:10330000B4EEC10AF1EE10FA02D8B0EE410A06E0BE
:10331000B4EEE00AF1EE10FA01DBB0EE600A80EDE7
:103320000E0A70479FED020AF9E7000000F8FF451A
:10333000000000000A1D82EC060A087070470000B9
:1033400010B500210848FEF751FD04210648FEF79C
:103350004DFD08210448FEF749FDBDE810400C2151
:103360000148FEF743BD0000D002002010B588B030
:103370000A9C18B340F2FF100290002004900590C0
:1033800008200690080A8DF800008DF80110100A38
:103390008DF80200180A8DF804008DF805308DF8BC
:1033A0000740200A8DF803208DF8060001236A46A5
:1033B00002A90448FDF772F808B010BD4FF4007080
:1033C000DAE7000080020020000610160006101642
:1033D00000000000000000000102030406070809C5
:1033E000000000000102030408340008000000206F
:1033F0003C0000008A300008443400083C000020F3
:10340000740900009A30000800000000000000006D
:10341000000000000100000010000000000000009B
:103420000024F40000000000000100000000000083
:10343000000000000000000000000000000000008C
:043440000000000088
:04000005080001AD41
:00000001FF
